:020000040800F2
:1000000098040020390100088716000883160008AC
:10001000851600088502000801190008000000008C
:10002000000000000000000000000000231800088D
:100030008702000800000000A91600082518000823
:100040005301000853010008530100085301000840
:100050005301000853010008530100085301000830
:100060005301000853010008530100085301000820
:100070005301000853010008530100085301000810
:100080005301000853010008530100085301000800
:1000900053010008530100085301000853010008F0
:1000A00053010008530100085301000853010008E0
:1000B00053010008530100085301000853010008D0
:1000C00053010008530100085301000853010008C0
:1000D00053010008530100085301000853010008B0
:1000E00053010008B5170008530100085301000828
:1000F0005301000853010008530100085301000890
:10010000530100085301000853010008530100087F
:1001100053010008530100085301000800000000CB
:1001200053010008DFF80CD000F040F80048004709
:10013000991C00089804002006488047064800479C
:10014000FEE7FEE7FEE7FEE7FEE7FEE7FEE7FEE787
:10015000FEE7FEE7B118000825010008D2B201E071
:1001600000F8012B491EFBD270470022F6E710B5BC
:1001700013460A4604461946FFF7F0FF204610BD15
:1001800030B50B46014600202022012409E021FA67
:1001900002F59D4205D303FA02F5491B04FA02F564
:1001A0002844151EA2F10102F1DC30BD064C074DBA
:1001B00006E0E06840F0010394E807009847103437
:1001C000AC42F6D3FFF7B2FF641D0008841D00089F
:1001D00070B586B0044614216846FFF7C6FF19497A
:1001E00034B1012C04D0022C0AD0032C08D00FE02B
:1001F000086840F008000860086800F0080006E0A1
:10020000086840F080000860086800F080000590F1
:100210000D4E0E4D694636F81400009001200190F5
:10022000002002900320039055F8240000F040F8CD
:1002300036F8141055F82400012200F015F906B024
:1002400070BD00001C380240461D00080800002058
:100250000449054A31F8101052F82000002200F03D
:1002600003B90000461D0008080000200349044AA5
:1002700031F8101052F8200000F0F2B8461D0008C6
:1002800008000020FEE770474FF47A740220FFF761
:10029000EDFF204600F001F8F8E731B500F0EAF88C
:1002A000044600F0E7F80099001B8842F9D338BDF6
:1002B0002DE9F84FDFF880B100234FF0010C4FF02B
:1002C000030A4FF00F090BF1040EAEE00CFA03F62F
:1002D00014EA060270D04C68022C01D0122C11D105
:1002E000DC0800EB84073C6A5D07ED0E09FA05F8AF
:1002F00024EA0804D1F8108008FA05F848EA04084E
:10030000C7F8208007685D0091F804800AFA05F4B8
:1003100008F00308A74308FA05F848EA0708C0F8F8
:1003200000804F68012F05D0022F03D0112F01D07C
:10033000122F11D18768D1F80C80A74308FA05F86D
:1003400048EA0708C0F808804768B7430E79C6F343
:1003500000169E403E434660C668A6438C68AC408B
:100360003443C4604C68E4005ED5344C256845F0E5
:1003700001052560246823F0030504F001040094BE
:100380002F4C2E19B4689D072F0F09FA07F5AC43BF
:100390002C4DA84201D100251FE02B4DA84201D1D0
:1003A00001251AE0294DA84201D1022515E0284D6A
:1003B000A84202D1032510E036E0264DA84201D123
:1003C00004250AE0244DA84201D1052505E0234D6E
:1003D000A84201D1062500E00725BD402543B560B0
:1003E000DBF800405D464E689443F60300D51443A5
:1003F0002C60DEF8004075464E689443B60300D585
:1004000014432C600C4D08352C684E689443F6025A
:1004100000D514432C60084D0C352C684E6894436D
:10042000B60200D514432C605B1C0A681446DA40FF
:100430007FF44CAFBDE8F88F000401402038024043
:100440000000014000000240000402400008024099
:10045000000C02400010024000140240001802404C
:1004600042694A40426170470AB18161704709049C
:10047000FBE700000148006870470000040000200E
:1004800002480168491C0160704700000400002018
:10049000094810B5016841F004010160016841F0AC
:1004A00002010160032000F049F80F2000F006F877
:1004B00000F018F8002010BD003C024010B50446C2
:1004C00007484FF47A710068B0FBF1F001F0C5F80D
:1004D00000222146501E00F011F8002010BD00003F
:1004E00000000020704700F01F02012191404009E8
:1004F000800000F1E020C0F800117047F0B40E4B0E
:100500001B680C46C3F30223C3F10705042D00D971
:100510000425191D072901D2002300E0DB1E012656
:1005200006FA05F1491E214099409E40761E16406C
:100530003143F0BC01F0A8B80CED00E0064900F032
:10054000070208684FF6FF03184040EA0220034AFA
:1005500010430860704700000CED00E00000FA0551
:100560000248006800F4C05070470000007000406E
:100570000120010291FAA1F1024AB1FA81F142F897
:100580002100704700000E422DE9F84F0446006834
:10059000C10701D1800778D5DFF868810027D8F836
:1005A0000000C0000BD4D8F8001041F08051C8F80A
:1005B0000010D8F80000012700F080500090524D44
:1005C0002868C00510D4286840F480702860FFF7C0
:1005D00051FF064605E000BFFFF74CFF801B642873
:1005E0005CD82868C005F7D5464E243E306861685F
:1005F00000F0C04001F0C042824204D1A26802F083
:10060000C042824209D0C1F30140032805D13068BD
:10061000800302D50120BDE8F88F3A4D10352868D7
:1006200010F4403052D001F44031814202D02178A0
:10063000C90707D1A16801F44031814246D0207832
:10064000800743D528684FF4000292FAA2F1B1FA6C
:1006500081F14FEA810C2D494FF0010A8C4420F4BE
:100660004030CCF880A692FAA2F2B2FA82F201EB04
:1006700082010023C1F880362860C00526D5FFF727
:10068000F9FE81464FF4007B0AE038E0FFF7F2FE06
:10069000A0EB090141F28830814201D90320BAE779
:1006A0009BFAABF0B0FA80F040F04001BAEB511F7A
:1006B00001D1316800E029689BFAABF2B2FA82F20C
:1006C00002F01F020AFA02F00142DFD06068C0F3B4
:1006D0000141032906D1316800F0C04021F0C0413A
:1006E000014331602868616801F4403108432860A3
:1006F0002FB1D8F8001021F08051C8F80010002068
:1007000089E70000243802400070004000004742A2
:100710002DE9F047DFF8BC8105460E46D8F8000009
:1007200000F00100B04214D2012E05D1D8F800101B
:1007300041F00401C8F80010D8F8001021F00101C0
:100740003143C8F80010D8F8000000F00100B042B2
:1007500071D12878604C800705D52068A96820F001
:10076000F000084320602878C00771D05A4A5A4BDD
:1007700069680120083A2C33022910D003292ED0B1
:1007800001292FD05FEA402797FAA7FCBCFA8CFC1E
:100790004CF0200C5FEA5C1C04D0126803E04FF4BC
:1007A0000037F1E71A6897FAA7F3B3FA83F303F077
:1007B0001F039840024262D0206820F003000843E3
:1007C0002060FFF757FE6968074641F2883002292A
:1007D00010D003291CD00129814626D034E04FF0E7
:1007E0000077D1E70227CFE7FFF744FEC11B494559
:1007F00001D926E081462068C0F381000228F3D1A8
:1008000026E000BFFFF736FEC11B494501D918E0BD
:1008100081462068C0F381000328F3D118E000BFAF
:10082000FFF728FEC11B49450BD82068C0F38100A3
:100830000128F5D10CE022E0FFF71CFEC11B494561
:1008400002D90320BDE8F087206810F00C0FF3D127
:10085000D8F80010404601F00101B14211D9012E33
:1008600003D1016841F004010160016821F0010138
:1008700031430160006800F00100B04201D0012066
:10088000E0E72878400705D52068E96820F4E060B3
:10089000084320602878000706D52068296920F4DD
:1008A000605040EAC100206000F01CF82168F0228E
:1008B00092FAA2F201F0F001B2FA82F2D140074AB4
:1008C000515CC840064908600F20FFF7F7FD002083
:1008D000B8E70000003C024008380240291D00082B
:1008E000000000201E4A116801F00C00042813D0FB
:1008F000082813D00C2813D0101F006800F46041A2
:100900004FF4604090FAA0F0B0FA80F0C1404FF48C
:100910000040491C88407047124870471248704791
:100920004FF4701393FAA3F301F47010B3FA83F346
:10093000D8400E4B01F440011268185C4FF440039C
:1009400093FAA3F3B3FA83F3D940491CD20301D538
:10095000054A00E0034A5043B0FBF1F07047000045
:10096000083802400024F40000127A00201D00081C
:100970002DE9F84F07460078FB4EFC4DC0074FF0BD
:10098000010428D0F848083001684FF40038C1F35A
:100990008101022907D00168C1F3810103291BD11C
:1009A0000068C00318D598FAA8F0B0FA80F040F0BB
:1009B0002000400901D0306800E0286898FAA8F1CA
:1009C000B1FA81F101F01F0104FA01F108425CD093
:1009D000786800287BD058E0786801280AD008B1F0
:1009E000052811D0306820F480303060306820F461
:1009F000802002E0306840F480303060786828B3AE
:100A0000FFF738FD81460BE0306840F4802030600D
:100A1000F0E700BFFFF72EFDA0EB0900642872D8B5
:100A200098FAA8F0B0FA80F040F02000400901D018
:100A3000306800E0286898FAA8F1B1FA81F101F075
:100A40001F0104FA01F10842E4D01EE0FFF712FD95
:100A5000814605E0FFF70EFDA0EB09006428DED813
:100A600098FAA8F0B0FA80F040F02000400901D0D8
:100A7000306800E0286898FAA8F1B1FA81F101F035
:100A80001F0104FA01F10842E4D13878DFF8E0826E
:100A900080074FF0000B4FF002095FD5B2480830D5
:100AA0000168C1F38101012907D00168C1F3810107
:100AB00003291CD10068C00319D499FAA9F0B0FA2F
:100AC00080F040F02000400902D0306801E086E06C
:100AD000286899FAA9F1B1FA81F101F01F0104FA2D
:100AE00001F108422BD0F868012878D127E0F86896
:100AF000A8B394FAA4F0B0FA80F048F82040FFF7C9
:100B0000B9FC824606E066E1FFF7B4FCA0EB0A0000
:100B1000022884D899FAA9F1B1FA81F141F02001B3
:100B2000490901D0316800E0296899FAA9F0B0FAC2
:100B300080F000F01F0004FA00F00142E4D08A487F
:100B4000001D01684FF4F85393FAA3F33A69B3FA1E
:100B500083F321F4F8519A401143016025E0FFE747
:100B600094FAA4F1B1FA81F148F821B0FFF782FCC0
:100B7000824605E0FFF77EFCA0EB0A000228C8D8F9
:100B800099FAA9F0B0FA80F040F02000400901D0B5
:100B9000306800E0286899FAA9F1B1FA81F101F012
:100BA0001F0104FA01F10842E4D138784FF4007AC9
:100BB000C0067CD56C480830006810F00C0F0FD0D0
:100BC000B9694FF48070002972D090FAA0F0B0FAA1
:100BD00080F048F82040FFF74DFC00907EE087E071
:100BE0009AFAAAF0B0FA80F040F02000400901D053
:100BF000306800E028689AFAAAF1B1FA81F101F0B0
:100C00001F0104FA01F1084202D0B86900286FD030
:100C10005548396A001D006800F4604081421AD9C5
:100C2000084600F043FD002862D14F48001D0168CE
:100C30003A6A21F460411143016001684FF07F433B
:100C400093FAA3F3FA69B3FA83F321F07F419A4050
:100C50001143016018E04448001D026822F460421C
:100C60000A43026001684FF07F4393FAA3F3FA69E5
:100C7000B3FA83F321F07F419A4011430160386A4F
:100C800000F014FD0028CFD14FF4604191FAA1F19A
:100C9000386AB1FA81F1C8404FF40041401C8140EC
:100CA000314808300068F02200F0F00001E070E008
:100CB00040E092FAA2F2B2FA82F2D0402D4A105CE1
:100CC000C1402D4801600F20FFF7F8FB61E000BF35
:100CD000FFF7D0FB0099401A02287CD89AFAAAF0B4
:100CE000B0FA80F040F02000400902D0306801E006
:100CF000BCE128689AFAAAF1B1FA81F101F01F016A
:100D000004FA01F10842E3D01748001D01683A6A6D
:100D100021F460411143016001684FF07F4393FA71
:100D2000A3F3FA69B3FA83F321F07F419A401143A8
:100D300001602EE090FAA0F0B0FA80F048F820B000
:100D4000FFF798FB009005E0FFF794FB0099401A2D
:100D50000228C2D89AFAAAF0B0FA80F040F0200037
:100D600040090BD030680AE00038024034380240B5
:100D700000004742291D00080000002028689AFA58
:100D8000AAF1B1FA81F101F01F0104FA01F1084260
:100D9000DAD13878000753D5786948B394FAA4F0CB
:100DA000B0FA80F008EB8000C0F88046FFF762FBE5
:100DB000009005E0FFF75EFB0099401A02288CD8EE
:100DC00099FAA9F0B0FA80F040F04000B4EB501F5F
:100DD00002D1306801E08EE0286899FAA9F1B1FAF1
:100DE00081F101F01F0104FA01F21042E2D027E084
:100DF00094FAA4F1B1FA81F108EB8101C1F880B64F
:100E0000FFF738FB009005E0FFF734FB0099401A2C
:100E1000022870D899FAA9F0B0FA80F040F04000AA
:100E2000B4EB501F01D1306800E0286899FAA9F1AD
:100E3000B1FA81F101F01F0104FA01F21042E3D18D
:100E4000387840077BD59B484FF000090068C00008
:100E50000AD49848016841F08051016000684FF061
:100E6000010900F08050009093480168C90511D431
:100E7000016841F480710160FFF7FCFA009005E021
:100E8000FFF7F8FA0099401A642834D88A480068B5
:100E9000C005F5D5B86801280AD008B1052811D0D9
:100EA000286820F480702860286820F4806002E0C0
:100EB000286840F480702860B86848B3FFF7DAFA11
:100EC00000900DE0286840F480602860F0E700BFE3
:100ED000FFF7D0FA0099411A41F2883081420AD8CE
:100EE0009AFAAAF0B0FA80F040F04000B4EB501F3C
:100EF00002D1306801E095E028689AFAAAF1B1FAC7
:100F000081F101F01F0104FA01F21042E0D022E069
:100F1000FFF7B0FA009007E0FFF7ACFA0099411A2A
:100F200041F2883081427DD89AFAAAF0B0FA80F076
:100F300040F04000B4EB501F02D1306801E012E0F5
:100F400028689AFAAAF1B1FA81F101F01F0104FAB6
:100F500001F21042E0D1B9F1000F04D05548016808
:100F600021F080510160786AE8B3DFF84891A9F177
:100F70001C09D9F80010C1F38101032976D0022899
:100F80004FF080714FF0007A58460BD091FAA1F1E2
:100F9000B1FA81F148F82100FFF76CFAB046074634
:100FA00056466DE04FF0807191FAA1F1B1FA81F1EE
:100FB0008A0042495050FFF75DFAB34680465646D4
:100FC00006E000BFFFF756FAA0EB0800022854D84D
:100FD00096FAA6F0B0FA80F040F02000400903D065
:100FE000DBF8000001E061E0286896FAA6F1B1FAAA
:100FF00081F101F01F0104FA01F10842E2D1D7E9C1
:101000000A103A6BD9F80030014323F47D031A43E8
:101010001143C9F800104FF0807090FAA0F0B0FAB8
:1010200080F000E029E0810024480C50FFF722FA0C
:10103000074604E0FFF71EFAC01B02281DD896FAE7
:10104000A6F0B0FA80F040F02000400902D0DBF8B2
:10105000000000E0286896FAA6F1B1FA81F101F0EB
:101060001F0104FA01F10842E4D01FE020E000BFB4
:10107000FFF700FAC01B022802D90320BDE8F88F51
:1010800096FAA6F0B0FA80F040F02000400902D0B5
:10109000D8F8000000E0286896FAA6F1B1FA81F1CC
:1010A00001F01F0104FA01F10842E1D10020E5E757
:1010B0000120E3E72438024000700040000047426E
:1010C00070470020FFF7C4B810B504460068816877
:1010D000C9040CD5C068C00509D52046FFF7F1FF4B
:1010E0002068C16801F0800161F4C071C1602068AE
:1010F000816889040CD5C068800509D52046FFF7B2
:10110000DFFF2068C16801F0800161F42071C160D7
:1011100003494FF4003008600120607710BD0000E3
:101120001404014010B500680B4641680D480140A9
:10113000080CD870C1F304245C7001F03F049C706B
:10114000C1F34231197052B900F03AFBD8705878A7
:1011500000F036FB5870987800F032FB9870002051
:1011600010BD00003FFFFF0010B50C460168896A02
:1011700089B2616001680969C1F30E01A16000686C
:1011800001680E480140C1F305402070C1F30623F9
:10119000637001F07F03A370402303EA1141E17003
:1011A00052B900F00DFB2070607800F009FB607010
:1011B000A07800F005FBA070002010BD7F7F7F00AD
:1011C00070B5040002D0607F10B106E0012070BD50
:1011D00000202077204600F041F802206077216847
:1011E000CA204862216853204862204600F0FCFA79
:1011F000FF210028206803D0416204206077E5E7E2
:101200008268154B1A4082602268906863681843B0
:10121000D4E904352B43184390602268E0681061DC
:1012200020680269238942EA034202612068C26899
:1012300022F08002C2602068026C22F480220264E4
:101240002068026CA3691A4302642068416201208D
:101250006077002070BD0000BFFF8FFF1C4810B5F5
:10126000016892B041F080510160006800F0805048
:101270001090FFF77DF90C200090002001240990C8
:10128000029005946846FFF773FB08B1FEF7FCFF78
:101290004FF40030CDE90D400DA8FFF775F908B106
:1012A000FEF7F2FF4FF4800090FAA0F00949B0FA7F
:1012B00080F001EB8000C0F8804600220F21292039
:1012C000FFF71CF92920FFF70EF912B010BD00003E
:1012D00024380240000047422DE9F05F0446007FB9
:1012E0000D46012848D00120207702206077206831
:1012F000002780684FEA4060EAB3002859DA28786E
:1013000000F05EFA95F8200000F05AFAA8782978E3
:10131000EA7840EA01406978090241EA024108435B
:1013200095F8201040EA0166E869A96906436869F2
:101330000643686840EA01082168CA2048622168BB
:1013400053204862686AFF25B0F5807F20684FF01F
:10135000030B4FF47A7A81682DD021F400718160FB
:101360002068C16801F0800161F42071C160FFF75D
:1013700081F8814655E002E00220BDE8F09F002898
:1013800000DBEF70287800F024FA0604687800F09B
:1013900020FA46EA0026A87800F01BFA0643E8780F
:1013A00046EA004695F8200000F013FA46EA006687
:1013B000BAE7EF70A6E721F4807181602068C16808
:1013C00001F0800161F4C071C160FFF753F88146FC
:1013D00006E000BFFFF74EF8A0EB0900504519D812
:1013E0002068C068C007F5D02068C6612168C1F8D0
:1013F00044802068816841F4807181602068816840
:1014000041F480511FE000BFFFF734F8A0EB090062
:10141000504506D92068456284F81DB0277703201F
:10142000ABE72068C0688007EED5206806622168B7
:10143000C1F848802068816841F4007181602068AB
:10144000816841F4005181600848016841F400312D
:10145000016006480830016841F4003101602068ED
:101460004562012060772777002086E7000401406D
:101470002DE9F0470446007F0B46012825D04FF0A8
:10148000010984F81C9002206077587802B300F0BC
:1014900097F9987800F094F99878D97840EA01455E
:1014A00058781978000240EA413005432168CA2083
:1014B0004862216853204862204600F095F90026D2
:1014C000FF274FF0040838BB19E00220BDE8F08781
:1014D000C10603D500F0EF000A305870D87800F04C
:1014E00078F90204587800F074F942EA00229878FA
:1014F00000F06FF90243187842EA4035D6E70D480C
:101500000540206845602068C16821F08001C16005
:10151000204600F085F830B12068476284F81D80CD
:1015200026770120D2E72068476284F81D9026774D
:101530000020CBE73FFFFF002DE9F0470446007F86
:101540000D46012811D04FF0010A84F81CA002209A
:1015500060772068002680684FEA406042B100282A
:101560001ADA287800F02CF917E00220BDE8F0879D
:10157000002800DBEE70287800F02BF90204687870
:1015800000F027F942EA0022A87800F022F902438D
:10159000E87842EA00470AE0EE70A878297840EA45
:1015A00001476878E978000240EA01400743216872
:1015B000CA204862216853204862204600F014F98E
:1015C0004FF0FF084FF00409C0B9144807402068E5
:1015D00007602068816821F480218160D5E90301DA
:1015E000084321688A68104388602068C16821F038
:1015F0008001C160204600F013F838B12168C1F8BD
:10160000248084F81D9026770120AFE72168C1F877
:10161000248084F81DA026770020A7E77F7F7F0025
:1016200070B5044600688168890614D4C16821F049
:10163000A001C160FEF71EFF05464FF47A7606E072
:10164000FEF718FF401BB04201D9032070BD20688F
:10165000C0688006F4D5002070BD10B5401EB0F102
:10166000807F01D3012010BD4FF0E02460610F2185
:10167000601700F009F80020A06107202061002019
:1016800010BDFEE7FEE770470907090E002806DADD
:1016900000F00F0000F1E02080F8141D704700F109
:1016A000E02080F80014704770470000F8B5074646
:1016B0001A48002600681A4D10F0F00F20D1174C80
:1016C0001C342068C00002D5FEF74AFF0DE02068F8
:1016D00040F080502060206800F080500090FEF7BD
:1016E0003FFF216821F080512160B0F5C05F07D134
:1016F000B7F5404F04D12868012640F00400286067
:10170000286820F0010030432860286800F00100BC
:10171000B04201D00120F8BD0020F8BD08380240D9
:10172000003C024070B590B014208DF83F000225B7
:101730008DF83D5018208DF83E008DF83C50012268
:101740000FA91B48FFF794FE70BB00248DF82850AA
:1017500020268DF829608DF82A408DF82B400D94B5
:1017600001220AA912480E94FFF7E6FEE0B9E8014B
:10177000099001208DF82000C00705904FF070609F
:10178000CDE906048DF803408DF800508DF8016016
:1017900030208DF80200562001900122694604484D
:1017A000FFF79AFD002801D0FEF76EFD10B070BD66
:1017B000780000200148FFF787BC00007800002077
:1017C000010901EB810100F00F0000EB4100C0B204
:1017D0007047002102E00A38C0B2491C0A28FAD238
:1017E000090740EA1160704770B504460068C16897
:1017F000490614D44FF0FF31C160FEF73BFE0546A9
:101800004FF47A7607E000BFFEF734FE401BB0428B
:1018100001D9032070BD2068C0684006F4D50020BF
:1018200070BD7047FEF72CBE00B593B014210DA813
:10183000FEF79BFC34216846FEF797FC01200090E0
:10184000019002200990C0030A9000010B90C00093
:101850000C906846FFF78CF808BB1348016841F00C
:1018600080510160006800F0805012900F480168BC
:1018700021F4C05141F4006101604168C943C906C7
:10188000FBD50F200D9003200E9000200F9010909C
:10189000119001210DA8FEF73BFF002801D0FEF7B3
:1018A000F3FC13B000BD000024380240007000407B
:1018B0000F48016841F4807101600D4908310A68E0
:1018C0000C4B1A400A6002680B4B1A400260026817
:1018D00022F480220260086820F47D000860002065
:1018E000091D086005494FF000600860704700005E
:1018F000003802400CC0FF88FEFFFEEE08ED00E05D
:10190000FEE700000FB4084B10B504A902AA039823
:1019100000F01CF8044602A9002000F0B8F92046A7
:1019200010BC5DF814FB00008F1C000802E008C822
:10193000121F08C1002AFAD170477047002001E049
:1019400001C1121F002AFBD1704700002DE9FF4F93
:101950008BB088460546002606E025280BD0DDE939
:101960000D1290476D1C761C28780028F5D10FB019
:101970003046BDE8F08F0024A146A2460122AE49C0
:1019800000E0044315F8013F203B02FA03F008424F
:10199000F7D128782A2810D06FF02F022878A0F1EC
:1019A0003001092915D809EB890102EB410144F006
:1019B000020400EB01096D1CF0E758F8041B5FEA14
:1019C000010903D544F40054C9F1000944F00204AC
:1019D0006D1C28782E2817D115F8010F44F0040447
:1019E0002A280ED06FF02F022878A0F130010929A3
:1019F0000AD80AEB8A0102EB410100EB010A6D1CD7
:101A0000F2E758F804AB6D1C28786C280FD006DC80
:101A10004C2817D068280DD06A2814D104E0742807
:101A200010D07A280FD10DE044F400140AE044F4F9
:101A3000801401E044F440146978814202D104F535
:101A400080146D1C6D1C2878692865D006DC002880
:101A50008DD0632827D0642806D15DE06E2808D099
:101A600073282AD0752877D0DDE90D129047761CAF
:101A7000E0E0C4F30250022809D003280DD0D8F8C2
:101A8000001004280DD00E6008F10408D2E0D8F848
:101A90000010F217C1E90062F6E7D8F800100E80D6
:101AA000F2E70E70F0E718F8041B8DF80010002024
:101AB0008DF80100EB46012003E058F804BB4FF01D
:101AC000FF3061074FF0000701D40AE07F1C574543
:101AD0000DDA8742FADB1BF807100029F6D106E081
:101AE0007F1C8742FCDB1BF807100029F8D1DDE9D9
:101AF0000D23A9EB07008146214600F0B1F83044E0
:101B0000C61904E0DDE90D121BF8010B90477F1E9A
:101B1000F8D22146484688E058F8040BC4F3025135
:101B20004FF00A0B032900D100B2042900D140B2C2
:101B3000002802DA40422D2102E0210505D52B21A3
:101B40008DF82410012104E006E0E10710D02021E7
:101B5000F6E708AF089113E058F8040BC4F30251FC
:101B60004FF00A0B032900D180B2042900D1C0B282
:101B70000021EEE75946FEF703FB303107F8011D5F
:101B80000028F7D1ADEB070000F1200B600702D56C
:101B900024F4803401E04FF0010ADA4502DDAAEBBB
:101BA0000B0000E00020824600EB0B010898014486
:101BB000A9EB01000A90E00306D4DDE90D232146DC
:101BC0000A9800F04DF806444FF0000908E009A912
:101BD00011F80900DDE90D12904709F10109761CA1
:101BE00008998945F3DBE0030CD5DDE90D23214697
:101BF0000A9800F035F8064404E0DDE90D123020C3
:101C00009047761CBAF10001AAF1010AF5DC05E063
:101C1000DDE90D1217F8010B9047761CBBF10001AE
:101C2000ABF1010BF4DC0A982146DDE90D2300F04D
:101C300005F806446D1C97E6092801002DE9F041DE
:101C4000044600251E461746880404D405E039469C
:101C50002020B0476D1C641EF9D52846BDE8F081F0
:101C60002DE9F041044600251E469046C80301D5E3
:101C7000302700E02027880404D505E04146384697
:101C8000B0476D1C641EF9D52846BDE8F0810A688E
:101C9000531C0B601070704788B0FEF7F9FB0020F2
:101CA000FEF796FA0220FEF793FAFFF7BDFD1748FC
:101CB00015497F2201600021C0E901124FF49072A2
:101CC000C0E9032141618161FFF77AFA08B1FEF7AB
:101CD000DBFAFFF727FD0D4C0022343C01A90B482D
:101CE000FFF742FA002206A90848FFF71BFA9DF801
:101CF000060000909DF805309DF8042004A12046C0
:101D0000FFF700FEE7E70000002800407800002011
:101D1000253032643A253032643A2530326400008E
:101D2000030406080C10182030000000000000001A
:101D300000010203040607080900281717172806E0
:101D400028171717280008008000004000800100B5
:101D500000204000800000010008002040008000BA
:101D600000010008841D000800000020440000005D
:101D70002C190008C81D000844000020540400006D
:101D80003C1900080048E80100000000000C024077
:101D9000000C0240001C0240001C024000000240F7
:101DA000001C0240001C0240001C0240001C0240BB
:101DB000001C0240001C0240001C0240001C0240AB
:081DC000001C0240001C02405F
:0400000508000125C9
:00000001FF
