:020000040800F2
:100000003809002039010008F31C000851160008C7
:10001000F11C0008DD010008D725000800000000E1
:100020000000000000000000000000004D1E00085D
:100030000902000800000000151D000881210008C9
:100040005301000853010008530100085301000840
:100050005301000853010008530100085301000830
:100060005301000853010008530100085301000820
:100070005301000853010008530100085301000810
:100080005301000853010008530100085301000800
:1000900053010008530100085301000853010008F0
:1000A00053010008530100085301000853010008E0
:1000B00053010008530100085301000853010008D0
:1000C00053010008530100085301000853010008C0
:1000D00053010008530100085301000853010008B0
:1000E00053010008530100085301000853010008A0
:1000F00053010008000000005301000853010008EC
:100100000000000000000000530100085301000837
:1001100053010008530100085301000800000000CB
:1001200053010008DFF80CD000F046F80048004703
:10013000512A000838090020064880470648004731
:10014000FEE7FEE7FEE7FEE7FEE7FEE7FEE7FEE787
:10015000FEE7FEE73522000825010008D2B201E0E3
:1001600000F8012B491EFBD270470022F6E710B5BC
:1001700013460A4604461946FFF7F0FF204610BD15
:100180002DE9F0410E460546002400E0641C285D80
:1001900000F00BF80746305D00F007F8381A02D17E
:1001A000295D0029F2D1BDE8F081A0F141011929B2
:1001B00000D8203070470000064C074D06E0E0688C
:1001C00040F0010394E8070098471034AC42F6D39E
:1001D000FFF7ACFF142D0008342D0008FEE70000E7
:1001E00030B504460020651804E000BF14F8011B78
:1001F00002F0E1F9AC42F9D3002102F0DCF9BDE8EC
:100200003040002102F0D7B9704700007FB50025CB
:100210000446039500F094FA09480095001B000A73
:10022000CDE9014003A9684600F054F9044600F006
:1002300027FA14B1012004B070BD0020FBE70000D4
:100240000000040810B586B0002400F039FA6846B2
:1002500000F080F900F02AFA02986FF07F41B1EBCC
:10026000102F00D102240398401C01D144F0020455
:1002700006B0204610BD000010B500F061FA044938
:1002800042F606700860BDE8104000F0F9B90000C1
:10029000183C02402DE9F0411646884605460024E8
:1002A00000F04EFA0E4F12E058F8242029460220A2
:1002B00000F028FA10B10320BDE8F08158F82400BE
:1002C0002968814201D00220F6E7641C2D1DB4424A
:1002D00001D2BD42E8D900F0D3F90020ECE70000DC
:1002E000FCFF030810B586B0044600F029FA00F0C0
:1002F000E7F9684600F02EF94FF0FF3002900390C6
:100300000120009004B100200190684600F03CF903
:10031000002800D0042006B010BD000070B50446CF
:100320004CF250350E46284600F098F8002810D1BF
:1003300008494861A06810B1314600F00DF8E06846
:1003400010B1314600F024F82846BDE8704000F0B6
:1003500085B870BD1C0500200C4A0029916806D0A4
:100360000143D36889B243EA104080B205E0C0433C
:1003700083B21940D36803EA1040CB4341EA0341FA
:100380009160C14340EA0140D06070470000F81F0F
:100390000C4A0029116906D00143536989B243EA26
:1003A000104080B205E0C04383B21940536903EAAC
:1003B0001040CB4341EA03411161C14340EA01408F
:1003C000506170470000F81F074900224A61074941
:1003D0000B6843F400730B600B6843F008030B6079
:1003E00020F0FF00026070471C050020043C024022
:1003F000184A00211068C305174804D5416941F027
:1004000002014161911513689B0505D5436943F0CD
:100410000103436141F4007113681B0505D543696D
:1004200043F00403436141F4006113689B0405D564
:10043000436943F01003436141F400511368DB0446
:1004400005D5436943F02003436141F480511160B5
:1004500070470000183C02401C05002070B505469E
:1004600000F056FA0646144C09E0681C07D025B186
:1004700000F04EFA801BA84201D9032070BD20680D
:10048000C007F2D12068800701D5022020602068D3
:10049000C0050BD42068000508D42068800405D46A
:1004A0002068C00402D42068800503D5FFF7A0FFB0
:1004B000012070BD002070BD183C024031B500F035
:1004C00027FA044600F024FA0099001B8842F9D369
:1004D00038BD00002DE9F0471C4E05460F46307C24
:1004E000012808D0012030744CF250384046FFF704
:1004F000B5FF18B127E00220BDE8F0874FF0FF31CB
:100500003960C146DFF848806C6816E02046FFF786
:100510005BFF4846FFF7A2FFD8F8002022F0080250
:10052000C8F80020D8F8002022F40072C8F8002093
:1005300008B13C6007E004F58074D5E9011201EBD5
:100540000221A142E2D800213174D5E71C05002028
:10055000043C02400F2101600A4909688160094991
:1005600060310968C1600749091F0A6802740A6896
:10057000702303EA124282740968C1F30341417493
:1005800070470000203C02402DE9F0473A4C0646F7
:100590000120217C012910D00121217431784FF0F4
:1005A0000007C9070ED07068012809D00021304625
:1005B000FFF7B4FE00285CD104E00220BDE8F0871C
:1005C0000121F4E731782D4D89074CF250381BD5C5
:1005D000307C2968C9B2AA2901D1AA280BD0296880
:1005E00001F480710843C14340EA01494046FFF7E6
:1005F00035FF10B107E001203BE06761C5F80090CE
:100600004046FFF72BFFA0BB317849071CD5B17CD2
:1006100001F0100001F0200301F0400269684FF67C
:100620008F7C184301EA0C0110430843C14340EAA0
:1006300001494046FFF712FF28B96761C5F80490E9
:100640004046FFF70BFFA0B93178090711D5767C3A
:1006500068684FF6F07108400643F04346EA0046EA
:100660004046FFF7FBFE20B967616E604046FFF72A
:10067000F5FE2774A2E700001C0500200000F81F0B
:100680000348016841F0020101600020704700004A
:10069000043C02400448016841F4802101604CF2AE
:1006A0005030FFF7DBBE0000043C02400348016805
:1006B00041F004010160002070470000043C02404A
:1006C0000B480168490710D50068C00705D00848E5
:1006D00008490830016008490160054807491030A1
:1006E0000160074901600020704701207047000049
:1006F000043C0240EFCDAB8905040302C8D9EAFBF4
:10070000272625242DE9F0410C4C16460F46207C67
:10071000012809D0012020744CF250384046FFF7E0
:100720009DFE002518B107E00220BDE8F08165615B
:100730003E604046FFF792FE2574F6E71C05002058
:100740000B480168890710D50068C00705D0084824
:1007500008490830016008490160054807490C3024
:1007600001600749016000207047012070470000C8
:10077000043C0240EFCDAB8905040302BFAE9D8C63
:10078000161514132DE9F84FDFF864B100234FF06C
:10079000010C4FF0030A4FF00F090BF1040EA0E01B
:1007A0000CFA03F6324072D04C68022C01D0122CA5
:1007B0000ED1DC0800EB8408D8F820405D07EF0E6E
:1007C00009FA07F5AC430D69BD402543C8F8205030
:1007D00007685D0091F804800AFA05F408F0030840
:1007E000A74308FA05F848EA0708C0F800804F68F0
:1007F000012F05D0022F03D0112F01D0122F11D1BC
:100800008768D1F80C80A74308FA05F848EA07087A
:10081000C0F808804768B7430E79C6F300169E40BB
:100820003E434660C668A6438C68AC403443C4600F
:100830004C68E40054D52F4C256845F0010525602F
:10084000246823F0030504F0010400942A4C254495
:10085000AF689C07240F09FA04F6B743274EB0424D
:1008600001D1002615E0264EB04201D1012610E04C
:10087000244EB04201D102260BE0234EB04201D1FA
:10088000032606E0214EB04202D1042601E027E013
:100890000526A6403E43AE60DBF800405D464E684C
:1008A0009443F60300D514432C60DEF800407546EF
:1008B0004E689443B60300D514432C600C4D0835A4
:1008C0002C684E689443F60200D514432C60084D02
:1008D0000C352C684E689443B60200D514432C6046
:1008E0005B1C0A6832FA03F47FF45AAFBDE8F88F54
:1008F0000004014020380240000001400000024096
:100900000004024000080240000C024000100240B7
:10091000014800687047000010000020024801688C
:10092000491C01607047000010000020094810B504
:10093000016841F004010160016841F002010160B9
:10094000032000F03BF80F2000F006F800F015F847
:10095000002010BD003C024010B5044600F032F902
:100960004FF47A71B0FBF1F000F05DFD00222146FA
:10097000501E00F003F8002010BD7047F0B40E4B7D
:100980001B680C46C3F30223C3F10705042D00D9ED
:100990000425191D072901D2002300E0DB1E0126D2
:1009A00006FA05F1491E214099409E40761E1640E8
:1009B0003143F0BC01F09EB90CED00E0064900F0B7
:1009C000070208684FF6FF03184040EA0220034A76
:1009D00010430860704700000CED00E00000FA05CD
:1009E0000248006800F4C0507047000000700040EA
:1009F0002DE9F047DFF8BC8105460E46D8F8000027
:100A000000F00100B04214D2012E05D1D8F8001038
:100A100041F00401C8F80010D8F8001021F00101DD
:100A20003143C8F80010D8F8000000F00100B042CF
:100A300071D12878604C800705D52068A96820F01E
:100A4000F000084320602878C00771D05A4A5A4BFA
:100A500069680120083A2C33022910D003292ED0CE
:100A600001292FD05FEA402797FAA7FCBCFA8CFC3B
:100A70004CF0200C5FEA5C1C04D0126803E04FF4D9
:100A80000037F1E71A6897FAA7F3B3FA83F303F094
:100A90001F039840024262D0206820F00300084300
:100AA0002060FFF735FF6968074641F28830022968
:100AB00010D003291CD00129814626D034E04FF004
:100AC0000077D1E70227CFE7FFF722FFC11B494597
:100AD00001D926E081462068C0F381000228F3D1C5
:100AE00026E000BFFFF714FFC11B494501D918E0FC
:100AF00081462068C0F381000328F3D118E000BFCD
:100B0000FFF706FFC11B49450BD82068C0F38100E1
:100B10000128F5D10CE022E0FFF7FAFEC11B4945A0
:100B200002D90320BDE8F087206810F00C0FF3D144
:100B3000D8F80010404601F00101B14211D9012E50
:100B400003D1016841F004010160016821F0010155
:100B500031430160006800F00100B04201D0012083
:100B6000E0E72878400705D52068E96820F4E060D0
:100B7000084320602878000706D52068296920F4FA
:100B8000605040EAC100206000F052F82168F02275
:100B900092FAA2F201F0F001B2FA82F2D140074AD1
:100BA000515CC840064908600F20FFF7D5FE0020C1
:100BB000B8E70000003C024008380240292B00083A
:100BC0000C00002001480068704700000C00002065
:100BD00008480949006809684FF4E06292FAA2F2F5
:100BE00001F4E061B2FA82F2D140044A515CC8409B
:100BF000704700000C00002008380240392B000824
:100C000008480949006809684FF4605292FAA2F254
:100C100001F46051B2FA82F2D140044A515CC840FA
:100C2000704700000C00002008380240392B0008F3
:100C30001E4A116801F00C00042813D0082813D0B4
:100C40000C2813D0101F006800F460414FF460407E
:100C500090FAA0F0B0FA80F0C1404FF40040491C77
:100C60008840704712487047124870474FF470131D
:100C700093FAA3F301F47010B3FA83F3D8400E4B48
:100C800001F440011268185C4FF4400393FAA3F397
:100C9000B3FA83F3D940491CD20301D5054A00E0D9
:100CA000034A5043B0FBF1F070470000083802409F
:100CB0000024F40000127A00202B00082DE9F84FE0
:100CC00007460078FB4EFC4DC0074FF0010428D0CA
:100CD000F848083001684FF40038C1F38101022957
:100CE00007D00168C1F3810103291BD10068C0034B
:100CF00018D598FAA8F0B0FA80F040F0200040092A
:100D000001D0306800E0286898FAA8F1B1FA81F1C2
:100D100001F01F0104FA01F108425CD07868002854
:100D20007BD058E0786801280AD008B1052811D096
:100D3000306820F480303060306820F4802002E099
:100D4000306840F480303060786828B3FFF7E0FD09
:100D500081460BE0306840F480203060F0E700BF4F
:100D6000FFF7D6FDA0EB0900642872D898FAA8F026
:100D7000B0FA80F040F02000400901D0306800E077
:100D8000286898FAA8F1B1FA81F101F01F0104FA7C
:100D900001F10842E4D01EE0FFF7BAFD814605E00C
:100DA000FFF7B6FDA0EB09006428DED898FAA8F09A
:100DB000B0FA80F040F02000400901D0306800E037
:100DC000286898FAA8F1B1FA81F101F01F0104FA3C
:100DD00001F10842E4D13878DFF8E08280074FF073
:100DE000000B4FF002095FD5B24808300168C1F32B
:100DF0008101012907D00168C1F3810103291CD1B8
:100E00000068C00319D499FAA9F0B0FA80F040F054
:100E10002000400902D0306801E086E0286899FA95
:100E2000A9F1B1FA81F101F01F0104FA01F10842C0
:100E30002BD0F868012878D127E0F868A8B394FA95
:100E4000A4F0B0FA80F048F82040FFF761FD824638
:100E500006E066E1FFF75CFDA0EB0A00022884D8FB
:100E600099FAA9F1B1FA81F141F02001490901D0C3
:100E7000316800E0296899FAA9F0B0FA80F000F032
:100E80001F0004FA00F00142E4D08A48001D016806
:100E90004FF4F85393FAA3F33A69B3FA83F321F4C6
:100EA000F8519A401143016025E0FFE794FAA4F15C
:100EB000B1FA81F148F821B0FFF72AFD824605E03A
:100EC000FFF726FDA0EB0A000228C8D899FAA9F07E
:100ED000B0FA80F040F02000400901D0306800E016
:100EE000286899FAA9F1B1FA81F101F01F0104FA19
:100EF00001F10842E4D138784FF4007AC0067CD57D
:100F00006C480830006810F00C0F0FD0B9694FF42E
:100F10008070002972D090FAA0F0B0FA80F048F802
:100F20002040FFF7F5FC00907EE087E09AFAAAF0F7
:100F3000B0FA80F040F02000400901D0306800E0B5
:100F400028689AFAAAF1B1FA81F101F01F0104FAB6
:100F500001F1084202D0B86900286FD05548396ABB
:100F6000001D006800F4604081421AD9084600F074
:100F7000D3FE002862D14F48001D01683A6A21F46F
:100F800060411143016001684FF07F4393FAA3F37E
:100F9000FA69B3FA83F321F07F419A40114301606B
:100FA00018E04448001D026822F460420A430260CF
:100FB00001684FF07F4393FAA3F3FA69B3FA83F31E
:100FC00021F07F419A4011430160386A00F0A4FE8D
:100FD0000028CFD14FF4604191FAA1F1386AB1FAFB
:100FE00081F1C8404FF40041401C81403148083035
:100FF0000068F02200F0F00001E070E040E092FABA
:10100000A2F2B2FA82F2D0402D4A105CC1402D48C3
:1010100001600F20FFF7A0FC61E000BFFFF778FC44
:101020000099401A02287CD89AFAAAF0B0FA80F007
:1010300040F02000400902D0306801E0BCE128689F
:101040009AFAAAF1B1FA81F101F01F0104FA01F153
:101050000842E3D01748001D01683A6A21F4604154
:101060001143016001684FF07F4393FAA3F3FA69DB
:10107000B3FA83F321F07F419A40114301602EE0DF
:1010800090FAA0F0B0FA80F048F820B0FFF740FCEA
:10109000009005E0FFF73CFC0099401A0228C2D8F6
:1010A0009AFAAAF0B0FA80F040F0200040090BD084
:1010B00030680AE0003802403438024000004742FD
:1010C000292B00080C00002028689AFAAAF1B1FA2E
:1010D00081F101F01F0104FA01F10842DAD13878F8
:1010E000000753D5786948B394FAA4F0B0FA80F0B9
:1010F00008EB8000C0F88046FFF70AFC009005E08E
:10110000FFF706FC0099401A02288CD899FAA9F03A
:10111000B0FA80F040F04000B4EB501F02D13068CC
:1011200001E08EE0286899FAA9F1B1FA81F101F0A5
:101130001F0104FA01F21042E2D027E094FAA4F170
:10114000B1FA81F108EB8101C1F880B6FFF7E0FB4D
:10115000009005E0FFF7DCFB0099401A022870D8E8
:1011600099FAA9F0B0FA80F040F04000B4EB501FBB
:1011700001D1306800E0286899FAA9F1B1FA81F14B
:1011800001F01F0104FA01F21042E3D13878400760
:101190007BD59B484FF000090068C0000AD49848EE
:1011A000016841F08051016000684FF0010900F0D2
:1011B0008050009093480168C90511D4016841F43A
:1011C00080710160FFF7A4FB009005E0FFF7A0FB32
:1011D0000099401A642834D88A480068C005F5D5BB
:1011E000B86801280AD008B1052811D0286820F471
:1011F00080702860286820F4806002E0286840F44D
:1012000080702860B86848B3FFF782FB00900DE05B
:10121000286840F480602860F0E700BFFFF778FBA3
:101220000099411A41F2883081420AD89AFAAAF00C
:10123000B0FA80F040F04000B4EB501F02D13068AB
:1012400001E095E028689AFAAAF1B1FA81F101F07B
:101250001F0104FA01F21042E0D022E0FFF758FB30
:10126000009007E0FFF754FB0099411A41F28830E3
:1012700081427DD89AFAAAF0B0FA80F040F040009E
:10128000B4EB501F02D1306801E012E028689AFAEE
:10129000AAF1B1FA81F101F01F0104FA01F2104242
:1012A000E0D1B9F1000F04D05548016821F0805118
:1012B0000160786AE8B3DFF84891A9F11C09D9F810
:1012C0000010C1F38101032976D002284FF080710C
:1012D0004FF0007A58460BD091FAA1F1B1FA81F1A2
:1012E00048F82100FFF714FBB046074656466DE06C
:1012F0004FF0807191FAA1F1B1FA81F18A0042496F
:101300005050FFF705FBB3468046564606E000BF47
:10131000FFF7FEFAA0EB0800022854D896FAA6F0D0
:10132000B0FA80F040F02000400903D0DBF8000064
:1013300001E061E0286896FAA6F1B1FA81F101F0C6
:101340001F0104FA01F10842E2D1D7E90A103A6B11
:10135000D9F80030014323F47D031A431143C9F83F
:1013600000104FF0807090FAA0F0B0FA80F000E02A
:1013700029E0810024480C50FFF7CAFA074604E030
:10138000FFF7C6FAC01B02281DD896FAA6F0B0FADD
:1013900080F040F02000400902D0DBF8000000E0BF
:1013A000286896FAA6F1B1FA81F101F01F0104FA5A
:1013B00001F10842E4D01FE020E000BFFFF7A8FAE7
:1013C000C01B022802D90320BDE8F88F96FAA6F0C8
:1013D000B0FA80F040F02000400902D0D8F80000B8
:1013E00000E0286896FAA6F1B1FA81F101F01F0138
:1013F00004FA01F10842E1D10020E5E70120E3E72A
:101400002438024000700040000047424FF0E021C5
:101410000428086903D020F004000861704740F0F8
:101420000400FAE7704710B5401EB0F1807F01D389
:10143000012010BD4FF0E02460610F21601700F023
:1014400059FC0020A06107202061002010BD10B5CC
:10145000FFF7E8FF10BD70B5040004D094F8390020
:10146000002510B106E0012070BD84F838502046F8
:1014700000F020F8022084F839002068C16821F4C7
:101480000051C160204600F0FDFE2068016921F492
:10149000904101612068416921F02A014161206881
:1014A000C16841F40051C160E563012084F839004E
:1014B000002070BD704700002DE9F047044690F809
:1014C000390099460D46012801D0122858D12DB374
:1014D00022B394F83800012852D0012684F83860ED
:1014E0000027E76394F8390012281AD05FF0220031
:1014F00084F83900A285E2854FF48058E08D4B4690
:10150000401EE085A0684FF0000240454FF02001EA
:10151000204616D101F006F8B0B904E00120BDE87C
:10152000F0873220E4E7206900282068406803D073
:10153000C1B225F8011B12E0C0F3080125F8021B17
:101540000DE000F0EFFF08B10320E8E72069002874
:101550002068406801D000F07F0005F8010BE08DA5
:101560000028CBD194F83900322805D084F83960AE
:1015700084F838700020D2E7122084F83900F7E7A9
:101580000220CCE72DE9F047044690F8390099464F
:101590000D46012801D0222858D12DB322B394F84A
:1015A0003800012852D0012684F838600027E7630C
:1015B00094F8390022281AD05FF0120084F839001C
:1015C000A284E2844FF48058E08C4B46401EE084B5
:1015D000A0684FF0000240454FF08001204613D133
:1015E00000F0A0FF08BB04E00120BDE8F087322036
:1015F000E4E728882168C0F308004860206908B142
:101600006D1C08E0AD1C06E000F08CFF68B9216895
:1016100015F8010B4860E08C0028D5D14B4600221C
:101620004021204600F07EFF08B10320DDE794F85A
:101630003900322806D084F8396000BF84F8387049
:101640000020D2E7222084F83900F7E70220CCE717
:10165000FEE700001C4800B5016887B041F48041F6
:101660000160006800F4804005901748001F016881
:1016700041F0010101600068694600F00100059039
:101680004FF4C060009002200190012002900320DE
:101690000390072004900D48FFF774F80D480C499B
:1016A0000C2201604FF4E131416000218160C16092
:1016B000C0E904128161C161FFF7CDFE002800D0AE
:1016C000FEE707B000BD00002038024000000240E5
:1016D0000038014054000020F0B500220D4B1546A3
:1016E00014460A27B1FBF3F630368654B1FBF3F605
:1016F00003FB1611B3FBF7F3521C861816F8016CA6
:10170000302E00D125B16D1C641C0A2CEAD3F0BD2B
:101710000022F9E700CA9A3B08B500208DF80000C6
:101720004E4800F0C3FC4E4800F0C0FC4D4800F0AD
:10173000BDFC4D4800F0BAFC4A4800F0B7FC4B48ED
:1017400000F0B4FC454800F0B1FC49A000F0AEFC4C
:10175000FEF778FD484CDFF82481494E494D4FF0A3
:1017600000594FF0FF37206047A000F09FFC56A0C3
:1017700000F09CFC64A000F099FC73A000F096FCC3
:10178000206808B180A000E08FA000F08FFC2868DE
:1017900000EA0800484501D19BA000E0AAA000F0A3
:1017A00085FCB9A000F082FC306840683B4601220D
:1017B00069463348FFF780FE9DF8000034281ED0AC
:1017C00006DC31280AD032280BD0332804D10BE0B4
:1017D00045282FD065282DD0BBA017E000F038FB9E
:1017E000C2E700F0EBFBBFE7C7A000F05FFC686852
:1017F000A0606060296881F308888047B4E72068AA
:1018000048B10120FEF76EFD18B1C8A000F04EFCF3
:10181000AAE7D2A006E00020FEF764FD08B1D7A039
:10182000F4E7E1A000F042FCE7A000F03FFCFEF787
:1018300031FF99E7ECA000F039FC4FF47A730922EC
:10184000F6490F48FFF738FE20B9F5A1F348FEF737
:1018500097FC08B1F5A0D9E7F6E10000C82C000814
:10186000E42B0008982B00087C2C0008302C000882
:101870000D0A0D0A00000000000000200000FE2FED
:1018800054000020008000080D0A3D3D3D3D3D3DD7
:101890003D3D3D3D3D3D3D3D3D3D3D3D3D204D6161
:1018A000696E204D656E75203D3D3D3D3D3D3D3DA4
:1018B0003D3D3D3D3D3D3D3D3D3D3D3D3D3D3D3D58
:1018C0003D3D3D3D0D0A0A002020446F776E6C6F50
:1018D000616420696D61676520746F20746865209C
:1018E000696E7465726E616C20466C617368202D40
:1018F0002D2D2D2D2D2D2D2D2D2D2D2D2D2D2D2D18
:1019000020310D0A0A000000202055706C6F6164C0
:1019100020696D6167652066726F6D20746865204F
:10192000696E7465726E616C20466C617368202DFF
:101930002D2D2D2D2D2D2D2D2D2D2D2D2D2D2D2DD7
:1019400020320D0A0A000000202045786563757476
:101950006520746865206C6F6164656420617070D7
:101960006C69636174696F6E202D2D2D2D2D2D2DC9
:101970002D2D2D2D2D2D2D2D2D2D2D2D2D2D2D2D97
:1019800020330D0A0A000000202044697361626C54
:1019900065207468652077726974652070726F7451
:1019A000656374696F6E202D2D2D2D2D2D2D2D2D00
:1019B0002D2D2D2D2D2D2D2D2D2D2D2D2D2D2D2D57
:1019C00020340D0A0A0000002020456E61626C651B
:1019D000207468652077726974652070726F746511
:1019E0006374696F6E202D2D2D2D2D2D2D2D2D2DF8
:1019F0002D2D2D2D2D2D2D2D2D2D2D2D2D2D2D2D17
:101A000020340D0A0A000000202045726173652011
:101A100074686520757365722041505020666C6152
:101A20007368202D2D2D2D2D2D2D2D2D2D2D2D2D72
:101A30002D2D2D2D2D2D2D2D2D2D2D2D2D2D2D2DD6
:101A400020650D0A0A00000020204E6F2075736586
:101A5000722041505020657869737473202D2D2DAC
:101A60002D2D2D2D2D2D2D2D2D2D2D2D2D2D2D2DA6
:101A70002D2D2D2D2D2D2D2D2D2D2D2D2D2D2D2D96
:101A800020580D0A0A0000003D3D3D3D3D3D3D3DD5
:101A90003D3D3D3D3D3D3D3D3D3D3D3D3D3D3D3D76
:101AA0003D3D3D3D3D3D3D3D3D3D3D3D3D3D3D3D66
:101AB0003D3D3D3D3D3D3D3D3D3D3D3D3D3D3D3D56
:101AC0003D3D0D0A0A000000496E76616C69642094
:101AD0004E756D6265722021203D3D3E2054686543
:101AE000206E756D6265722073686F756C6420621C
:101AF000652065697468657220312C20322C203392
:101B0000206F7220340D0000537461727420707263
:101B10006F6772616D20657865637574696F6E2E8D
:101B20002E2E2E2E2E0D0A0A000000004572726F16
:101B3000723A20466C61736820777269746520750B
:101B40006E2D70726F74656374696F6E2066616963
:101B50006C65642E2E2E0D0A000000005772697409
:101B6000652050726F74656374696F6E2064697369
:101B700061626C65642E2E2E0D0A00004572726F34
:101B8000723A20466C6173682077726974652070C0
:101B9000726F74656374696F6E206661696C6564E9
:101BA0002E2E2E0D0A0000005772697465205072A7
:101BB0006F74656374696F6E20656E61626C6564D5
:101BC0002E2E2E0D0A00000053797374656D207758
:101BD000696C6C206E6F7720726573746172742EFD
:101BE0002E2E0D0A00000000506C6561736520699F
:101BF0006E7075742070617373776420746F2065E4
:101C00007261736520757365722041505020666C57
:101C10006173682E2E2E0D0A000000009400002033
:101C20002A233133353739232A000000496E707575
:101C300074207061737377642074696D656F757457
:101C40002E2E2E0D0A0000000EA000F02FFA306894
:101C500040683B46012269461248FFF72DFC9DF87B
:101C60000000592805D06E2801D0792801D00EA097
:101C7000CCE52846FEF7CAFA08B112A0C6E517A0BF
:101C8000C4E500004572617365207573657220417B
:101C9000505020666C61736828592F4E293F0D0AF9
:101CA0000000000054000020466C617368206572DB
:101CB0006173652063616E63656C65642E2E2E0D05
:101CC0000A000000466C61736820657261736520CC
:101CD0006661696C65642E2E2E0D0A00466C617378
:101CE00068206572617365206F6B2E2E2E0D0A00C1
:101CF000FEE770470907090E002806DA00F00F001A
:101D000000F1E02080F8141D704700F1E02080F819
:101D10000014704770470000F8B507461A480026BF
:101D200000681A4D10F0F00F20D1174C1C342068B9
:101D3000C00002D5FEF754FE0DE0206840F0805050
:101D40002060206800F080500090FEF749FE216876
:101D500021F080512160B0F5C05F07D1B7F5404F49
:101D600004D12868012640F004002860286820F08B
:101D7000010030432860286800F00100B04201D023
:101D80000120F8BD0020F8BD08380240003C0240A8
:101D90002DE9F84300240F460646904613460C6092
:101DA000012269462848FFF787FB050020D19DF8EE
:101DB0000000182820D006DC01280BD002280BD008
:101DC000042804D104E0412827D0612825D001252A
:101DD00030700DE0802401E04FF480643070221DEB
:101DE0004346B11C1848FFF767FB050017D00024D5
:101DF00028463C60BDE8F883434601226946124804
:101E0000FFF75AFB18B99DF80000182803D00125E8
:101E10009DF80000DCE70224DAE70225D8E7F17834
:101E2000B07881F0FF0188420AD1301901794079F8
:101E300000EB01282146301DFEF7D2F94045D7D0EE
:101E400000240125D4E70000540000207047000062
:101E50001FB50020009001900290039015A000F0A3
:101E600025F903A800F0B8FB38B105281AD00428DA
:101E70001CD002281CD01EA015E0254800F016F941
:101E8000244800F013F968460399FFF725FC22A0C7
:101E900000F00CF9684600F009F922A000F006F9FC
:101EA00023A000E028A000F001F91FBD36A0FAE74A
:101EB0003CA0F8E757616974696E6720666F72200D
:101EC0007468652066696C6520746F206265207394
:101ED000656E74202E2E2E20287072657373202755
:101EE000612720746F2061626F7274290A0D0000EF
:101EF0000A0D4661696C656420746F2072656365C4
:101F0000697665207468652066696C65210A0D0034
:101F1000442B0008D40000200A0D2053697A653A4A
:101F2000200000002042797465730D0A0000000053
:101F30002D2D2D2D2D2D2D2D2D2D2D2D2D2D2D2DD1
:101F40002D2D2D0A000000000A0A0D546865206935
:101F50006D6167652073697A6520697320686967B8
:101F6000686572207468616E2074686520616C6CAD
:101F70006F776564207370616365206D656D6F7246
:101F800079210A0D000000000A0A0D566572696683
:101F900069636174696F6E206661696C6564210AAA
:101FA0000D0000000D0A0A41626F727465642062C0
:101FB0007920757365722E0A0D00000008B50020A7
:101FC0008DF800000EA000F071F84FF0FF330122F1
:101FD00069461248FFF770FA9DF8000043280DD1BA
:101FE0004FF460320EA1144800F0BEFB8DF80000E3
:101FF00008B112A000E01CA000F058F808BD0000D5
:102000000A0A0D53656C65637420526563656976D1
:10201000652046696C650A0D000000005400002030
:1020200055706C6F61646564466C617368496D617D
:1020300067652E62696E0000008000080A0D457217
:10204000726F72204F63637572726564207768697E
:102050006C65205472616E736D697474696E67206B
:1020600046696C650A0D00000A0D46696C652075AD
:10207000706C6F6164656420737563636573736608
:10208000756C6C79200A0D0001B5074890F839107D
:10209000032902D1012180F8391064230122694605
:1020A0000148FFF76FFA08BD54000020002201E04C
:1020B000521C92B2815C0029FAD101466423014886
:1020C000FFF760BA54000020F0B5054600242A78D6
:1020D00020462346302A2ED16A78782A01D0582A01
:1020E00029D102241CE000BFA2F14106052E07D928
:1020F000A2F16107052F03D91136092E04D913E087
:10210000A2F13007092F01D8303A04E0052E01D89A
:10211000373A00E0573A641C02EB03130B2C04D24D
:102120002A5D002AE0D103E000202A5D002A01D1C7
:1021300001200B60F0BD2A5D62B16B2A01D04B2AF1
:1021400002D10CB19B0205E06D2A01D04D2A04D1C9
:102150001CB11B0501200B600AE0A2F13006092E1C
:102160000CD803EB83036FF02F0606EB43031344F5
:10217000641C0B2CDED20128DDD1F0BD0020F0BDA7
:1021800010B5FEF7CBFBBDE81040FFF760B90000CB
:1021900000B593B014210DA8FDF7E7FF3421684680
:1021A000FDF7E3FF01200090019002200990C00399
:1021B0000A9000010B90C0000C906846FEF77EFD6F
:1021C00000B1FEE71948016841F0805101600068E4
:1021D00000F0805012901648016821F4C05141F47B
:1021E000006101604168C943C906FBD50F200D900D
:1021F00003200E9000200F901090119001210DA847
:10220000FEF7F6FB00B1FEE7FEF7DCFC4FF47A7157
:10221000B0FBF1F0FFF707F90420FFF7F7F8002211
:102220001146501EFEF7AAFB13B000BD2438024031
:10223000007000400F48016841F4807101600D4951
:1022400008310A680C4B1A400A6002680B4B1A40AE
:102250000260026822F480220260086820F47D0097
:1022600008600020091D086005494FF00060086003
:1022700070470000003802400CC0FF88FEFFFEEEF1
:1022800008ED00E02DE9F041044600680169E268CC
:1022900021F44051114301612169A068E2690843BA
:1022A0006169114308432168CA6849F20C639A4383
:1022B0000243CA6020684169A26921F44071114358
:1022C0004161E1696425B1F5004F954821684FF0FF
:1022D00032083DD081427AD1FEF792FC00EBC0017A
:1022E00001EB001061688900B0FBF1F6FEF788FC95
:1022F00000EBC00101EB001061688900B0FBF1F058
:10230000B0FBF5F06FF01801484306EB800108EBD5
:102310000110B0FBF5F000F0F006FEF771FC00EBE9
:10232000C00101EB001061688900B0FBF1F0B0FB67
:10233000F5F006EB0016FEF763FC00EBC00101EBC5
:10234000001061688900B0FBF1F7FEF759FCD0E09E
:1023500081423DD1FEF754FC00EBC00101EB0010BF
:1023600061684900B0FBF1F0B0FBF5F00601FEF743
:1023700047FC00EBC00101EB001061684900B0FBB5
:10238000F1F7FEF73DFC00EBC00101EB00106168C6
:102390004900B0FBF1F0B0FBF5F06FF018014843D5
:1023A00007EB800108EBC100B0FBF5F000F0F8008E
:1023B00006EB4006FEF724FC00EBC00101EB001029
:1023C00061684900B0FBF1F7FEF71AFC3CE055E00C
:1023D000FEF7FEFB00EBC00101EB00106168490055
:1023E000B0FBF1F0B0FBF5F00601FEF7F1FB00EBFE
:1023F000C00101EB001061684900B0FBF1F7FEF786
:10240000E7FB00EBC00101EB001061684900B0FB85
:10241000F1F0B0FBF5F06FF01801484307EB8001D5
:1024200008EBC100B0FBF5F000F0F80006EB400649
:10243000FEF7CEFB00EBC00101EB00106168490024
:10244000B0FBF1F7FEF7C4FB00EBC00101EB00109D
:1024500061684900B0FBF1F0B0FBF5F06FF01801D6
:10246000484307EB800108EBC100B0FBF5F000F03A
:102470000700216830448860BDE8F081FEF7A8FBC2
:1024800000EBC00101EB001061688900B0FBF1F6C0
:10249000FEF79EFB00EBC00101EB001061688900B4
:1024A000B0FBF1F0B0FBF5F06FF01801484306EB1C
:1024B000800108EB0110B0FBF5F000F0F006FEF72C
:1024C00087FB00EBC00101EB001061688900B0FBE5
:1024D000F1F0B0FBF5F006EB0016FEF779FB00EB30
:1024E000C00101EB001061688900B0FBF1F7FEF755
:1024F0006FFB00EBC00101EB001061688900B0FBCD
:10250000F1F0B0FBF5F06FF01801484307EB8001E4
:1025100008EB0110B0FBF5F000F00F00A9E7000098
:10252000003801402DE9F0471D4690460E4604460E
:10253000FEF7EEF907465FEA08004FF000094FF09A
:10254000010808D030E0681C05D095B1FEF7E0F92D
:10255000C01BA8420DD82068006836EA0000F2D1FE
:1025600027E0681C20D025B1FEF7D2F9C01BA84295
:102570001AD92068C16821F08001C1602068C16853
:1025800021F02001C1602068C16821F48071C16020
:102590002068416921F00101416184F8398084F8A3
:1025A00038900320BDE8F0872068006836EA000014
:1025B000D7D00020F6E741F4807141F221024000BB
:1025C0004900CB0500D5401CC30300D55040CB03C8
:1025D000F5D580B27047FEE72DE9F14F0027DFF80F
:1025E00078A188B03E46B9463C46D346ABE000BF32
:1025F0004FF000084546A2E041F2883204A957484E
:10260000FFF7C6FB78B102286CD0B9F1000F00D0FB
:10261000761C052E67D91820FFF736FD1820FFF726
:1026200033FD01248BE00498002668B1022805D010
:102630004A498B7843450CD015207EE05FF00600B8
:10264000FFF722FD02247AE00620FFF71DFD012599
:1026500075E0B8F1000F14D082085846091DFDF747
:1026600019FEE8B31820FFF70FFD1820FFF70CFD47
:102670005FF0040408F1010000F0FF084FF00109C9
:102680005DE0087968B30020354B091D02E01A545B
:10269000401C491C0A780AB14028F8D34FF0000CBE
:1026A00003F800C060466B4601E01A54401C11F864
:1026B000012F202A01D01028F7D303F800C006A963
:1026C0001846FFF701FD08986FF460310068C842B2
:1026D00016D918204FF480148DF81400234603E017
:1026E0001FE018E023E027E0012205A91D48FEF7BE
:1026F00049FF2346012205A91A48FEF743FF052496
:102700005046FDF783FD0898069901600620FFF703
:10271000BBFC432008E00620FFF7B6FC01252F464E
:102720000DE0049906208B44FFF7AEFCA2E71820C9
:10273000FFF7AAFC182083E74320FFF7A5FC55EA22
:1027400004003FF459AF57EA04003FF451AF09B019
:102750002046BDE8F08F0000008000081401002032
:10276000D4000020540000202DE9F74F86B04FF030
:10277000000A0120AC4E019001220898727086F880
:1027800002A0FF23D04655465746F370544604E056
:1027900006EB040C641C8CF804300B5D0BB1402C70
:1027A000F6D3321900211171014602A8FEF794FFF9
:1027B00002A8641D02E03155641C7F1CC15D002924
:1027C000F9D14FF48019DFF860B202E000203055F3
:1027D000641C842CFAD31FE05C464E464B46832291
:1027E000611C9248FEF7CEFE8021201DFDF7F8FC0B
:1027F0000446000AFFF748FCE0B2FFF745FC334609
:10280000012269468948FEF757FE60B10AF1010AC4
:10281000BAF1050F00D3012558EA0500DCD006986F
:102820000290089C7CE09DF80000062815D018282E
:10283000EED13346012269467C48FEF73DFE002872
:10284000E6D19DF800001828E2D10220FDF736FEFF
:102850007648006840680225DAE74FF00108D7E7BC
:10286000DDE90103704AC6B24FF480672046BC42DE
:1028700001D3394600E08021884200D30846B1F5F3
:10288000806F07D0012757709670F643D6700426E4
:10289000071D06E00227F6E713F801CB02F806C091
:1028A000761CBE42F8D3884207D81A23001D091DA2
:1028B00001E01354401C8842FBD34FF0000A8DF80E
:1028C00000A0574629E000BF4FF48066B44200D212
:1028D0008026F21C4B46D8460BF101015348FEF707
:1028E00051FE314608F10400FDF77AFC8046000AEB
:1028F000FFF7CAFB08F0FF00FFF7C6FB4B460122BB
:1029000069464A48FEF7D8FD18B99DF80000062828
:1029100011D07F1C052F00D301255AEA0500D3D022
:102920000CB1002D9CD0002426468DF8004027468F
:10293000DFF8F8801FE002984FF0010A3044B442FB
:10294000029008D90198A41BE02802D0401C0190F5
:10295000E0E70525DEE70024DCE70420FFF794FB31
:102960004B46012269463148FEF7A6FD40B17F1C67
:10297000052F00D3012554EA0500EED0E5B14EE065
:102980009DF80000062815D01828F1D14B460122E9
:1029900069462648FEF790FD0028E9D19DF8000021
:1029A0001828E5D10220FDF789FDD8F8000040681D
:1029B0000225DDE70124DBE701208BF801008BF81D
:1029C0000260FF208BF803005C4604202654401C64
:1029D000C0B28428FAD34E464B468322611C13486A
:1029E000FEF7D0FD8021201DFDF7FAFB0446000A0A
:1029F000FFF74AFBE0B2FFF747FB33460122694687
:102A00000A48FEF759FD50B99DF80000182806D174
:102A10000220FDF753FDD8F800004068022509B0F8
:102A20002846BDE8F08F000014010020540000206B
:102A300002E008C8121F08C1002AFAD17047704787
:102A4000002001E001C1121F002AFBD170470000E5
:102A5000FDF76CFFFFF79CFBFEF7FCFD1CA0FFF7EA
:102A600025FB1D4C20681D4DA6032840B04221D1F6
:102A70001B494FF47A73092201F14000FEF71CFD57
:102A800020B918A11648FDF77BFB98B118A0FFF7F5
:102A90000DFB20682840B04214D117A0FFF706FBB9
:102AA00060681749086017490860216881F3088841
:102AB000804709E014A0FFF7F9FAFDF7DDFBFEF708
:102AC0002BFE01E012A000E013A0FFF7EFFAFBE7F6
:102AD000313131310D0A0000008000080000FE2F66
:102AE000140000202A233132333435232A00000019
:102AF0003333330D0A0000003434340D0A00000073
:102B000008000020040000203232320D0A000000CC
:102B10003535350D0A0000003636360D0A00000046
:102B2000030406080C10182030000000000000000C
:102B30000001020304060708090000000001020367
:102B4000040000000A0A0D2050726F6772616D6DFB
:102B5000696E6720436F6D706C6574656420537592
:102B6000636365737366756C6C79210A0D2D2D2D69
:102B70002D2D2D2D2D2D2D2D2D2D2D2D2D2D2D2D85
:102B80002D2D2D2D2D2D2D2D2D2D2D2D2D0D0A20C5
:102B90004E616D653A2000000D0A3D202020202066
:102BA0002020202020202020202020202020202025
:102BB0002020202020202020202020202020202015
:102BC0002020202020202020202020202020202005
:102BD0002020202020202020202020202020203DD8
:102BE000000000000D0A3D20202020202020202071
:102BF000202020202028432920434F505952494764
:102C0000485420323031352053544D6963726F651A
:102C10006C656374726F6E696373202020202020BE
:102C200020202020202020202020203D0000000007
:102C30000D0A3D20202020202020202020202020A0
:102C40002020202020202020202020202020202084
:102C50002020202020204279204D434420417070C4
:102C60006C69636174696F6E205465616D2020200A
:102C7000202020202020203D000000000D0A3D20C3
:102C80002053544D33324631787820496E2D4170AF
:102C9000706C69636174696F6E2050726F677261E6
:102CA0006D6D696E67204170706C69636174696FE6
:102CB0006E20202856657273696F6E20312E302E7B
:102CC0003029203D000000000D0A3D3D3D3D3D3DC9
:102CD0003D3D3D3D3D3D3D3D3D3D3D3D3D3D3D3D24
:102CE0003D3D3D3D3D3D3D3D3D3D3D3D3D3D3D3D14
:102CF0003D3D3D3D3D3D3D3D3D3D3D3D3D3D3D3D04
:102D00003D3D3D3D3D3D3D3D3D3D3D3D3D3D3D3DF3
:102D100000000000342D0008000000201400000016
:102D2000302A0008482D0008140000202409000063
:102D3000402A000800000000000000000000000021
:082D40000048E801000000005A
:0400000508000125C9
:00000001FF
