:020000040800F2
:10000000080B0020390100080F1B000831160008FA
:100010000D1B0008D1010008B529000800000000F0
:100020000000000000000000000000006D23000838
:10003000D301000800000000092200086F23000817
:100040005301000853010008530100085301000840
:100050005301000853010008530100085301000830
:100060005301000853010008530100085301000820
:100070005301000853010008530100085301000810
:100080005301000853010008530100085301000800
:1000900053010008530100085301000853010008F0
:1000A00053010008530100085301000853010008E0
:1000B00053010008530100085301000853010008D0
:1000C00053010008530100085301000853010008C0
:1000D0005301000899270008A528000853010008CB
:1000E000D5010008852200085301000853010008CB
:1000F00053010008000000005301000853010008EC
:100100000000000000000000530100085301000837
:1001100053010008530100085301000800000000CB
:1001200053010008DFF80CD000F040F80048004709
:10013000652D0008080B0020064880470648004748
:10014000FEE7FEE7FEE7FEE7FEE7FEE7FEE7FEE787
:10015000FEE7FEE71524000825010008D2B201E001
:1001600000F8012B491EFBD270470022F6E710B5BC
:1001700013460A4604461946FFF7F0FF204610BD15
:1001800030B50B46014600202022012409E021FA67
:1001900002F59D4205D303FA02F5491B04FA02F564
:1001A0002844151EA2F10102F1DC30BD064C074DBA
:1001B00006E0E06840F0010394E807009847103437
:1001C000AC42F6D3FFF7B2FF743E0008943E00083D
:1001D000FEE770474FF4006000F04EB830B50F48AE
:1001E00087B0016841F00201016000684FF44044AB
:1001F00000F0020005900120CDE9004000200290AF
:100200000320074D03906946284600F041F801227B
:100210002146284600F007F907B030BD1C380240DF
:100220000004024031B500F003F9044600F000F983
:100230000099001B8842F9D338BD000070B54FF417
:100240000064A0420BD1094D2146284600F0E6F893
:1002500030B12146284600F0E1F80548046070BD41
:100260000449C889401CC881F7E70000000002402B
:100270001404014000000020044910B50A6802423D
:1002800002D00860FFF7DAFF10BD0000140401403F
:100290002DE9F84FDFF864B100234FF0010C4FF067
:1002A000030A4FF00F090BF1040EA0E00CFA03F65D
:1002B000324072D04C68022C01D0122C0ED1DC08D6
:1002C00000EB8408D8F820405D07EF0E09FA07F527
:1002D000AC430D69BD402543C8F8205007685D0058
:1002E00091F804800AFA05F408F00308A74308FA15
:1002F00005F848EA0708C0F800804F68012F05D0CC
:10030000022F03D0112F01D0122F11D18768D1F8FD
:100310000C80A74308FA05F848EA0708C0F80880E7
:100320004768B7430E79C6F300169E403E434660C9
:10033000C668A6438C68AC403443C4604C68E40093
:1003400054D52F4C256845F001052560246823F01D
:10035000030504F0010400942A4C2544AF689C076F
:10036000240F09FA04F6B743274EB04201D1002604
:1003700015E0264EB04201D1012610E0244EB042D5
:1003800001D102260BE0234EB04201D1032606E044
:10039000214EB04202D1042601E027E00526A64006
:1003A0003E43AE60DBF800405D464E689443F60382
:1003B00000D514432C60DEF8004075464E68944327
:1003C000B60300D514432C600C4D08352C684E68DC
:1003D0009443F60200D514432C60084D0C352C686C
:1003E0004E689443B60200D514432C605B1C0A6827
:1003F00032FA03F47FF45AAFBDE8F88F00040140ED
:100400002038024000000140000002400004024089
:1004100000080240000C0240001002400069084041
:1004200000D0012070470AB1816170470904FBE7E1
:100430000148006870470000BC00002002480168C5
:10044000491C016070470000BC000020094810B53D
:10045000016841F004010160016841F0020101609E
:10046000032000F049F80F2000F006F800F018F81B
:10047000002010BD003C024010B5044607484FF470
:100480007A710068B0FBF1F000F0C2FF0022214653
:10049000501E00F011F8002010BD0000B800002030
:1004A000704700F01F02012191404009800000F1D7
:1004B000E020C0F800117047F0B40E4B1B680C46EA
:1004C000C3F30223C3F10705042D00D90425191D28
:1004D000072901D2002300E0DB1E012606FA05F100
:1004E000491E214099409E40761E16403143F0BC83
:1004F00001F00EBB0CED00E0064900F007020868B1
:100500004FF6FF03184040EA0220034A10430860F8
:10051000704700000CED00E00000FA05024800689A
:1005200000F4C0507047000000700040012001023C
:1005300091FAA1F1024AB1FA81F142F82100704723
:1005400000000E422DE9F84F04460068C10701D1B2
:10055000800778D5DFF868810027D8F80000C00050
:100560000BD4D8F8001041F08051C8F80010D8F82A
:100570000000012700F080500090524D2868C0050F
:1005800010D4286840F480702860FFF751FF0646B9
:1005900005E000BFFFF74CFF801B64285CD828688B
:1005A000C005F7D5464E243E3068616800F0C04073
:1005B00001F0C042824204D1A26802F0C0428242ED
:1005C00009D0C1F30140032805D13068800302D56A
:1005D0000120BDE8F88F3A4D1035286810F44030FE
:1005E00052D001F44031814202D02178C90707D1AD
:1005F000A16801F44031814246D02078800743D57C
:1006000028684FF4000292FAA2F1B1FA81F14FEAA0
:10061000810C2D494FF0010A8C4420F44030CCF875
:1006200080A692FAA2F2B2FA82F201EB82010023D2
:10063000C1F880362860C00526D5FFF7F9FE81464F
:100640004FF4007B0AE038E0FFF7F2FEA0EB09016F
:1006500041F28830814201D90320BAE79BFAABF01E
:10066000B0FA80F040F04001BAEB511F01D131687F
:1006700000E029689BFAABF2B2FA82F202F01F02A4
:100680000AFA02F00142DFD06068C0F30141032999
:1006900006D1316800F0C04021F0C0410143316013
:1006A0002868616801F44031084328602FB1D8F808
:1006B000001021F08051C8F80010002089E70000E8
:1006C0002438024000700040000047422DE9F04706
:1006D000DFF8BC8105460E46D8F8000000F00100A6
:1006E000B04214D2012E05D1D8F8001041F0040117
:1006F000C8F80010D8F8001021F001013143C8F803
:100700000010D8F8000000F00100B04271D1287844
:10071000604C800705D52068A96820F0F0000843E8
:1007200020602878C00771D05A4A5A4B6968012066
:10073000083A2C33022910D003292ED001292FD0BA
:100740005FEA402797FAA7FCBCFA8CFC4CF0200C1F
:100750005FEA5C1C04D0126803E04FF40037F1E755
:100760001A6897FAA7F3B3FA83F303F01F039840CC
:10077000024262D0206820F0030008432060FFF7A7
:1007800057FE6968074641F28830022910D00329D4
:100790001CD00129814626D034E04FF00077D1E704
:1007A0000227CFE7FFF744FEC11B494501D926E0E8
:1007B00081462068C0F381000228F3D126E000BF03
:1007C000FFF736FEC11B494501D918E08146206874
:1007D000C0F381000328F3D118E000BFFFF728FE23
:1007E000C11B49450BD82068C0F381000128F5D111
:1007F0000CE022E0FFF71CFEC11B494502D9032093
:10080000BDE8F087206810F00C0FF3D1D8F8001085
:10081000404601F00101B14211D9012E03D1016816
:1008200041F004010160016821F0010131430160E0
:10083000006800F00100B04201D00120E0E7287814
:10084000400705D52068E96820F4E060084320608F
:100850002878000706D52068296920F4605040EA0E
:10086000C100206000F04CF82168F02292FAA2F258
:1008700001F0F001B2FA82F2D140074A515CC8405F
:10088000064908600F20FFF7F7FD0020B8E70000D9
:10089000003C024008380240593E0008B8000020E1
:1008A00008480949006809684FF4E06292FAA2F228
:1008B00001F4E061B2FA82F2D140044A515CC840CE
:1008C00070470000B800002008380240693E000868
:1008D00008480949006809684FF4605292FAA2F288
:1008E00001F46051B2FA82F2D140044A515CC8402E
:1008F00070470000B800002008380240693E000838
:100900001E4A116801F00C00042813D0082813D0E7
:100910000C2813D0101F006800F460414FF46040B1
:1009200090FAA0F0B0FA80F0C1404FF40040491CAA
:100930008840704712487047124870474FF4701350
:1009400093FAA3F301F47010B3FA83F3D8400E4B7B
:1009500001F440011268185C4FF4400393FAA3F3CA
:10096000B3FA83F3D940491CD20301D5054A00E00C
:10097000034A5043B0FBF1F07047000008380240D2
:100980000024F40000127A00503E00082DE9F84FD0
:1009900007460078FB4EFC4DC0074FF0010428D0FD
:1009A000F848083001684FF40038C1F3810102298A
:1009B00007D00168C1F3810103291BD10068C0037E
:1009C00018D598FAA8F0B0FA80F040F0200040095D
:1009D00001D0306800E0286898FAA8F1B1FA81F1F6
:1009E00001F01F0104FA01F108425CD07868002888
:1009F0007BD058E0786801280AD008B1052811D0CA
:100A0000306820F480303060306820F4802002E0CC
:100A1000306840F480303060786828B3FFF708FD14
:100A200081460BE0306840F480203060F0E700BF82
:100A3000FFF7FEFCA0EB0900642872D898FAA8F032
:100A4000B0FA80F040F02000400901D0306800E0AA
:100A5000286898FAA8F1B1FA81F101F01F0104FAAF
:100A600001F10842E4D01EE0FFF7E2FC814605E018
:100A7000FFF7DEFCA0EB09006428DED898FAA8F0A6
:100A8000B0FA80F040F02000400901D0306800E06A
:100A9000286898FAA8F1B1FA81F101F01F0104FA6F
:100AA00001F10842E4D13878DFF8E08280074FF0A6
:100AB000000B4FF002095FD5B24808300168C1F35E
:100AC0008101012907D00168C1F3810103291CD1EB
:100AD0000068C00319D499FAA9F0B0FA80F040F088
:100AE0002000400902D0306801E086E0286899FAC9
:100AF000A9F1B1FA81F101F01F0104FA01F10842F4
:100B00002BD0F868012878D127E0F868A8B394FAC8
:100B1000A4F0B0FA80F048F82040FFF789FC824644
:100B200006E066E1FFF784FCA0EB0A00022884D807
:100B300099FAA9F1B1FA81F141F02001490901D0F6
:100B4000316800E0296899FAA9F0B0FA80F000F065
:100B50001F0004FA00F00142E4D08A48001D016839
:100B60004FF4F85393FAA3F33A69B3FA83F321F4F9
:100B7000F8519A401143016025E0FFE794FAA4F18F
:100B8000B1FA81F148F821B0FFF752FC824605E046
:100B9000FFF74EFCA0EB0A000228C8D899FAA9F08A
:100BA000B0FA80F040F02000400901D0306800E049
:100BB000286899FAA9F1B1FA81F101F01F0104FA4C
:100BC00001F10842E4D138784FF4007AC0067CD5B0
:100BD0006C480830006810F00C0F0FD0B9694FF462
:100BE0008070002972D090FAA0F0B0FA80F048F836
:100BF0002040FFF71DFC00907EE087E09AFAAAF003
:100C0000B0FA80F040F02000400901D0306800E0E8
:100C100028689AFAAAF1B1FA81F101F01F0104FAE9
:100C200001F1084202D0B86900286FD05548396AEE
:100C3000001D006800F4604081421AD9084601F0A6
:100C4000E5FA002862D14F48001D01683A6A21F494
:100C500060411143016001684FF07F4393FAA3F3B1
:100C6000FA69B3FA83F321F07F419A40114301609E
:100C700018E04448001D026822F460420A43026002
:100C800001684FF07F4393FAA3F3FA69B3FA83F351
:100C900021F07F419A4011430160386A01F0B6FAB1
:100CA0000028CFD14FF4604191FAA1F1386AB1FA2E
:100CB00081F1C8404FF40041401C81403148083068
:100CC0000068F02200F0F00001E070E040E092FAED
:100CD000A2F2B2FA82F2D0402D4A105CC1402D48F7
:100CE00001600F20FFF7C8FB61E000BFFFF7A0FB2A
:100CF0000099401A02287CD89AFAAAF0B0FA80F03B
:100D000040F02000400902D0306801E0BCE12868D2
:100D10009AFAAAF1B1FA81F101F01F0104FA01F186
:100D20000842E3D01748001D01683A6A21F4604187
:100D30001143016001684FF07F4393FAA3F3FA690E
:100D4000B3FA83F321F07F419A40114301602EE012
:100D500090FAA0F0B0FA80F048F820B0FFF768FBF6
:100D6000009005E0FFF764FB0099401A0228C2D802
:100D70009AFAAAF0B0FA80F040F0200040090BD0B7
:100D800030680AE000380240343802400000474230
:100D9000593E0008B800002028689AFAAAF1B1FA72
:100DA00081F101F01F0104FA01F10842DAD138782B
:100DB000000753D5786948B394FAA4F0B0FA80F0EC
:100DC00008EB8000C0F88046FFF732FB009005E09A
:100DD000FFF72EFB0099401A02288CD899FAA9F047
:100DE000B0FA80F040F04000B4EB501F02D1306800
:100DF00001E08EE0286899FAA9F1B1FA81F101F0D9
:100E00001F0104FA01F21042E2D027E094FAA4F1A3
:100E1000B1FA81F108EB8101C1F880B6FFF708FB58
:100E2000009005E0FFF704FB0099401A022870D8F3
:100E300099FAA9F0B0FA80F040F04000B4EB501FEE
:100E400001D1306800E0286899FAA9F1B1FA81F17E
:100E500001F01F0104FA01F21042E3D13878400793
:100E60007BD59B484FF000090068C0000AD4984821
:100E7000016841F08051016000684FF0010900F005
:100E80008050009093480168C90511D4016841F46D
:100E900080710160FFF7CCFA009005E0FFF7C8FA17
:100EA0000099401A642834D88A480068C005F5D5EE
:100EB000B86801280AD008B1052811D0286820F4A4
:100EC00080702860286820F4806002E0286840F480
:100ED00080702860B86848B3FFF7AAFA00900DE068
:100EE000286840F480602860F0E700BFFFF7A0FAB0
:100EF0000099411A41F2883081420AD89AFAAAF040
:100F0000B0FA80F040F04000B4EB501F02D13068DE
:100F100001E095E028689AFAAAF1B1FA81F101F0AE
:100F20001F0104FA01F21042E0D022E0FFF780FA3C
:100F3000009007E0FFF77CFA0099411A41F28830EF
:100F400081427DD89AFAAAF0B0FA80F040F04000D1
:100F5000B4EB501F02D1306801E012E028689AFA21
:100F6000AAF1B1FA81F101F01F0104FA01F2104275
:100F7000E0D1B9F1000F04D05548016821F080514B
:100F80000160786AE8B3DFF84891A9F11C09D9F843
:100F90000010C1F38101032976D002284FF080713F
:100FA0004FF0007A58460BD091FAA1F1B1FA81F1D5
:100FB00048F82100FFF73CFAB046074656466DE078
:100FC0004FF0807191FAA1F1B1FA81F18A004249A2
:100FD0005050FFF72DFAB3468046564606E000BF54
:100FE000FFF726FAA0EB0800022854D896FAA6F0DC
:100FF000B0FA80F040F02000400903D0DBF8000098
:1010000001E061E0286896FAA6F1B1FA81F101F0F9
:101010001F0104FA01F10842E2D1D7E90A103A6B44
:10102000D9F80030014323F47D031A431143C9F872
:1010300000104FF0807090FAA0F0B0FA80F000E05D
:1010400029E0810024480C50FFF7F2F9074604E03C
:10105000FFF7EEF9C01B02281DD896FAA6F0B0FAE9
:1010600080F040F02000400902D0DBF8000000E0F2
:10107000286896FAA6F1B1FA81F101F01F0104FA8D
:1010800001F10842E4D01FE020E000BFFFF7D0F9F3
:10109000C01B022802D90320BDE8F88F96FAA6F0FB
:1010A000B0FA80F040F02000400902D0D8F80000EB
:1010B00000E0286896FAA6F1B1FA81F101F01F016B
:1010C00004FA01F10842E1D10020E5E70120E3E75D
:1010D00024380240007000400000474201A001F0A7
:1010E0006BBC0000416C61726D20420D0A00000073
:1010F00001490120487370470000002010B50446E4
:1011000000688168C9040CD5C068C00509D52046AF
:10111000FFF7EEFF2068C16801F0800161F4C07143
:10112000C1602068816889040CD5C068800509D534
:101130002046FFF7D3FF2068C16801F0800161F409
:101140002071C16003494FF40030086001206077CE
:1011500010BD00001404014070B5040002D0607F8F
:1011600010B106E0012070BD00202077204600F07D
:1011700041F8022060772168CA2048622168532024
:101180004862204601F098F8FF210028206803D02B
:10119000416204206077E5E78268154B1A4082605F
:1011A0002268906863681843D4E904352B431843D8
:1011B00090602268E068106120680269238942EA31
:1011C000034202612068C26822F08002C260206887
:1011D000026C22F4802202642068026CA3691A4324
:1011E00002642068416201206077002070BD000029
:1011F000BFFF8FFF10B500681C4992B0884233D101
:101200001B48016841F080510160006800F0805087
:101210001090FFF78BF90C2000900020012409901A
:1012200005946846FFF7B2FB6004CDE90D400DA8B8
:10123000FFF788F9A00590FAA0F00E49B0FA80F007
:1012400001EB8000C0F8804600220A212920FFF728
:1012500033F92920FFF725F900220A210320FFF79F
:101260002BF90320FFF71DF912B010BD0028004034
:1012700024380240000047422DE9F05F0446007F19
:101280000D46012848D00120207702206077206891
:10129000002780684FEA4060EAB3002859DA2878CE
:1012A00000F0F6FF95F8200000F0F2FFA87829780A
:1012B000EA7840EA01406978090241EA02410843BC
:1012C00095F8201040EA0166E869A9690643686953
:1012D0000643686840EA01082168CA20486221681C
:1012E00053204862686AFF25B0F5807F20684FF080
:1012F000030B4FF47A7A81682DD021F4007181605C
:101300002068C16801F0800161F42071C160FFF7BD
:101310008FF8814655E002E00220BDE8F09F0028EA
:1013200000DBEF70287800F0BCFF0604687800F05E
:10133000B8FF46EA0026A87800F0B3FF0643E87835
:1013400046EA004695F8200000F0ABFF46EA00664A
:10135000BAE7EF70A6E721F4807181602068C16868
:1013600001F0800161F4C071C160FFF761F881464E
:1013700006E000BFFFF75CF8A0EB0900504519D864
:101380002068C068C007F5D02068C6612168C1F830
:1013900044802068816841F48071816020688168A0
:1013A00041F480511FE000BFFFF742F8A0EB0900B5
:1013B000504506D92068456284F81DB02777032080
:1013C000ABE72068C0688007EED520680662216818
:1013D000C1F848802068816841F40071816020680C
:1013E000816841F4005181600848016841F400318E
:1013F000016006480830016841F40031016020684E
:101400004562012060772777002086E700040140CD
:1014100010B5401EB0F1807F01D3012010BD4FF008
:10142000E02460610F21601700F072FB0020A061D2
:1014300007202061002010BD704770B5040004D063
:1014400094F83900002510B106E0012070BD84F841
:101450003850204600F020F8022084F83900206837
:10146000C16821F40051C160204600F0FBFF2068F4
:10147000016921F4904101612068416921F02A014C
:1014800041612068C16841F40051C160E5630120F9
:1014900084F83900002070BDF0B52D4F02682D4949
:1014A00002230124032507262B4887B0BA4223D103
:1014B0000A1D176847F480471760126802F48042DB
:1014C00005920A6842F001020A60096801F0010110
:1014D000059169028DE87A006946FEF7D9FE1F483A
:1014E0000068C16841F02001C16000220E21252062
:1014F000FEF7E2FF252027E0194FBA4226D1154A10
:101500000832176847F400371760126802F4003297
:1015100005920A6842F001020A60096801F00101BF
:1015200005910C218DE87A006946FEF7B1FE0B4863
:1015300040300068C16841F02001C16000221146BE
:101540002620FEF7B9FF2620FEF7ABFF07B0F0BD5F
:10155000003801401C380240000002408406002090
:10156000004400402DE9F047044690F839009946C0
:101570000D46012801D0222858D12DB322B394F86A
:101580003800012852D0012684F838600027E7632C
:1015900094F8390022281AD05FF0120084F839003C
:1015A000A284E2844FF48058E08C4B46401EE084D5
:1015B000A0684FF0000240454FF08001204613D153
:1015C00001F0A0F808BB04E00120BDE8F08732205C
:1015D000E4E728882168C0F308004860206908B162
:1015E0006D1C08E0AD1C06E001F08CF868B92168BC
:1015F00015F8010B4860E08C0028D5D14B4600223D
:101600004021204601F07EF808B10320DDE794F880
:101610003900322806D084F8396000BF84F8387069
:101620000020D2E7222084F83900F7E70220CCE737
:10163000FEE70520401E10F0FF00FBD170470000C0
:1016400070B500F075FE0E4D4FF400540022214697
:101650002846FEF7E8FE002261102846FEF7E3FE6A
:10166000FFF7E7FF012221462846FEF7DCFEFFF7E1
:10167000E0FF21462846BDE870400022FEF7D3BEB9
:101680000004024010B500F0D9F8A22000F09CF848
:1016900000F01CF9002000F097F800F017F9002086
:1016A00000F092F800F012F9132000F08DF800F02D
:1016B0000DF900F0C3F8A22000F086F800F006F95A
:1016C000092000F081F800F001F9802000F07CF89A
:1016D00000F0FCF8802000F077F800F0F7F88020A8
:1016E00000F072F800F0F2F8802000F06DF800F0E1
:1016F000EDF8002000F068F800F0E8F8822000F033
:1017000063F800F0E3F8012000F05EF800F0DEF886
:10171000BDE8104000F0B6B870B500F009FE0E4DFF
:101720004FF40054002221462846FEF77CFE012299
:1017300011032846FEF777FEFFF77BFF01222146C3
:101740002846FEF770FEFFF774FF21462846BDE8E5
:1017500070400022FEF767BE000402402DE9F0470A
:101760000825002400F0C6FD0122DFF8588016038A
:1017700031464046FEF757FEB146AF02464616E0F8
:101780006006040E002239463046FEF74CFEFFF795
:1017900050FF012239463046FEF745FEFFF749FF6C
:1017A00049463046FEF73AFE08B144F001046D1E8A
:1017B000EDB2E5D2002239463046FEF734FE20462F
:1017C000BDE8F087000402402DE9F04106460824F8
:1017D00000F0AEFD4FF48058A702174D1DE000BF8A
:1017E000FEF721FE300601D5012200E0002241462D
:1017F0002846FEF718FE7006060EFFF71AFF0122B4
:1018000039462846FEF70FFEFFF713FF0022394640
:101810002846FEF708FEFFF70CFF641EE4B24FF007
:10182000000239462846DBD2FEF7FDFD4146284638
:10183000BDE8F041FEF7F2BD0004024070B500F0D3
:1018400077FD01220E4D140321462846FEF7EBFDDD
:101850000122560331462846FEF7E5FDFFF7E9FE73
:10186000002221462846FEF7DEFDFFF7E2FE0022B9
:1018700031462846FEF7D7FDBDE87040FFF7D9BED8
:101880000004024070B500F053FD01220E4D5403D8
:1018900021462846FEF7C7FD66100022314628463D
:1018A000FEF7C1FDFFF7C5FE012231462846FEF7CF
:1018B000BAFDFFF7BEFE002221462846FEF7B3FD23
:1018C000BDE87040FFF7B5BE0004024070B500F0FF
:1018D00011FD184C4FF40055002229462046FEF712
:1018E000A2FDFFF7A6FE0122160331462046FEF7B1
:1018F0009AFDFFF79EFE012229462046FEF793FD42
:10190000FFF797FE31462046FEF788FD40B1FFF70E
:1019100090FE002229462046FEF785FD002070BD7E
:10192000FFF787FE002229462046FEF77CFD0120B6
:1019300070BD0000000402400B4800B5016887B08C
:1019400041F0010101600068694600F00100059066
:101950004FF4F9700090002001900120029003489C
:10196000FEF796FC07B000BD1C38024000000240A4
:101970002DE9F0473F4886B0016841F0040101605D
:10198000016801F004010591016841F02001016046
:10199000016801F020010591016841F00101016039
:1019A000016801F001010591016841F00201016047
:1019B0000068DFF8C49000F0020040F6FF74059064
:1019C000012221464846FEF72EFDDFF8B0A0012295
:1019D00011465046FEF727FD4FF440570122394685
:1019E0004846FEF720FD4FF4404801224146484654
:1019F000FEF719FD009401AA01240025032682E8C0
:101A0000700069464846FEF743FC01AA009482E84C
:101A1000700069465046FEF73BFC01AA009782E839
:101A2000700069464846FEF733FC01AACDF80080F5
:101A300082E8700069464846FEF72AFC20038DE8DC
:101A4000710069465046FEF723FCE00200900C4806
:101A5000CDE9010469465046FEF71AFC0022114602
:101A60002820FEF729FD2820FEF71BFD06B0BDE863
:101A7000F08700001C3802400004024000000240D1
:101A80000000211070B51F488AB01D490024C0E92C
:101A900000147F2181604FF49071C0E90314446108
:101AA0008461FFF759FB4FF4807009904FF0706626
:101AB0004FF08030CDE90664012505908DF8205067
:101AC00000942A4669460F480194FFF7D5FB680247
:101AD00009908DF820500C480794CDE905068DF843
:101AE00003408DF800400A208DF801008DF8024077
:101AF0000022694603480194FFF7BEFB0AB070BD9F
:101B0000002800406406002000808080FEE77047C7
:101B10000907090E002806DA00F00F0000F1E020A6
:101B200080F8141D704700F1E02080F80014704721
:101B30002DE9F04F884601F03F04203A00F07F097C
:101B40001749D0B29B46002601EB001A5FF0000750
:101B50001AF80650BBF1010F4FEAC57002D018B158
:101B6000002202E00028FBD001222146484600F076
:101B70009BF8641CE4B26D08A4EB0800102809D09F
:101B80007F1CFFB2082FE5D3761CF6B2102EDDD3F2
:101B9000BDE8F08F09F10100444600F0FF09F3E7CA
:101BA000202E00082DE9F04F00F07F0918489B46D1
:101BB000884601F03F04002600EB421A5FF0000760
:101BC0001AF80650BBF1010F4FEAC57002D018B1E8
:101BD000002202E00028FBD001222146484600F006
:101BE00063F8641CE4B26D08A4EB0800102809D067
:101BF0007F1CFFB2082FE5D3761CF6B2202EDDD372
:101C0000BDE8F08F09F10100444600F0FF09F3E759
:101C1000103400082DE9F047884601F03F0400F039
:101C20007F09154902EBC200002501EBC00A00BF85
:101C30001AF805700026F80701D0012200E0002202
:101C40002146484600F030F8641CE4B27F08A4EB5B
:101C50000800182809D0761CF6B2082EEBD36D1CAC
:101C6000EDB2482DE4D3BDE8F08709F10100444608
:101C700000F0FF09F3E70000303C000830B4002119
:101C8000084B0A465FF0000003EBC004401CC0B2E2
:101C900062548428F8D3491CC9B20829F2D330BC55
:101CA00000F0B2B8C401002000F07F03072010B597
:101CB00000EAD10001F00701C1F107040121A140B0
:101CC000CCB20549002A01EBC3010A5C01D02243D2
:101CD00000E0A2430A5410BDC401002010B5AE209C
:101CE00000F0D4F8402000F0D1F8B02000F0CEF899
:101CF000812000F0CBF8FF2000F0C8F8822000F02F
:101D0000C5F8202000F0C2F8A02000F0BFF8A42001
:101D100000F0BCF8A62000F0B9F8A82000F0B6F852
:101D20003F2000F0B3F8AD2000F0B0F88B2000F0B9
:101D3000ADF8C82000F0AAF8D32000F0A7F80020E2
:101D400000F0A4F8D52000F0A1F8702000F09EF873
:101D5000D82000F09BF8002000F098F8DA2000F07E
:101D600095F8122000F092F8AF2000F08FF8BDE84F
:101D70001040FFF783BF10B5002208211120FFF7A4
:101D800049FF012208212920FFF744FF02220821F0
:101D90004120FFF73FFF032208215920FFF73AFFB8
:101DA0000123002228211846FFF7FCFE01231A46D2
:101DB00028211120FFF7F6FE0123022228212120ED
:101DC000FFF7F0FE0123032228213120FFF7EAFE6E
:101DD0000123042228214120FFF7E4FE01230522EC
:101DE00028215120FFF7DEFE012306222821612051
:101DF000FFF7D8FE0123072228217120FFF7D2FE2A
:101E0000BDE81040AFF3008070B50E4E002400BF57
:101E100004F1B000C0B200F039F8002000F036F84C
:101E2000102000F033F8002506EBC500005D00F03F
:101E300067F86D1CEDB2842DF6D3641CE4B2082C57
:101E4000E6D370BDC40100202DE9F0411F461646BF
:101E50000D46044613E0782C02D900241035EDB26B
:101E6000302D03D900242546FFF708FF32783B4682
:101E700029462046FFF75CFE0834E4B2761C307831
:101E800020385E28E7D9BDE8F081000070B5012256
:101E90001A4C0646150229462046FEF7C4FA0020D1
:101EA000401CC0B20328FBD300224FF4007120462F
:101EB000FEF7B9FA0122D1022046FEF7B4FA002259
:101EC0004FF480612046FEF7AEFA0C4814300168EA
:101ED00001F47F4131430160002229462046FEF78C
:101EE000A2FA0022521CD2B2032AFBD32946204672
:101EF000BDE870400122FEF796BA000000040240DF
:101F000070B50122194C0646150229462046FEF7F7
:101F10008AFA0020401CC0B20328FBD301225102E0
:101F20002046FEF780FA0122D1022046FEF77BFA16
:101F300000224FF480612046FEF775FA0B481430FA
:101F4000016801F47F4131430160002229462046A7
:101F5000FEF769FA0022521CD2B2032AFBD32946AB
:101F60002046BDE870400122FEF75DBA0004024041
:101F700010B50123082200211120FFF713FE0123D1
:101F8000092200213120FFF70DFE01230A22002142
:101F90005120FFF707FE012346A200216820FFF72A
:101FA00053FF012344A210210820FFF74DFF012316
:101FB0003A2210211820FFF7BBFD01233EA2102179
:101FC0002020FFF741FF01233A2210213020FFF7A4
:101FD000AFFD012338A210213820FFF735FF012380
:101FE00036A210216020FFF72FFF364890F900003D
:101FF00020B1012816D0022834D057E001230B224B
:1020000020213020FFF7CEFD01230C22202140208B
:10201000FFF7C8FD00230D2230211020FFF7C2FD7D
:10202000002332E001230B2220213020FFF7BAFDEC
:1020300001230C2220214020FFF7B4FD01230D22B3
:1020400030211020FFF7AEFD01230E223021202089
:10205000FFF7A8FD00230F2230215020FFF7A2FD3B
:1020600000231EE000230B2220213020FFF79AFDE1
:1020700000230C2220214020FFF794FD01230D2294
:1020800030211020FFF78EFD01230E223021202069
:10209000FFF788FD01230F2230215020FFF782FD3A
:1020A0000123102230216020FFF77CFDBDE81040A5
:1020B000FFF7AABE2F2F2F00303000005330304DD5
:1020C000000000008C00002070B5FFF7B7FBA220D5
:1020D000FFF77AFBFFF7FAFB002864D00220FFF736
:1020E00073FBFFF7F3FB00285FD0FFF7A7FBA320EC
:1020F000FFF76AFBFFF7EAFB002858D0FFF72EFB3B
:102100002E4C2070FFF79CFAFFF728FB6070FFF75A
:1021100097FAFFF723FBA070FFF792FAFFF71EFB79
:10212000E070FFF78DFAFFF719FB2071FFF788FACF
:10213000FFF714FB6071FFF783FAFFF70FFBA07145
:10214000FFF7EAFAFFF79EFB6179A07901F01F0122
:102150006171E17801F03F01E170A17801F03F0188
:10216000A170617801F07F016170217801F07F0139
:10217000217000F08DF8E51D2870607900F088F876
:102180006870E07800F084F8E870A07800F080F8DB
:102190002871607800F07CF86871207800F078F899
:1021A000A871012070BD06A002E00BA000E010A005
:1021B00000F002FCFFF766FB002070BDA9000020C4
:1021C000C3BBD3D0B5C8B5BDD3A6B4F0D0C5BAC5CE
:1021D00031300D0A00000000C3BBD3D0B5C8B5BD77
:1021E000D3A6B4F0D0C5BAC531310D0A0000000045
:1021F000C3BBD3D0B5C8B5BDD3A6B4F0D0C5BAC59E
:1022000031320D0A0000000070470000F8B50746A3
:102210001A48002600681A4D10F0F00F20D1174C14
:102220001C342068C00002D5FEF778F90DE0206864
:1022300040F080502060206800F080500090FEF751
:102240006DF9216821F080512160B0F5C05F07D1A0
:10225000B7F5404F04D12868012640F004002860FB
:10226000286820F0010030432860286800F0010051
:10227000B04201D00120F8BD0020F8BD083802406E
:10228000003C02400148FEF739BF00006406002010
:10229000010901EB810100F00F0000EB4100C0B229
:1022A0007047002102E00A38C0B2491C0A28FAD25D
:1022B000090740EA1160704770B504460068C168BC
:1022C000490614D44FF0FF31C160FEF7B1F805465E
:1022D0004FF47A7607E000BFFEF7AAF8401BB04241
:1022E00001D9032070BD2068C0684006F4D50020E5
:1022F00070BD00000C4800B5016887B041F00201D4
:1023000001600068694600F0020005904FF48050BB
:102310000090002001900290032003900348FDF7F5
:10232000B7FF07B000BD00001C38024000040240A7
:102330000C4800B5016887B041F0020101600068F7
:10234000694600F0020005904FF480500090012093
:10235000019000200290032003900348FDF798FFAE
:1023600007B000BD1C380240000402407047FEF771
:1023700065B80000F0B593B014210DA8FDF7F5FE87
:1023800034216846FDF7F1FE012602250096E80398
:102390000196CDE909500001C700CDE90B07684659
:1023A000FEF7F4FA002468B1102000950995CDE9F4
:1023B0000360C003CDE90A400C976846FEF7E6FAD1
:1023C00000B1FEE71148016841F0805101600068EA
:1023D00000F0805012900E48016821F4C05141F481
:1023E000006101604168C943C906FBD50F200D900B
:1023F0000320CDE90E04109401210DA81194FEF7DD
:1024000065F9002800D0FEE713B0F0BD2438024083
:10241000007000400F48016841F4807101600D496F
:1024200008310A680C4B1A400A6002680B4B1A40CC
:102430000260026822F480220260086820F47D00B5
:1024400008600020091D086005494FF00060086021
:1024500070470000003802400CC0FF88FEFFFEEE0F
:1024600008ED00E02DE9F041044600680169E268EA
:1024700021F44051114301612169A068E2690843D8
:102480006169114308432168CA6849F20C639A43A1
:102490000243CA6020684169A26921F44071114376
:1024A0004161E1696425B1F5004F954821684FF01D
:1024B00032083DD081427AD1FEF70AFA00EBC00122
:1024C00001EB001061688900B0FBF1F6FEF700FA3D
:1024D00000EBC00101EB001061688900B0FBF1F076
:1024E000B0FBF5F06FF01801484306EB800108EBF4
:1024F0000110B0FBF5F000F0F006FEF7E9F900EB93
:10250000C00101EB001061688900B0FBF1F0B0FB85
:10251000F5F006EB0016FEF7DBF900EBC00101EB6E
:10252000001061688900B0FBF1F7FEF7D1F9D0E047
:1025300081423DD1FEF7CCF900EBC00101EB001068
:1025400061684900B0FBF1F0B0FBF5F00601FEF761
:10255000BFF900EBC00101EB001061684900B0FB5E
:10256000F1F7FEF7B5F900EBC00101EB001061686F
:102570004900B0FBF1F0B0FBF5F06FF018014843F3
:1025800007EB800108EBC100B0FBF5F000F0F800AC
:1025900006EB4006FEF79CF900EBC00101EB0010D2
:1025A00061684900B0FBF1F7FEF792F93CE055E0B5
:1025B000FEF776F900EBC00101EB001061684900FD
:1025C000B0FBF1F0B0FBF5F00601FEF769F900EBA6
:1025D000C00101EB001061684900B0FBF1F7FEF7A4
:1025E0005FF900EBC00101EB001061684900B0FB2E
:1025F000F1F0B0FBF5F06FF01801484307EB8001F4
:1026000008EBC100B0FBF5F000F0F80006EB400667
:10261000FEF746F900EBC00101EB001061684900CC
:10262000B0FBF1F7FEF73CF900EBC00101EB001045
:1026300061684900B0FBF1F0B0FBF5F06FF01801F4
:10264000484307EB800108EBC100B0FBF5F000F058
:102650000700216830448860BDE8F081FEF720F96A
:1026600000EBC00101EB001061688900B0FBF1F6DE
:10267000FEF716F900EBC00101EB0010616889005C
:10268000B0FBF1F0B0FBF5F06FF01801484306EB3A
:10269000800108EB0110B0FBF5F000F0F006FEF74A
:1026A000FFF800EBC00101EB001061688900B0FB8E
:1026B000F1F0B0FBF5F006EB0016FEF7F1F800EBD9
:1026C000C00101EB001061688900B0FBF1F7FEF773
:1026D000E7F800EBC00101EB001061688900B0FB76
:1026E000F1F0B0FBF5F06FF01801484307EB800103
:1026F00008EB0110B0FBF5F000F00F00A9E70000B7
:10270000003801402DE9F0471D4690460E4604462C
:10271000FDF78EFE07465FEA08004FF000094FF014
:10272000010808D030E0681C05D095B1FDF780FEA7
:10273000C01BA8420DD82068006836EA0000F2D11C
:1027400027E0681C20D025B1FDF772FEC01BA8420F
:102750001AD92068C16821F08001C1602068C16871
:1027600021F02001C1602068C16821F48071C1603E
:102770002068416921F00101416184F8398084F8C1
:1027800038900320BDE8F0872068006836EA000032
:10279000D7D00020F6E700002DE9F80134480268A0
:1027A0001168D26811F0010F02F4807204D01AB1DE
:1027B000C16B41F00101C16301680A684969C2F354
:1027C000400201F0010122B119B1C26B42F00402D2
:1027D000C26302681268C2F3800222B119B1C26BEF
:1027E00042F00202C26302681268C2F3C00222B160
:1027F00019B1C16B41F00801C16302681168D36867
:10280000C1F3401103F02003012469B163B15168A1
:10281000CBB218490D783DB90025174E3C2B13D08B
:102820004F78012F14D0CD611168D1681168D1683B
:10283000C16B002918D011685168009180F83940A7
:10284000BDE8F801FEF7F8BD4C703370CC61EBE7E2
:10285000CF69F3557F1CCF617F2F00D90C703E2BC1
:10286000E2D10C704D70DFE7BDE8F8017047000061
:102870008406002000000020C40000200849074A08
:10288000C1E90020002088600C22C860C1E9040270
:102890008861C8610846FEF7D0BD000000380140DD
:1028A000840600202DE9F801344802681168D268D6
:1028B00011F0010F02F4807204D01AB1C16B41F023
:1028C0000101C16301680A684969C2F3400201F06D
:1028D000010122B119B1C26B42F00402C263026865
:1028E0001268C2F3800222B119B1C26B42F0020237
:1028F000C26302681268C2F3C00222B119B1C16B8F
:1029000041F00801C16302681168D368C1F3401146
:1029100003F02003012469B163B15168CBB21849B7
:102920008D783DB90025174E3C2B13D0CF78012F61
:1029300014D00D621168D1681168D168C16B00298B
:1029400018D011685168009180F83940BDE8F8014D
:10295000FEF772BDCC7033700C62EBE70F6AF35573
:102960007F1C0F627F2F00D98C703E2BE2D18C70C0
:10297000CD70DFE7BDE8F801704700008406002055
:1029800000000020440100200949084AC1E9002054
:10299000002088600C22C860C1E9040288614FF4FD
:1029A0000040C8610846FEF748BD000000440040F2
:1029B000C4060020FEE700000FB4054B10B503A9C4
:1029C000044A029800F018F810BC5DF814FB0000EF
:1029D0003D2D0008C000002002E008C8121F08C1F9
:1029E000002AFAD170477047002001E001C1121F90
:1029F000002AFBD1704700002DE9FF4F8BB08846BD
:102A00000546002606E025280BD0DDE90D1290478B
:102A10006D1C761C28780028F5D10FB03046BDE833
:102A2000F08F0024A146A2460122AE4900E00443F3
:102A300015F8013F203B02FA03F00842F7D128784D
:102A40002A2810D06FF02F022878A0F13001092930
:102A500015D809EB890102EB410144F0020400EBB7
:102A600001096D1CF0E758F8041B5FEA010903D562
:102A700044F40054C9F1000944F002046D1C2878A4
:102A80002E2817D115F8010F44F004042A280ED07F
:102A90006FF02F022878A0F1300109290AD80AEB3B
:102AA0008A0102EB410100EB010A6D1CF2E758F8C4
:102AB00004AB6D1C28786C280FD006DC4C2817D08E
:102AC00068280DD06A2814D104E0742810D07A2820
:102AD0000FD10DE044F400140AE044F4801401E046
:102AE00044F440146978814202D104F580146D1CCD
:102AF0006D1C2878692865D006DC00288DD06328F5
:102B000027D0642806D15DE06E2808D073282AD02B
:102B1000752877D0DDE90D129047761CE0E0C4F30C
:102B20000250022809D003280DD0D8F8001004283C
:102B30000DD00E6008F10408D2E0D8F80010F217AA
:102B4000C1E90062F6E7D8F800100E80F2E70E70D7
:102B5000F0E718F8041B8DF8001000208DF8010034
:102B6000EB46012003E058F804BB4FF0FF3061074B
:102B70004FF0000701D40AE07F1C57450DDA874269
:102B8000FADB1BF807100029F6D106E07F1C87420C
:102B9000FCDB1BF807100029F8D1DDE90D23A9EBB8
:102BA00007008146214600F0B1F83044C61904E020
:102BB000DDE90D121BF8010B90477F1EF8D221466C
:102BC000484688E058F8040BC4F302514FF00A0B52
:102BD000032900D100B2042900D140B2002802DA52
:102BE00040422D2102E0210505D52B218DF824102E
:102BF000012104E006E0E10710D02021F6E708AF4C
:102C0000089113E058F8040BC4F302514FF00A0B7B
:102C1000032900D180B2042900D1C0B20021EEE71F
:102C20005946FDF7ADFA303107F8011D0028F7D1FC
:102C3000ADEB070000F1200B600702D524F48034CF
:102C400001E04FF0010ADA4502DDAAEB0B0000E0DB
:102C50000020824600EB0B0108980144A9EB01001B
:102C60000A90E00306D4DDE90D2321460A9800F01E
:102C70004DF806444FF0000908E009A911F80900D1
:102C8000DDE90D12904709F10109761C0899894583
:102C9000F3DBE0030CD5DDE90D2321460A9800F0B3
:102CA00035F8064404E0DDE90D1230209047761C2B
:102CB000BAF10001AAF1010AF5DC05E0DDE90D1227
:102CC00017F8010B9047761CBBF10001ABF1010B2B
:102CD000F4DC0A982146DDE90D2300F005F80644EE
:102CE0006D1C97E6092801002DE9F04104460025F6
:102CF0001E461746880404D405E039462020B04714
:102D00006D1C641EF9D52846BDE8F0812DE9F0411F
:102D1000044600251E469046C80301D5302700E032
:102D20002027880404D505E041463846B0476D1C8D
:102D3000641EF9D52846BDE8F081000013B54FF6B2
:102D4000FF742346012269460548FEF70BFC044840
:102D50002346012269464030FEF704FC00981CBD62
:102D6000840600200EB5FDF771FBFFF703FBFEF7AD
:102D7000FFFD4FF416542046FFF780FD2046FFF775
:102D800003FEFEF77FFCFEF7A9FFFDF727FAFEF72B
:102D9000D3FDFEF777FEFEF7EEFF40F6B830FDF705
:102DA00041FAFEF76BFFFFF7E3F80D4D0D4C0026DF
:102DB000687B0128FCD1FFF787F9012803D00AA01E
:102DC000FFF7FAFDF4E76E732079A27961798DE857
:102DD0000700E3786278217809A0FFF7EDFDE7E7C7
:102DE00000000020B0000020B6C1C8A1CAB1BCE4F8
:102DF000CAA7B0DCA3A1A3A1A3A10D0A00000000F3
:102E000054696D653A22323025642D25642D256480
:102E10002025643A25643A2564220D0A000000004A
:102E200000000000000000000000000000000000A2
:102E30000000000000001FCC000C0000000000009B
:102E40000000080030006000080030006000000052
:102E5000022003FC1E20022003FC1E200220000092
:102E600000000E1811043FFF10840C7800000000D1
:102E70000F0010840F3800C0077818840078000015
:102E800000780F8410C411240E9800E40084000818
:102E90000800680070000000000000000000000052
:102EA00000000000000007E01818200440020000A5
:102EB000000040022004181807E000000000000095
:102EC0000240024001800FF00180024002400000F9
:102ED0000080008000800FF80080008000800000EB
:102EE0000001000D000E00000000000000000000C6
:102EF0000000008000800080008000800080008052
:102F00000000000C000C00000000000000000000A9
:102F10000000000600180060018006001800200074
:102F2000000007F0080810041004080807F000006B
:102F30000000080408041FFC000400040000000056
:102F400000000E0C10141024104411840E0C00000C
:102F500000000C1810041104110412880C700000F9
:102F6000000000E00320042408241FFC00240000CB
:102F700000001F98108411041104108810700000C4
:102F8000000007F008881104110418880070000080
:102F900000001C00100010FC13001C0010000000BA
:102FA00000000E3811441084108411440E380000C3
:102FB00000000700088C10441044088807F0000047
:102FC000000000000000030C030C000000000000E3
:102FD00000000000000101060000000000000000E9
:102FE00000000080014002200410080810040000C6
:102FF00002200220022002200220022002200000E3
:1030000000001004080804100220014000800000A5
:1030100000000E001200100C106C10800F00000059
:1030200003E00C1813E4142417C4082807D0000088
:103030000004003C03C41C40074000E4001C0004E2
:1030400010041FFC1104110411040E88007000000C
:1030500003E00C1810041004100410081C100000E9
:1030600010041FFC100410041004080807F00000EE
:1030700010041FFC1104110417C4100408180000E8
:1030800010041FFC1104110017C0100008000000FC
:1030900003E00C181004100410441C7800400000D9
:1030A00010041FFC10840080008010841FFC10049A
:1030B0000000100410041FFC1004100400000000A5
:1030C00000030001100110011FFE1000100000009D
:1030D00010041FFC110403801464181C1004000069
:1030E00010041FFC1004000400040004000C000085
:1030F00010041FFC1F0000FC1F001FFC1004000038
:1031000010041FFC0C04030000E010181FFC10004A
:1031100007F00808100410041004080807F0000065
:1031200010041FFC10841080108010800F0000001D
:1031300007F0081810241024101C080A07F20000D9
:1031400010041FFC1104110011C011300E0C0004FA
:1031500000000E1C11041084108410441C38000060
:103160001800100010041FFC1004100018000000CC
:1031700010001FF810040004000410041FF81000D1
:1031800010001E0011E0001C007013801C001000D5
:103190001FC0103C00E01F0000E0103C1FC00000FA
:1031A0001004180C163401C001C01634180C100499
:1031B00010001C00130400FC13041C00100000008D
:1031C0000804101C1064108413041C041018000060
:1031D0000000000000007FFE4002400240020000AC
:1031E000000030000C0003800060001C00030000A1
:1031F00000004002400240027FFE0000000000008C
:1032000000000000200040004000400020000000BE
:1032100000010001000100010001000100010001A6
:1032200000004000400020000000000000000000FE
:1032300000000098012401440144014400FC000402
:1032400010001FFC008801040104008800700000C9
:1032500000000070008801040104010400880000DF
:103260000000007000880104010411081FFC000424
:10327000000000F8014401440144014400C800007A
:103280000000010401040FFC1104110411001800D6
:10329000000000D601290129012901C90106000009
:1032A00010041FFC008401000100010400FC000464
:1032B00000000104190419FC0004000400000000CF
:1032C0000000000300010101190119FE00000000C7
:1032D00010041FFC0024004001B4010C0104000094
:1032E0000000100410041FFC000400040000000093
:1032F000010401FC0104010001FC0104010000FCC7
:10330000010401FC008401000100010400FC000430
:10331000000000F8010401040104010400F80000A9
:10332000010101FF00850104010400880070000014
:1033300000000070008801040104010501FF000184
:103340000104010401FC008401040100018000006B
:10335000000000CC01240124012401240198000074
:1033600000000100010007F8010401040000000052
:10337000010001F8000400040004010801FC00043D
:10338000010001800170000C00100160018001004B
:1033900001F0010C003001C00030010C01F001000F
:1033A00000000104018C00740170018C0104000014
:1033B000010101810171000E00180160018001000E
:1033C00000000184010C013401440184010C00005F
:1033D000000000000000000001003EFC400240022E
:1033E0000000000000000000FFFF000000000000DF
:1033F0000000400240023EFC01000000000000000E
:10340000000060008000800040004000200020009C
:10341000010006001FFFE00000015FC1526252542C
:1034200052487FF45242524252415FC14001000073
:10343000082008220841FFFE0880090110223FE40D
:10344000EAB82AA0BFA06AA82ABA2AA9208E00003A
:10345000080008040906090409FC09080908080805
:103460000800FFC00830080888046802081F000030
:103470000000000000001FFF112231225122912282
:103480001122112211221FFF000000000000000085
:103490000208223C23C822082228221D0202080C0E
:1034A0000870FF800802080108020FFC00000000FD
:1034B000040008003200E2002A002A002A002A0044
:1034C0002A002A002A002BF0200C2002000F000006
:1034D000080210523E525294D2A45328574A5A918D
:1034E000527E5220725012881E0400020002000018
:1034F0000008130C10E8900870701790101000FF6F
:1035000000820082FF820882088208FF0800000013
:10351000002004201820E3E0222022202220222064
:103520003FFF2220222022202220202000200000F5
:1035300000010002000C7FF04440444044404440FD
:1035400044404440444244417FFE000000000000EB
:103550000000000000007FFF4102410241024102E1
:103560004102410241027FFF000000000000000014
:1035700000804080408048804680408040807FFFBF
:103580004080408042804C8040804080008000002D
:103590000408040C0408FFF00410041004000808D8
:1035A0003208D1901022104110021FFC00000000D0
:1035B0003FFC248824883FFC0111462255D44C4806
:1035C00044706400945884488DFFB4480648000055
:1035D00000003FFC2108210821083FFC00000800F2
:1035E0000880086008020801FFFE080008000000CB
:1035F00002000200420033FC00090211050279C2F8
:10360000413441084114796205820401040100003B
:103610000002E802A802ABFEAAAAEAAAAAAABEAAC7
:10362000AAAAEAAAAAAAABFEA802E802000200001F
:10363000040008003200E2002A002A002A002A00C2
:103640002A002A002A002BF0200C2002000F000084
:1036500008200620407E31800002007E7F424942E1
:10366000497E4942497E49427F42007E0002000075
:1036700008200620407E318000227F12490A49FE40
:103680004902490249FE490A7F1200220002000055
:103690000002000C3FF12401242124323FAAA4A4FB
:1036A00064A424A43FAA24322401240120010000A0
:1036B000000100067FF8400241024102410241023E
:1036C0005FFE410241024122411A410240020000D4
:1036D00000007FFF401044085B1060E010101310E2
:1036E0001D10F11017FF1110111011101010000013
:1036F000000100067FF8400048044408433040C001
:1037000043304C0C40007FF0000C0002001F000012
:1037100000001FFF10001000300053F8921012102C
:10372000121013F81000100210011FFE000000001C
:1037300002000202420433F8000420122F22294220
:103740002982FFFA298229422F222012000200003A
:103750000408040C0408FFF00410041001001FFC0E
:1037600001020202FFFA044208220FC2001E0000FA
:103770000100020104020904111861E001000102C4
:103780000101C10231FC0800040002000100000038
:10379000400047FF440044004490444844007FFEFA
:1037A0004400449044484402440147FE4000000065
:1037B0000400040104017DF555555555555555FF37
:1037C0005555555555557DF504010401040000007B
:1037D00000042004200420042004200420043FFCD2
:1037E00020042004200420042004200400040000FD
:1037F0000080010006001FFFE00002000C00F00046
:103800001FFF1110111011101110101010000000E6
:10381000100010011002100410181FE09100710038
:1038200011021101110211FC100010001000000023
:10383000000808100820084008900B100C10FFFF2B
:103840000C100B1008900840082008100008000019
:10385000082008C00B00FFFF090008C100067FF820
:103860004000400040007FFC00020002001E0000FB
:1038700020402080210027FF3800E04024402442DF
:10388000244124FE254026402440204020400000C2
:10389000010006001FFFE100210019FE002404487A
:1038A000248025FFFE9224922C9214FF2400000015
:1038B00000007FFE40024002401248224442428201
:1038C000410242824442583240024002000200005B
:1038D000000000041808683108C10B011D82E9626C
:1038E000091409080914492229C20801000100002D
:1038F00002000202420433F800041102910A71121C
:1039000011621F8211423122D11A110201020000FC
:10391000048008803480E7FE2484248800000FE0BF
:1039200008400840FFFF084008400FE0000000008A
:103930002410246025807FFFC4804460008103013F
:103940001C020002FFE40008103008C0060000005E
:103950002040218027FE3A08220823FC00014FF175
:10396000492A49247FFA492249214FE140010000B8
:103970000080010006001FFFE000014006403840C3
:1039800008400840FFFF0840084008400040000091
:10399000010041014102410C7FF041004100410022
:1039A000410041007FFF4100410041000100000053
:1039B000080208440FA8F81008680F8400000200ED
:1039C000077F1A42E24202420A42067F03000000D9
:1039D000048008803480E7FE2484248802013C822D
:1039E000088C08B0FFC008B0088C08820081000075
:1039F000000010401080910053FF148019600000F7
:103A00000000FFFF04000200010000C000000000F1
:103A10000080010006001FFFE2000C224827292A2F
:103A20000932F9220922292A48260A230C0000001B
:103A300004440CE63544C648044818481000127F78
:103A400012421242FE4212421242127F1000000045
:103A50002002200227E42444244824502460FFFF4D
:103A6000246024502448244427E42002200200003B
:103A700000024002400243FE4002400240027FFE3C
:103A800041024102410241024102400200020000A3
:103A900000040406040404080408FFFF00000000FA
:103AA0000000FFFC0202040208021002001E0000D7
:103AB000082008C00B00FFFF090008800101120167
:103AC00014C290347008103414C2120111010000A5
:103AD00008200620407E3180000022002AFF2AA80C
:103AE0002AA8FEA82AAA2AA92AFE2200020000006B
:103AF0000000004244444CC854D065424541467ED3
:103B0000844088409050814880C4006200000000DA
:103B100004440CE63544C6480C4800011102130C5D
:103B200015F09900710011FC15021302118E0000AE
:103B30000040044104811509364954529C9214A254
:103B40001524544436081510048004400040000039
:103B500009414A592C6A08C6FF44084A2C714A0098
:103B600001010E02F1CC103010CC1F021001000038
:103B700000080008100810081008100810081008A5
:103B800010081008100810081008000800080000AD
:103B90000200020002000200020002000200FFFF19
:103BA0000200020002000200020002000200000007
:103BB00060009000900067E01FF8300C2004400285
:103BC0004002400240024002200478080000000049
:103BD00000000000300048004800300000000000F5
:103BE00000000000000000000000000000000000D5
:103BF00004001800107C5740354015401540F5FF73
:103C0000154015403548574410781400180000003E
:103C100002000200420033FE0004000820002000E1
:103C2000200220013FFE2000200020002000000094
:103C30000000000000080480100440200420C0049C
:103C40001300040C0004770207C3C20E00E400183E
:103C50000400200801C0301F00E0398780017C008B
:103C6000017E000101C001007001401801800C03B9
:103C7000000401000400000000000000001000200B
:103C8000182020201820200C7FC0000020000010E9
:103C90000000080FFF0808030808020C10040C308D
:103CA000040420000407FFE40400040400040401E9
:103CB0000404018C0FFF0C00000800000800000045
:103CC00000000000040000180000200000C00007F1
:103CD000FFFE3C800030000024000204020204FCCD
:103CE000040445840444480444307FFFF03FFE1838
:103CF00004440804440C04440404FE0604FC0604C2
:103D000000040000000000000000000000020000AD
:103D10000C0000703FFFC01FC200104200104200A4
:103D200010420010420010420010421C1FFFFC1005
:103D3000420010420010420010420410420410429F
:103D4000063FFFFE10000000000000000000000021
:103D50000000000000000000000000000000000063
:103D60000000000000000000000003C003C00FF0CE
:103D70000FF008100FF00FF008100FF00FF0081000
:103D80000FF00FF008100FF00FF00000000000001F
:103D90000000000000000000000000000000000023
:103DA0000000000000000000000003C003C00FF08E
:103DB0000FF008100810081008100FF00FF008108E
:103DC0000FF00FF008100FF00FF0000000000000DF
:103DD00000000000000000000000000000000000E3
:103DE0000000000000000000000003C003C00FF04E
:103DF0000FF008100810081008100810081008101C
:103E00000FF00FF008100FF00FF00000000000009E
:103E100000000000000000000000000000000000A2
:103E20000000000000000000000003C003C00FF00D
:103E30000FF00810081008100810081008100810DB
:103E40000810081008100FF00FF00000000000002C
:103E5000030406080C1018203000000000000000C9
:103E60000001020304060708090000000001020324
:103E700004000000943E000800000020C400000080
:103E8000D8290008583F0008C4000020440A000058
:103E9000E829000800000000000000000000000009
:103EA0000000000000000000000000000000000012
:103EB0000000000000000000000000000000000002
:103EC00000000000000000000000000000000000F2
:103ED00000000000000000000000000000000000E2
:103EE00000000000000000000000000000000000D2
:103EF00000000000000000000000000000000000C2
:103F000000000000000000000000000000000000B1
:103F100000000000000000000000000000000000A1
:103F20000000000000000000000000000000000091
:103F30000000000000000000000000000000000081
:103F40000000000000000000000000000048E80140
:083F5000000000000000000069
:0400000508000125C9
:00000001FF
