:020000040800F2
:10000000280B0020390100082B3000087D2A000849
:1000100029300008310A000865640008000000006B
:10002000000000000000000000000000015A00086D
:10003000011000080000000085530008035A000862
:100040005301000853010008530100085301000840
:100050005301000853010008530100085301000830
:100060005301000853010008530100085301000820
:100070005301000853010008530100085301000810
:100080005301000853010008530100085301000800
:1000900053010008530100085301000853010008F0
:1000A00053010008530100085301000853010008E0
:1000B00053010008530100085301000853010008D0
:1000C00053010008530100085301000853010008C0
:1000D00053010008496200085563000853010008F5
:1000E00015100008F15700085301000853010008DB
:1000F0005301000853010008530100085301000890
:10010000530100085301000853010008530100087F
:1001100053010008530100085301000800000000CB
:1001200053010008DFF80CD000F012FA0048004735
:10013000C16B0008280B002006488047064800478E
:10014000FEE7FEE7FEE7FEE7FEE7FEE7FEE7FEE787
:10015000FEE7FEE7A95A000825010008D2B201E037
:1001600000F8012B491EFBD270470022F6E710B5BC
:1001700013460A4604461946FFF7F0FF204610BD15
:10018000CAB2401E10F8011F8A4202D00029F9D1DC
:1001900000207047421C10F8011B0029FBD1801A77
:1001A0007047000070B50F4D00B92868002412E0B8
:1001B0000A4602E09E4203D0521C1378002BF9D16C
:1001C000DAB2224305D02BB124B1002100F8011B83
:1001D00004E00446401C0678002EE9D12860204641
:1001E00070BD0000C400002001F0004330B421F0D5
:1001F000004150EA010206D00A0DA2F56072C1F377
:100200001301002A02DC30BC00207047440F44EA8E
:10021000C104C100E01830BC00EBC25000F080B84F
:100220002DE9F05F0546002092469B46884606462B
:10023000814640241BE0284641464746224600F0BE
:10024000A8F953465A46C01A914110D31146184690
:10025000224600F08FF92D1A67EB01084F4622461F
:100260000120002100F086F917EB00094E41201E05
:10027000A4F10104DFDC484631462A464346BDE886
:10028000F09F00000FB4002300B589B00CA90091C5
:100290000B996FF00042CB601E4B06931E4B0793E9
:1002A0000423CDE901321D4A089202466B46002024
:1002B00000F004FA09B05DF814FB70B586B006468C
:1002C0004FF0FF300091CDE90101002015460C46AA
:1002D00004903246694604A8FFF7D4FF0346049809
:1002E000211825B108B10A4600E022462A600028FC
:1002F0000DD0002B02DD0098884208D0081B009426
:10030000CDE901043246694604A8FFF7BBFF06B0F9
:1003100070BD0000F508000813090008B3050008C7
:100320000029A8BF7047401C490008BF20F0010009
:10033000704710B4B0FA80FC00FA0CF050EA0104E7
:1003400004BF10BC704749B1CCF1200421FA04F479
:1003500011FA0CF118BF012121430843A3EB0C0152
:10036000CB1D4FEA00614FEA102042BF002010BCB5
:10037000704700EBC35010440029A4BF10BC704765
:10038000401C490008BF20F0010010BC70472DE957
:10039000FE4F81EA030404F0004421F00041009480
:1003A0004FF0000B23F0004350EA01045ED052EA04
:1003B00003045BD0C3F30A54C1F30A552C44A4F2DE
:1003C000F3340194A0FB0254C1F3130141F48011F2
:1003D000C3F3130343F4801301FB024400FB034EF9
:1003E000840A970A44EA815447EA8357A4FB0768C2
:1003F00002958D0A05FB07854FEA932C04FB0C54EC
:100400002705029D4FEA065847EA1637B5EB08055F
:100410006EEB070C870E920E47EA811742EA8312B1
:10042000A7FB0201B6EB0B0164EB00042B0D43EAC2
:100430000C335E1844EB1C50DA465146E7FB0201D0
:10044000C5F313044FEA0B3343EA14534FEA043263
:10045000019C43EA0603A4F10C040294009CCDE93C
:1004600000B400F076FA03B0BDE8F08F002001463A
:10047000F9E72DE9F04D81EA030404F0004B21F087
:10048000004514464FF0000A23F0004150EA0502EF
:1004900020D054EA01021DD0C5F30A570246C5F325
:1004A0001303C1F31300C1F30A5640F4801543F45B
:1004B0008013A7EB0608101BD64608F2FD3873EB35
:1004C000050002D308F1010801E092185B41B8F180
:1004D000000F03DA00200146BDE8F08D00204FF444
:1004E0008011064684460EE0171B73EB050705D303
:1004F000121B63EB050306434CEA010C49084FEA63
:10050000300092185B4150EA0107EDD152EA030036
:1005100012D082EA040083EA0501084305D0101BCB
:10052000AB4106D20122002306E000224FF0004337
:1005300002E06FF0010253101AEB06004CEB085179
:1005400010EB0A0041EB0B01BDE8F04D00F0F2B9F1
:10055000064C074D06E0E06840F0010394E8070010
:1005600098471034AC42F6D3FFF7E0FD2C8B00081F
:100570004C8B0008202A04DB203A00FA02F100200C
:1005800070479140C2F1200320FA03F319439040D1
:100590007047202A04DB203A21FA02F0002170473C
:1005A00021FA02F3D040C2F12002914008431946DB
:1005B0007047C0B24FF4F05100F01ABA2DE9FF4F66
:1005C000087881B09946FF2805D0491C2D2804D011
:1005D0000024002308E000230BE00124F9E703EBEB
:1005E000830300EB4303491C0878FF28F7D104B1CB
:1005F0005B4200200090147801462D2C01D02B2C5A
:1006000004D1521C2D2C12D0002400940025167801
:10061000FF2E0ED00A24A0FB04C801FB0481002792
:1006200000FB0711521C16EB0C006941EFE7012497
:10063000EBE7994450EA01020ED00024AA4D264669
:10064000DFF8A88200F0E8F982468B46B9F1000095
:1006500009DAC9F100071BE001980021C0E9001187
:1006600005B0BDE8F08F074612E0F80707D0224634
:100670002B4630464146FFF78AFE0646884622460C
:100680002B4610461946FFF782FE04460D467F10A2
:10069000002FEAD1B9F1000F324643465046594681
:1006A00002DAFFF7E6FE01E0FFF771FE009A0AB1F9
:1006B00081F00041019AC2E90001D1E72DE9FF4F25
:1006C0001F468DB0D7E901464FF0FF382E20454632
:1006D0004FF000090B90B9696D1C0E988847396A74
:1006E000824688470028F6D1BAF1FF3F0AD024F4A9
:1006F000D064002E11DDBAF12B0F08D0BAF12D0F06
:100700000BD102E0404611B0ABE744F48064B96914
:100710006D1C0E9888478246761E6946600501D595
:100720002D2000E02B208DF8000001F1010B0DF1D0
:10073000200809E0B9696D1C0E98884782460F9819
:1007400044F40074761E0560002E02DDBAF1300F0D
:10075000F0D00B998A453ED144F0800406E00F9911
:10076000681CA9F1010944F400740860B9696D1CA2
:10077000761E0E98884782463028F0D02BE00B99E1
:100780008A4505D1200603D444F08004761E18E083
:10079000504605F0A7FF08B30DF11301761E44F48F
:1007A00000748B4508D2AAF130000BF8010B20062B
:1007B00007D5A9F1010003E0200602D409F10100E8
:1007C0008146A00502D50F99681C0860B9696D1CA7
:1007D0000E9888478246002ED1DC53E0002E51DD72
:1007E000BAF1650F02D0BAF1450F4BD1A00549D53A
:1007F000B9696D1C24F44074761E0E9888478246B1
:10080000002E0CDD2B2804D0BAF12D0F07D144F4B3
:100810008074B9696D1C0E9888478246761EE00583
:1008200001D52D2100E02B2108F8011BCDF82C80EB
:1008300021E00DF12901761E44F4007488450CD2A4
:10084000AAF1300010F0FF0088F8000002D10B99E7
:10085000884509D908F1010806E0E00501D52448DA
:1008600001E042F20F708146B9696D1C0E9888470D
:1008700082460F980560002E04DD504605F032FFD9
:100880000028D6D1F9690E988847FF208BF8000020
:1008900088F800000020069007904B466A4608A999
:1008A00006A8FFF78BFEA00502D46FF001002AE72F
:1008B00014F0240F0AD0E00714D1DDE906123868DD
:1008C000031D3B600068C0E900120BE0DDE9060192
:1008D000FFF78AFC0146E00704D13868021D3A6040
:1008E0000068016028460EE7000024400000F03F49
:1008F000F1D8FFFF426842B1016811F8013B23B112
:10090000521EC0E90012184670470121C160881EBE
:10091000704742685AB1C368016843B983688B4223
:1009200005D0491E521CC0E90012002070474FF04C
:10093000FF30704710B5141E73F1000408DA401C34
:1009400041F1000192185B411A4301D120F00100EE
:1009500010BD2DE9F04D92469B4611B1B1FA81F2DE
:1009600002E0B0FA80F220329046FFF703FE044620
:100970000F4640EA0A0041EA0B0153465A46084333
:1009800013D0114653EA010019D0C8F14002504675
:10099000FFF7FFFD05460E46504659464246FFF713
:1009A000E9FD084305D0012004E020463946BDE8B2
:1009B000F08D0020054346EAE0762C4337430A9841
:1009C0006305E40AA0EB08000022FD0A44EA47544C
:1009D0000A3002D500200146E9E7010510196941F6
:1009E000DDE9084500196941BDE8F04DA2E70000C6
:1009F0007F2801D9002208E0064A02EB5002C00716
:100A0000127800D1120902F00F0201209040084034
:100A100070470000E98A00080EB540F233420292A6
:100A20000022CDE900221346FFF793FF03B000BD7B
:100A3000FEE7000070B532483249334C807A334DBE
:100A40000B7820B1012815D0022832D054E030A212
:100A50008021314805F016FE00232F4A202148202E
:100A600003F056FF23782AA280212B4805F00AFEC6
:100A7000012311E026A28021274805F003FE01236F
:100A8000254A2021482003F043FF237820A280211B
:100A9000214805F0F7FD00231F4A2021502003F0D4
:100AA00037FF2B781AA280211B4805F0EBFD0123AC
:100AB0001DE017A28021184805F0E4FD0123164A25
:100AC0002021482003F024FF237811A2802112481E
:100AD00005F0D8FD0123104A2021502003F018FF13
:100AE0002B780BA280210C4805F0CCFD00230A4A8C
:100AF0002021602003F00CFFBDE8704003F066BDCC
:100B000000000020A7000020AE000020B50000205B
:100B10002530317500000000A4060020F8B5914C86
:100B2000A07801287ED19048FFF734FB45287AD180
:100B30008D498EA005F096FD8B483C218038FFF74B
:100B40001FFB8DA1A063FFF72DFBA0662C21A06BDE
:100B5000FFF716FB89A1E063FFF724FBE0662C2179
:100B6000E06BFFF70DFB86A12064FFF71BFB2067FE
:100B70002C21206CFFF704FB81A16064FFF712FBBE
:100B800060672C21606CFFF7FBFA7DA1A064FFF782
:100B900009FBA0672C21A06CFFF7F2FA78A1E064B2
:100BA000FFF700FBE0672C21E06CFFF7E9FA74A186
:100BB0002065FFF7F7FA04F180052C212860206DED
:100BC000FFF7DEFA6EA16065FFF7ECFA68602C2192
:100BD000606DFFF7D5FA6AA1A065FFF7E3FAA86098
:100BE0002C21A06DFFF7CCFA65A1E065FFF7DAFADA
:100BF000E8602C21E06DFFF7C3FA61A12066FFF7E2
:100C0000D1FA28612C21206EFFF7BAFA5BA1606649
:100C1000FFF7C8FA686105F0A9FFFFF7E5FA60621F
:100C2000584801E09DE092E0007820B1012813D0FF
:100C300002281BD083E0012310214820E26E03F03C
:100C400067FE012320214820226F03F061FE01236B
:100C500030213820626F70E0012310215820A26FEC
:100C600003F056FE01232021E26F65E0E0893D4953
:100C7000208260822C31A0828B78042B00D1E0820C
:100C8000E58A421B92B22282632A05D96425B2FB0F
:100C9000F5F605FB162222824A7812B9042B00D100
:100CA0002083268B851B65820978002953D000217B
:100CB000002A52D000221140042B50D000221142B1
:100CC00000D06083618B0A25401AA082218A2EA25F
:100CD000B1FBF5F0B1FBF5F305FB1010009080219E
:100CE0002C4805F0CFFC01232A4A1021582003F09C
:100CF0000FFE618A24A2B1FBF5F0B1FBF5F305FB11
:100D0000101000908021234805F0BCFC0123214AEB
:100D10002021502003F0FCFDA08A1BA2B0FBF5F1BE
:100D2000B0FBF5F305FB110100918021194805F096
:100D3000A9FC0123174A3021482003F0E9FD0020D7
:100D4000E0612070084880218038FFF70EFABDE886
:100D5000F84003F03BBC0121AAE70122ABE70122E6
:100D6000ADE7F8BD0000002050010020CAFDBEDD47
:100D7000A3BA25730D0A00003C2C3E002C3E000057
:100D80002C0000009D000020253031752E253031CB
:100D900075000000A406002070B55E4C8CB0A078F1
:100DA00001287DD15C48FFF7F5F90026452878D168
:100DB00059495AA005F056FC57483C218038FFF7A6
:100DC000DFF959A1A063FFF7EDF9A0662C21A06B14
:100DD000FFF7D6F955A1E063FFF7E4F9E0662C21AF
:100DE000E06BFFF7CDF952A12064FFF7DBF9206734
:100DF0002C21206CFFF7C4F94DA16064FFF7D2F9F4
:100E000060672C21606CFFF7BBF949A1A064FFF774
:100E1000C9F9A0672C21A06CFFF7B2F944A1E064E6
:100E2000FFF7C0F9E0672C21E06CFFF7A9F940A1BA
:100E30002065FFF7B7F904F180052C212860206DAB
:100E4000FFF79EF93AA16065FFF7ACF968602C21C5
:100E5000606DFFF795F936A1A065FFF7A3F9A860CB
:100E60002C21A06DFFF78CF931A1E065FFF79AF90D
:100E7000E8602C21E06DFFF783F92DA12066FFF7D4
:100E800091F928612C21206EFFF77AF927A160667D
:100E9000FFF788F9686105F069FEFFF7A5F901E041
:100EA00036E029E0606205F108000DF11C0C0FC866
:100EB0008CE80F00D5E90023D4E91E0103AD85E8D5
:100EC0000F0004F16C0007C88DE8070019A280210B
:100ED0001F48A36E05F0D6FBA06A1D4BC0EB801027
:100EE00081B24022A42000F099F80B48E6612670F8
:100EF00080218038FFF739F9A06A401CA062B0F564
:100F0000FF6F00D9A6620CB0BDE8704003F05EBB75
:100F10000CB070BD0000002050010020CAFDBEDDF5
:100F2000A3BA25730D0A00003C2C3E002C3E0000A5
:100F30002C0000005B25732C257325732573257306
:100F400025732573257325732573257325735D001C
:100F5000A40600201CB51E4882784178CDE9001215
:100F600003781CA280211F4805F08CFB01231D4A39
:100F70000021102003F0CCFC1B48406A10F0FF4F0A
:100F800004D01A49884208DA032218E0012318A283
:100F90000021682003F0BCFC15E0144949424218C6
:100FA00014498A4201D8022209E0134A02448A42C3
:100FB00001D2012203E01149884204DB0022002112
:100FC000602003F03BFABDE81C4003F0FFBA0000CC
:100FD000D0010020253032753A253032753A25305F
:100FE00032750000A4060020000000200000E04050
:100FF0002F2F2F0066660600999919BFCDCCEC40C3
:1010000070474007010E002001E0401CC0B288423A
:10101000FBD370474FF4006000F0FEB92DE9F041BA
:101020001E4615460C46074600F088F8384600F084
:101030004FF800F0CDF8200A00F04AF800F0C8F8A8
:10104000E0B200F045F800F0C3F8002406E0305D9F
:1010500000F03EF800F0BCF8641CE4B2AC42F6D3F9
:1010600000F090F8BDE8F0410A2000F0ABB9002292
:1010700006E00021491CC9B22029FBD3521CD2B280
:101080008242F6D37047000030B50F4887B0016840
:1010900041F00201016000684FF4404400F002009A
:1010A00005900120CDE90040002002900320074D6B
:1010B00003906946284600F0BBF9012221462846E4
:1010C00000F093FA07B030BD1C3802400004024023
:1010D0002DE9F041054600F0CBF8174F4FF40046DC
:1010E00000223146384600F080FA00244FF4804850
:1010F000280601D5012200E000224146384600F0D2
:1011000074FA6806050E0220FFF7B1FF012231468E
:10111000384600F06AFA0220FFF7A9FF00223146A4
:10112000384600F062FA0220FFF7A1FF641CE4B227
:10113000082CDDD3BDE8F0810004024070B500F05A
:1011400097F801220E4D94032146284600F04DFAEF
:101150000122D6033146284600F047FA0420FFF763
:1011600086FF00222146284600F03FFA0420FFF7C0
:101170007EFF31462846BDE87040002200F035BAB7
:101180000004024070B500F073F8104D4FF40044B5
:1011900000222146284600F028FA66100022314637
:1011A000284600F022FA0420FFF761FF01222146C1
:1011B000284600F01AFA01223146284600F015FAB6
:1011C000BDE870400420FFF752BF00000004024059
:1011D0002DE9F041002400F02DF80122144D960372
:1011E0003146284600F001FA0120FFF740FF0122B6
:1011F000D7033946284600F0F8F90120FFF737FFFA
:1012000008E0641CE4B2FA2C04D9FFF7BBFF01200C
:10121000BDE8F0813146284600F0E2F90028F0D11F
:1012200000223946284600F0E0F90020F0E70000EF
:10123000000402400C4800B5016887B041F002018B
:1012400001600068694600F0020005904FF480409C
:10125000009000200190029003200390034800F0CA
:10126000E7F807B000BD00001C380240000402404F
:101270000C4800B5016887B041F0020101600068C8
:10128000694600F0020005904FF480400090012074
:1012900001900020029003200390034800F0C8F85A
:1012A00007B000BD1C3802400004024070B53C4845
:1012B0003C4C3D4DC1793D48007821B1012925D0F4
:1012C000022944D068E010B1012803D008E00023CF
:1012D00037A201E0002337A22021482003F018FBA9
:1012E000237835A28021364805F0CCF90123344A11
:1012F0002021502003F00CFB2B782FA280213048B6
:1013000005F0C0F901232E4A202142E010B1012846
:1013100003D008E0012326A201E0012325A2102129
:10132000482003F0F5FA237823A28021244805F011
:10133000A9F90023224A1021502003F0E9FA2B7862
:101340001DA280211E4805F09DF901231FE010B168
:10135000012803D008E0012315A201E0012315A212
:101360001021482003F0D4FA237813A280211448D6
:1013700005F088F90123124A1021502003F0C8FA21
:101380002B780DA280210E4805F07CF900230C4A31
:101390001021602003F0BCFABDE8704003F016B9DC
:1013A00000000020AB000020B2000020A4000020BC
:1013B0002B0000002D0000002530317500000000DA
:1013C000A406002031B500F015F9044600F012F92A
:1013D0000099001B8842F9D338BD000070B54FF466
:1013E0000064A0420BD1094D2146284600F0F8F8D0
:1013F00030B12146284600F0F3F80548046070BD7E
:101400000449C889401CC881F7E700000000024079
:101410001404014000000020044910B50A6802428B
:1014200002D00860FFF7DAFF10BD0000140401408D
:101430002DE9F84FDFF880B100234FF0010C4FF099
:10144000030A4FF00F090BF1040EAEE00CFA03F69D
:1014500014EA060270D04C68022C01D0122C11D173
:10146000DC0800EB84073C6A5D07ED0E09FA05F81D
:1014700024EA0804D1F8108008FA05F848EA0408BC
:10148000C7F8208007685D0091F804800AFA05F427
:1014900008F00308A74308FA05F848EA0708C0F867
:1014A00000804F68012F05D0022F03D0112F01D0EB
:1014B000122F11D18768D1F80C80A74308FA05F8DC
:1014C00048EA0708C0F808804768B7430E79C6F3B2
:1014D00000169E403E434660C668A6438C68AC40FA
:1014E0003443C4604C68E4005ED5344C256845F054
:1014F00001052560246823F0030504F0010400942D
:101500002F4C2E19B4689D072F0F09FA07F5AC432D
:101510002C4DA84201D100251FE02B4DA84201D13E
:1015200001251AE0294DA84201D1022515E0284DD8
:10153000A84202D1032510E036E0264DA84201D191
:1015400004250AE0244DA84201D1052505E0234DDC
:10155000A84201D1062500E00725BD402543B5601E
:10156000DBF800405D464E689443F60300D5144313
:101570002C60DEF8004075464E689443B60300D5F3
:1015800014432C600C4D08352C684E689443F602C9
:1015900000D514432C60084D0C352C684E689443DC
:1015A000B60200D514432C605B1C0A681446DA406E
:1015B0007FF44CAFBDE8F88F0004014020380240B2
:1015C0000000014000000240000402400008024008
:1015D000000C0240001002400014024000180240BB
:1015E0000069084000D0012070470AB1816170474E
:1015F0000904FBE70148006870470000C0000020B4
:1016000002480168491C016070470000C0000020CA
:10161000094810B5016841F004010160016841F01A
:1016200002010160032000F049F80F2000F006F8E5
:1016300000F018F8002010BD003C024010B5044630
:1016400007484FF47A710068B0FBF1F001F005F93A
:1016500000222146501E00F011F8002010BD0000AD
:10166000BC000020704700F01F020121914040099A
:10167000800000F1E020C0F800117047F0B40E4B7C
:101680001B680C46C3F30223C3F10705042D00D9E0
:101690000425191D072901D2002300E0DB1E0126C5
:1016A00006FA05F1491E214099409E40761E1640DB
:1016B0003143F0BC01F0BABC0CED00E0064900F08B
:1016C000070208684FF6FF03184040EA0220034A69
:1016D00010430860704700000CED00E00000FA05C0
:1016E0000248006800F4C0507047000000700040DD
:1016F0000120010291FAA1F1024AB1FA81F142F806
:101700002100704700000E422DE9F84F04460068A2
:10171000C10701D1800778D5DFF868810027D8F8A4
:101720000000C0000BD4D8F8001041F08051C8F878
:101730000010D8F80000012700F080500090524DB2
:101740002868C00510D4286840F480702860FFF72E
:1017500051FF064605E000BFFFF74CFF801B6428E1
:101760005CD82868C005F7D5464E243E30686168CD
:1017700000F0C04001F0C042824204D1A26802F0F1
:10178000C042824209D0C1F30140032805D130682C
:10179000800302D50120BDE8F88F3A4D1035286846
:1017A00010F4403052D001F44031814202D021780F
:1017B000C90707D1A16801F44031814246D02078A1
:1017C000800743D528684FF4000292FAA2F1B1FADB
:1017D00081F14FEA810C2D494FF0010A8C4420F42D
:1017E0004030CCF880A692FAA2F2B2FA82F201EB73
:1017F00082010023C1F880362860C00526D5FFF796
:10180000F9FE81464FF4007B0AE038E0FFF7F2FE74
:10181000A0EB090141F28830814201D90320BAE7E7
:101820009BFAABF0B0FA80F040F04001BAEB511FE8
:1018300001D1316800E029689BFAABF2B2FA82F27A
:1018400002F01F020AFA02F00142DFD06068C0F322
:101850000141032906D1316800F0C04021F0C041A8
:10186000014331602868616801F440310843286011
:101870002FB1D8F8001021F08051C8F800100020D6
:1018800089E7000024380240007000400000474211
:101890002DE9F047DFF8BC8105460E46D8F8000078
:1018A00000F00100B04214D2012E05D1D8F800108A
:1018B00041F00401C8F80010D8F8001021F001012F
:1018C0003143C8F80010D8F8000000F00100B04221
:1018D00071D12878604C800705D52068A96820F070
:1018E000F000084320602878C00771D05A4A5A4B4C
:1018F00069680120083A2C33022910D003292ED020
:1019000001292FD05FEA402797FAA7FCBCFA8CFC8C
:101910004CF0200C5FEA5C1C04D0126803E04FF42A
:101920000037F1E71A6897FAA7F3B3FA83F303F0E5
:101930001F039840024262D0206820F00300084351
:101940002060FFF757FE6968074641F28830022998
:1019500010D003291CD00129814626D034E04FF055
:101960000077D1E70227CFE7FFF744FEC11B4945C7
:1019700001D926E081462068C0F381000228F3D116
:1019800026E000BFFFF736FEC11B494501D918E02C
:1019900081462068C0F381000328F3D118E000BF1E
:1019A000FFF728FEC11B49450BD82068C0F3810012
:1019B0000128F5D10CE022E0FFF71CFEC11B4945D0
:1019C00002D90320BDE8F087206810F00C0FF3D196
:1019D000D8F80010404601F00101B14211D9012EA2
:1019E00003D1016841F004010160016821F00101A7
:1019F00031430160006800F00100B04201D00120D5
:101A0000E0E72878400705D52068E96820F4E06021
:101A1000084320602878000706D52068296920F44B
:101A2000605040EAC100206000F04CF82168F022CC
:101A300092FAA2F201F0F001B2FA82F2D140074A22
:101A4000515CC840064908600F20FFF7F7FD0020F1
:101A5000B8E70000003C024008380240D18A000884
:101A6000BC00002008480949006809684FF4E0629A
:101A700092FAA2F201F4E061B2FA82F2D140044A91
:101A8000515CC84070470000BC000020083802408C
:101A9000E18A000808480949006809684FF4605263
:101AA00092FAA2F201F46051B2FA82F2D140044AF1
:101AB000515CC84070470000BC000020083802405C
:101AC000E18A00081E4A116801F00C00042813D0B6
:101AD000082813D00C2813D0101F006800F46041B0
:101AE0004FF4604090FAA0F0B0FA80F0C1404FF49B
:101AF0000040491C884070471248704712487047A0
:101B00004FF4701393FAA3F301F47010B3FA83F354
:101B1000D8400E4B01F440011268185C4FF44003AA
:101B200093FAA3F3B3FA83F3D940491CD20301D546
:101B3000054A00E0034A5043B0FBF1F07047000053
:101B4000083802400024F40000127A00C88A000815
:101B50002DE9F84F07460078FB4EFC4DC0074FF0CB
:101B6000010428D0F848083001684FF40038C1F368
:101B70008101022907D00168C1F3810103291BD12A
:101B80000068C00318D598FAA8F0B0FA80F040F0C9
:101B90002000400901D0306800E0286898FAA8F1D8
:101BA000B1FA81F101F01F0104FA01F108425CD0A1
:101BB000786800287BD058E0786801280AD008B1FE
:101BC000052811D0306820F480303060306820F46F
:101BD000802002E0306840F480303060786828B3BC
:101BE000FFF708FD81460BE0306840F4802030604C
:101BF000F0E700BFFFF7FEFCA0EB0900642872D8F5
:101C000098FAA8F0B0FA80F040F02000400901D026
:101C1000306800E0286898FAA8F1B1FA81F101F083
:101C20001F0104FA01F10842E4D01EE0FFF7E2FCD4
:101C3000814605E0FFF7DEFCA0EB09006428DED852
:101C400098FAA8F0B0FA80F040F02000400901D0E6
:101C5000306800E0286898FAA8F1B1FA81F101F043
:101C60001F0104FA01F10842E4D13878DFF8E0827C
:101C700080074FF0000B4FF002095FD5B2480830E3
:101C80000168C1F38101012907D00168C1F3810115
:101C900003291CD10068C00319D499FAA9F0B0FA3D
:101CA00080F040F02000400902D0306801E086E07A
:101CB000286899FAA9F1B1FA81F101F01F0104FA3B
:101CC00001F108422BD0F868012878D127E0F868A4
:101CD000A8B394FAA4F0B0FA80F048F82040FFF7D7
:101CE00089FC824606E066E1FFF784FCA0EB0A006F
:101CF000022884D899FAA9F1B1FA81F141F02001C2
:101D0000490901D0316800E0296899FAA9F0B0FAD0
:101D100080F000F01F0004FA00F00142E4D08A488D
:101D2000001D01684FF4F85393FAA3F33A69B3FA2C
:101D300083F321F4F8519A401143016025E0FFE755
:101D400094FAA4F1B1FA81F148F821B0FFF752FCFE
:101D5000824605E0FFF74EFCA0EB0A000228C8D837
:101D600099FAA9F0B0FA80F040F02000400901D0C3
:101D7000306800E0286899FAA9F1B1FA81F101F020
:101D80001F0104FA01F10842E4D138784FF4007AD7
:101D9000C0067CD56C480830006810F00C0F0FD0DE
:101DA000B9694FF48070002972D090FAA0F0B0FAAF
:101DB00080F048F82040FFF71DFC00907EE087E0AF
:101DC0009AFAAAF0B0FA80F040F02000400901D061
:101DD000306800E028689AFAAAF1B1FA81F101F0BE
:101DE0001F0104FA01F1084202D0B86900286FD03F
:101DF0005548396A001D006800F4604081421AD9D4
:101E0000084603F0B9FC002862D14F48001D016864
:101E10003A6A21F460411143016001684FF07F4349
:101E200093FAA3F3FA69B3FA83F321F07F419A405E
:101E30001143016018E04448001D026822F460422A
:101E40000A43026001684FF07F4393FAA3F3FA69F3
:101E5000B3FA83F321F07F419A4011430160386A5D
:101E600003F08AFC0028CFD14FF4604191FAA1F130
:101E7000386AB1FA81F1C8404FF40041401C8140FA
:101E8000314808300068F02200F0F00001E070E016
:101E900040E092FAA2F2B2FA82F2D0402D4A105CEF
:101EA000C1402D4801600F20FFF7C8FB61E000BF73
:101EB000FFF7A0FB0099401A02287CD89AFAAAF0F2
:101EC000B0FA80F040F02000400902D0306801E014
:101ED000BCE128689AFAAAF1B1FA81F101F01F0178
:101EE00004FA01F10842E3D01748001D01683A6A7C
:101EF00021F460411143016001684FF07F4393FA80
:101F0000A3F3FA69B3FA83F321F07F419A401143B6
:101F100001602EE090FAA0F0B0FA80F048F820B00E
:101F2000FFF768FB009005E0FFF764FB0099401A9B
:101F30000228C2D89AFAAAF0B0FA80F040F0200045
:101F400040090BD030680AE00038024034380240C3
:101F500000004742D18A0008BC00002028689AFA95
:101F6000AAF1B1FA81F101F01F0104FA01F108426E
:101F7000DAD13878000753D5786948B394FAA4F0D9
:101F8000B0FA80F008EB8000C0F88046FFF732FB23
:101F9000009005E0FFF72EFB0099401A02288CD82C
:101FA00099FAA9F0B0FA80F040F04000B4EB501F6D
:101FB00002D1306801E08EE0286899FAA9F1B1FAFF
:101FC00081F101F01F0104FA01F21042E2D027E092
:101FD00094FAA4F1B1FA81F108EB8101C1F880B65D
:101FE000FFF708FB009005E0FFF704FB0099401A9B
:101FF000022870D899FAA9F0B0FA80F040F04000B9
:10200000B4EB501F01D1306800E0286899FAA9F1BB
:10201000B1FA81F101F01F0104FA01F21042E3D19B
:10202000387840077BD59B484FF000090068C00016
:102030000AD49848016841F08051016000684FF06F
:10204000010900F08050009093480168C90511D43F
:10205000016841F480710160FFF7CCFA009005E05F
:10206000FFF7C8FA0099401A642834D88A480068F3
:10207000C005F5D5B86801280AD008B1052811D0E7
:10208000286820F480702860286820F4806002E0CE
:10209000286840F480702860B86848B3FFF7AAFA4F
:1020A00000900DE0286840F480602860F0E700BFF1
:1020B000FFF7A0FA0099411A41F2883081420AD80C
:1020C0009AFAAAF0B0FA80F040F04000B4EB501F4A
:1020D00002D1306801E095E028689AFAAAF1B1FAD5
:1020E00081F101F01F0104FA01F21042E0D022E078
:1020F000FFF780FA009007E0FFF77CFA0099411A99
:1021000041F2883081427DD89AFAAAF0B0FA80F084
:1021100040F04000B4EB501F02D1306801E012E003
:1021200028689AFAAAF1B1FA81F101F01F0104FAC4
:1021300001F21042E0D1B9F1000F04D05548016816
:1021400021F080510160786AE8B3DFF84891A9F185
:102150001C09D9F80010C1F38101032976D00228A7
:102160004FF080714FF0007A58460BD091FAA1F1F0
:10217000B1FA81F148F82100FFF73CFAB046074672
:1021800056466DE04FF0807191FAA1F1B1FA81F1FC
:102190008A0042495050FFF72DFAB3468046564612
:1021A00006E000BFFFF726FAA0EB0800022854D88B
:1021B00096FAA6F0B0FA80F040F02000400903D073
:1021C000DBF8000001E061E0286896FAA6F1B1FAB8
:1021D00081F101F01F0104FA01F10842E2D1D7E9CF
:1021E0000A103A6BD9F80030014323F47D031A43F7
:1021F0001143C9F800104FF0807090FAA0F0B0FAC7
:1022000080F000E029E0810024480C50FFF7F2F94B
:10221000074604E0FFF7EEF9C01B02281DD896FA26
:10222000A6F0B0FA80F040F02000400902D0DBF8C0
:10223000000000E0286896FAA6F1B1FA81F101F0F9
:102240001F0104FA01F10842E4D01FE020E000BFC2
:10225000FFF7D0F9C01B022802D90320BDE8F88F90
:1022600096FAA6F0B0FA80F040F02000400902D0C3
:10227000D8F8000000E0286896FAA6F1B1FA81F1DA
:1022800001F01F0104FA01F10842E1D10020E5E765
:102290000120E3E72438024000700040000047427C
:1022A00001A004F0DFB90000416C61726D20420DA5
:1022B0000A00000001490120487370470000002017
:1022C00010B5044600688168C9040CD5C068C00513
:1022D00009D52046FFF7EEFF2068C16801F08001B4
:1022E00061F4C071C1602068816889040CD5C06840
:1022F000800509D52046FFF7D3FF2068C16801F0AB
:10230000800161F42071C16003494FF4003008601E
:102310000120607710BD00001404014010B5006872
:102320000B4641680D480140080CD870C1F30424E5
:102330005C7001F03F049C70C1F34231197052B9D6
:1023400003F065FAD870587803F061FA58709878FD
:1023500003F05DFA9870002010BD00003FFFFF0001
:1023600010B50C460168896A89B261600168096923
:10237000C1F30E01A160006801680E480140C1F37D
:1023800005402070C1F30623637001F07F03A37042
:10239000402303EA1141E17052B903F038FA20708A
:1023A000607803F034FA6070A07803F030FAA0701F
:1023B000002010BD7F7F7F0070B5040002D0607FD9
:1023C00010B106E0012070BD00202077204600F00B
:1023D00041F8022060772168CA20486221685320B2
:1023E0004862204603F034FAFF210028206803D019
:1023F000416204206077E5E78268154B1A408260ED
:102400002268906863681843D4E904352B43184365
:1024100090602268E068106120680269238942EABE
:10242000034202612068C26822F08002C260206814
:10243000026C22F4802202642068026CA3691A43B1
:1024400002642068416201206077002070BD0000B6
:10245000BFFF8FFF10B500681C4992B0884233D18E
:102460001B48016841F080510160006800F0805015
:102470001090FFF73DF90C200090002001240990F6
:1024800005946846FFF764FB6004CDE90D400DA894
:10249000FFF73AF9A00590FAA0F00E49B0FA80F0E3
:1024A00001EB8000C0F8804600220A212920FFF7B6
:1024B000E5F82920FFF7D7F800220A210320FFF7CB
:1024C000DDF80320FFF7CFF812B010BD0028004060
:1024D00024380240000047422DE9F05F0446007FA7
:1024E0000D46012848D0012020770220607720681F
:1024F000002780684FEA4060EAB3002859DA28785C
:1025000003F085F995F8200003F081F9A87829787F
:10251000EA7840EA01406978090241EA0241084349
:1025200095F8201040EA0166E869A96906436869E0
:102530000643686840EA01082168CA2048622168A9
:1025400053204862686AFF25B0F5807F20684FF00D
:10255000030B4FF47A7A81682DD021F400718160E9
:102560002068C16801F0800161F42071C160FFF74B
:1025700041F8814655E002E00220BDE8F09F0028C6
:1025800000DBEF70287803F057F90604687803F051
:1025900053F946EA0026A87803F04EF90643E87896
:1025A00046EA004695F8200003F046F946EA006640
:1025B000BAE7EF70A6E721F4807181602068C168F6
:1025C00001F0800161F4C071C160FFF713F881462A
:1025D00006E000BFFFF70EF8A0EB0900504519D840
:1025E0002068C068C007F5D02068C6612168C1F8BE
:1025F00044802068816841F480718160206881682E
:1026000041F480511FE000BFFEF7F4FFA0EB09008A
:10261000504506D92068456284F81DB0277703200D
:10262000ABE72068C0688007EED5206806622168A5
:10263000C1F848802068816841F400718160206899
:10264000816841F4005181600848016841F400311B
:10265000016006480830016841F4003101602068DB
:102660004562012060772777002086E7000401405B
:102670002DE9F0470446007F0B46012825D04FF096
:10268000010984F81C9002206077587802B303F0A7
:10269000BEF8987803F0BBF89878D97840EA0145FD
:1026A00058781978000240EA413005432168CA2071
:1026B0004862216853204862204603F0C9F800268A
:1026C000FF274FF0040838BB19E00220BDE8F0876F
:1026D000C10603D500F0EF000A305870D87803F037
:1026E000ABF80204587803F0A7F842EA0022987881
:1026F00003F0A2F80243187842EA4035D6E70D48C5
:102700000540206845602068C16821F08001C160F3
:10271000204600F085F830B12068476284F81D80BB
:1027200026770120D2E72068476284F81D9026773B
:102730000020CBE73FFFFF002DE9F0470446007F74
:102740000D46012811D04FF0010A84F81CA0022088
:1027500060772068002680684FEA406042B1002818
:102760001ADA287803F053F817E00220BDE8F08762
:10277000002800DBEE70287803F05EF80204687829
:1027800003F05AF842EA0022A87803F055F8024311
:10279000E87842EA00470AE0EE70A878297840EA33
:1027A00001476878E978000240EA01400743216860
:1027B000CA204862216853204862204603F048F846
:1027C0004FF0FF084FF00409C0B9144807402068D3
:1027D00007602068816821F480218160D5E90301C8
:1027E000084321688A68104388602068C16821F026
:1027F0008001C160204600F013F838B12168C1F8AB
:10280000248084F81D9026770120AFE72168C1F865
:10281000248084F81DA026770020A7E77F7F7F0013
:1028200070B5044600688168890614D4C16821F037
:10283000A001C160FEF7DEFE05464FF47A7606E0A1
:10284000FEF7D8FE401BB04201D9032070BD2068BE
:10285000C0688006F4D5002070BD10B5401EB0F1F0
:10286000807F01D3012010BD4FF0E02460610F2173
:10287000601700F0DBFB0020A06107202061002032
:1028800010BD704770B5040004D094F839000025DD
:1028900010B106E0012070BD84F83850204600F0E9
:1028A00021F8022084F839002068C16821F4005121
:1028B000C160204603F02EFB2068016921F490419D
:1028C00001612068416921F02A0141612068C168E5
:1028D00041F40051C160E563012084F83900002013
:1028E00070BD0000F0B52D4F02682D490223012470
:1028F000032507262B4887B0BA4223D10A1D176843
:1029000047F480471760126802F4804205920A6813
:1029100042F001020A60096801F0010105916902B3
:102920008DE87A006946FEF783FD1F480068C1689C
:1029300041F02001C16000220E212520FEF79EFEFD
:10294000252027E0194FBA4226D1154A08321768C8
:1029500047F400371760126802F4003205920A68E3
:1029600042F001020A60096801F0010105910C21A1
:102970008DE87A006946FEF75BFD0B484030006841
:10298000C16841F02001C160002211462620FEF7F7
:1029900075FE2620FEF767FE07B0F0BD0038014047
:1029A0001C380240000002400402002000440040A5
:1029B0002DE9F047044690F8390099460D46012864
:1029C00001D0222858D12DB322B394F83800012821
:1029D00052D0012684F838600027E76394F8390064
:1029E00022281AD05FF0120084F83900A284E28411
:1029F0004FF48058E08C4B46401EE084A0684FF0B6
:102A0000000240454FF08001204613D103F0D2FB75
:102A100008BB04E00120BDE8F0873220E4E7288805
:102A20002168C0F308004860206908B16D1C08E007
:102A3000AD1C06E003F0BEFB68B9216815F8010B78
:102A40004860E08C0028D5D14B460022402120462A
:102A500003F0B0FB08B10320DDE794F83900322819
:102A600006D084F8396000BF84F838700020D2E7BF
:102A7000222084F83900F7E70220CCE7FEE70000C7
:102A800070B5104D4FF40054002221462846FEF741
:102A9000ACFD02F019FF002261102846FEF7A5FDEB
:102AA0000220FEF7AEFA012221462846FEF79DFDE0
:102AB0000220FEF7A6FA21462846BDE87040002213
:102AC000FEF793BD0004024030B50F4887B001689F
:102AD00041F00201016000684FF4405400F0020030
:102AE00005900120CDE90040002002900320074D11
:102AF000039069462846FEF79BFC012221462846A2
:102B0000FEF773FD07B030BD1C38024000040240E0
:102B100070B5104D4FF40054002221462846FEF7B0
:102B200064FD02F0D1FE012211032846FEF75DFD8F
:102B30000220FEF766FA012221462846FEF755FDDF
:102B40000220FEF75EFA21462846BDE870400022CA
:102B5000FEF74BBD000402402DE9F041002402F0D5
:102B600095FE134F00254FF400564FF48058002275
:102B700031463846FEF739FD0220FEF742FA0122BF
:102B800031463846FEF731FD6006040E41463846B0
:102B9000FEF726FD08B1641CE4B20120FEF731FA0D
:102BA0006D1CEDB2082DE2D32046BDE8F081000097
:102BB000000402402DE9F041054602F085FE174F62
:102BC0004FF40056002231463846FEF70EFD002431
:102BD0004FF48058280601D5012200E0002241462A
:102BE0003846FEF702FD6806050E0220FEF709FAD8
:102BF000012231463846FEF7F8FC0220FEF701FAC2
:102C0000002231463846FEF7F0FC0220FEF7F9F9C3
:102C1000641CE4B2082CDDD3BDE8F081000402405E
:102C200070B502F051FE01220E4D140321462846D4
:102C3000FEF7DBFC0122560331462846FEF7D5FCA1
:102C40000420FEF7DEF9002221462846FEF7CDFCDF
:102C50000420FEF7D6F931462846BDE87040002230
:102C6000FEF7C3BC0004024070B502F02DFE104D0B
:102C70004FF40054002221462846FEF7B6FC6610A9
:102C8000002231462846FEF7B0FC0420FEF7B9F9D1
:102C9000012221462846FEF7A8FC0122314628469B
:102CA000FEF7A3FCBDE870400420FEF7AAB90000BF
:102CB000000402402DE9F041002402F0E7FD01226A
:102CC000144D160331462846FEF78FFC0120FEF70F
:102CD00098F90122570339462846FEF786FC012061
:102CE000FEF78FF908E0641CE4B2FA2C04D9FFF770
:102CF000BBFF0120BDE8F08131462846FEF770FC9D
:102D00000028F0D1002239462846FEF76EFC00204C
:102D1000F0E700000004024010B5FFF74BFFBDE8EC
:102D20001040FFF7C7BF00000B4800B5016887B02F
:102D300041F0010101600068694600F00100059062
:102D40004FF4F97000900020019001200290034898
:102D5000FEF76EFB07B000BD1C38024000000240C9
:102D60002DE9F0410126474D474C370208B12E703E
:102D700001E02878E8B102212046FEF731FCC0B11D
:102D800010212046FEF72CFCD0B120212046FEF772
:102D900027FCA8B140212046FEF722FC80B180210B
:102DA0002046FEF71DFC58B139462046FEF718FCB8
:102DB00030B110212046FEF713FC012842D05FE01D
:102DC0000A20FEF7FFFA0020287010212046FEF7A7
:102DD00007FC38B902212046FEF702FC10B10120A1
:102DE000BDE8F08120212046FEF7FAFB30B9022130
:102DF0002046FEF7F5FB08B10220F1E7402120460E
:102E0000FEF7EEFB30B902212046FEF7E9FB08B1E0
:102E10000320E5E780212046FEF7E2FB30B90221DE
:102E20002046FEF7DDFB08B10420D9E739462046ED
:102E3000FEF7D6FB20BB02212046FEF7D1FBF8B1FE
:102E40000520CDE720212046FEF7CAFB012817D137
:102E500040212046FEF7C4FB012811D180212046E5
:102E6000FEF7BEFB01280BD139462046FEF7B8FB22
:102E7000012805D102212046FEF7B2FB00B92E70D1
:102E80000020ADE7B9000020000002402DE9F04726
:102E90003F4886B0016841F004010160016801F01B
:102EA00004010591016841F020010160016801F011
:102EB00020010591016841F001010160016801F004
:102EC00001010591016841F0020101600068DFF82D
:102ED000C49000F0020040F6FF74059001222146E4
:102EE0004846FEF782FBDFF8B0A0012211465046AB
:102EF000FEF77BFB4FF44057012239464846FEF768
:102F000074FB4FF44048012241464846FEF76DFBF2
:102F1000009401AA01240025032682E87000694676
:102F20004846FEF785FA01AA009482E870006946D7
:102F30005046FEF77DFA01AA009782E870006946C4
:102F40004846FEF775FA01AACDF8008082E87000C5
:102F500069464846FEF76CFA20038DE87100694621
:102F60005046FEF765FAE00200900C48CDE90104F6
:102F700069465046FEF75CFA002211462820FEF70B
:102F80007DFB2820FEF76FFB06B0BDE8F087000050
:102F90001C380240000402400000024000002110E2
:102FA00070B51F488AB01D490024C0E900147F2174
:102FB00081604FF49071C0E9031444618461FFF7AC
:102FC000FBF94FF4807009904FF070664FF080303D
:102FD000CDE90664012505908DF8205000942A461D
:102FE00069460F480194FFF777FA680209908DF857
:102FF00020500C480794CDE905068DF803408DF864
:1030000000400A208DF801008DF802400022694638
:1030100003480194FFF760FA0AB070BD0028004031
:10302000E401002000808080FEE770470907090E58
:10303000002806DA00F00F0000F1E02080F8141DEF
:10304000704700F1E02080F80014704710B50123AC
:103050003B220021184600F0DBF801231B2200214F
:10306000112000F0D5F8012317220021212000F0C3
:10307000CFF8012318220021312000F0C9F80123E4
:103080003A220021412000F089F8012340A20021CA
:10309000582001F03DFC01233E220021702000F069
:1030A000B7F801233B221021184600F0B1F80123A4
:1030B0001B221021112000F0ABF801231722102150
:1030C000212000F0A5F8012319221021312000F061
:1030D0009FF801233A221021412000F05FF80123DC
:1030E0002CA21021482001F013FC01233C222021B6
:1030F000184600F08DF801231B222021112000F03A
:1031000087F8012317222021212000F081F80123D4
:1031100018222021312000F07BF801233A222021BF
:10312000412000F03BF8012319A22021582001F092
:10313000EFFB01233E222021702000F069F80123DB
:103140003C223021184600F063F801231B22302175
:10315000112000F05DF8012317223021212000F01A
:1031600057F8012319223021312000F051F80123B2
:103170003A223021412000F011F8012305A230212C
:10318000482001F0C5FBBDE8104001F01FBA000067
:103190002F2F2F002F2F2E2F6D2F73002DE9F04F83
:1031A000884601F03F04203A00F07F091749D0B269
:1031B0009B46002601EB001A5FF000071AF8065044
:1031C000BBF1010F4FEAC57002D018B1002202E036
:1031D0000028FBD001222146484601F015F9641C65
:1031E000E4B26D08A4EB0800102809D07F1CFFB2E0
:1031F000082FE5D3761CF6B2102EDDD3BDE8F08F94
:1032000009F10100444600F0FF09F3E7987A00084D
:103210002DE9F04F00F07F0918489B46884601F0E1
:103220003F04002600EB421A5FF000071AF8065030
:10323000BBF1010F4FEAC57002D018B1002202E0C5
:103240000028FBD001222146484601F0DDF8641C2D
:10325000E4B26D08A4EB0800102809D07F1CFFB26F
:10326000082FE5D3761CF6B2202EDDD3BDE8F08F13
:1032700009F10100444600F0FF09F3E788800008E7
:103280002DE9F047884601F03F0400F07F09154919
:1032900002EBC200002501EBC00A00BF1AF805705E
:1032A0000026F80701D0012200E00022214648460E
:1032B00001F0AAF8641CE4B27F08A4EB0800182807
:1032C00009D0761CF6B2082EEBD36D1CEDB2482D5A
:1032D000E4D3BDE8F08709F10100444600F0FF099E
:1032E000F3E70000A888000830B40021084B0A4624
:1032F0005FF0000003EBC004401CC0B2625484289D
:10330000F8D3491CC9B20829F2D330BC01F05EB928
:103310008402002010B5A94CE07800286BD100236E
:10332000212219460120FFF773FF002322221946AC
:103330001120FFF76DFF0023232219462120FFF7FC
:1033400067FF0023242219463120FFF761FF012384
:103350003A2200214120FFF721FF012398A20021FA
:10336000682001F0D5FA012396A21021184601F039
:10337000CFFA0123232210212120FFF749FF012347
:10338000242210213120FFF743FF01233A2210218C
:103390004120FFF703FF01238CA21021682001F0D8
:1033A000B7FA012387A22021184601F0B1FA0123C0
:1033B000032220212120FFF72BFF012304222021BB
:1033C0003120FFF725FF0123262220214120FFF78E
:1033D0001FFF0123272220215120FFF719FF01237E
:1033E0003A2220216120FFF7D9FE012378A2202173
:1033F000682001F08DFAE07801286BD101232122A9
:1034000000211846FFF704FF01232222002111208A
:10341000FFF7FEFE0123232200212120FFF7F8FE03
:103420000123242200213120FFF7F2FE01233A225A
:1034300000214120FFF7B2FE012361A20021682094
:1034400001F066FA00235FA21021012001F060FA6A
:103450000023232210212120FFF7DAFE002324225B
:1034600010213120FFF7D4FE01233A221021412000
:10347000FFF794FE012355A21021682001F048FABD
:10348000012350A22021184601F042FA0123032211
:1034900020212120FFF7BCFE01230422202131201E
:1034A000FFF7B6FE0123262220214120FFF7B0FEC0
:1034B0000123272220215120FFF7AAFE01233A22CF
:1034C00020216120FFF76AFE012341A2202168200C
:1034D00001F01EFAE07802286BD10123212200219D
:1034E0001846FFF795FE0123222200211120FFF745
:1034F0008FFE0123232200212120FFF789FE0123D3
:10350000242200213120FFF783FE01233A220021EB
:103510004120FFF743FE012329A20021682001F08A
:10352000F7F9012327A21021184601F0F1F9012330
:10353000232210212120FFF76BFE012324221021DA
:103540003120FFF765FE01233A2210214120FFF7C9
:1035500025FE01231DA21021682001F0D9F90023C6
:1035600018A22021012001F0D3F9002303222021F9
:103570002120FFF74DFE0023042220213120FFF7F8
:1035800047FE0023262220214120FFF741FE002391
:10359000272220215120FFF73BFE01233A22202140
:1035A0006120FFF7FBFD012309A22021682001F023
:1035B000AFF9BDE8104001F009B800009C00002000
:1035C00030304D0050414D53000000002F2F4D0072
:1035D000202F2F00944810B5407820B101284FD0FB
:1035E00002287CD01BE10123112210211846FFF78D
:1035F0000FFE0123122210211120FFF709FE0123E3
:103600003A2210212120FFF7C9FD012387A21021B2
:10361000282001F07DF901233D2210217120FFF7C0
:10362000F7FD0123132220211846FFF7F1FD0123A6
:10363000142220211120FFF7EBFD01233A22202143
:103640002120FFF7ABFD01237BA22021282001F0E0
:103650005FF90123112230211846FFF7D9FD01231C
:10366000152230211120FFF7D3FD01233A2230210A
:103670002120FFF793FD0123302172A22820CCE006
:103680000123162210211846FFF7C2FD012317223D
:1036900010211120FFF7BCFD01231722102121204A
:1036A000FFF7B6FD0123182210213120FFF7B0FDEE
:1036B00001233A2210214120FFF770FD012364A26B
:1036C0001021492001F024F901233E22102171200C
:1036D000FFF79EFD012316222021184600E044E05A
:1036E000FFF796FD0123172220211120FFF790FDFF
:1036F0000123172220212120FFF78AFD012319220F
:1037000020213120FFF784FD01233A22202141208E
:10371000FFF744FD012350A22021482001F0F8F8D2
:1037200001231A2230211846FFF772FD01234CA213
:103730003021112001F0ECF8012312223021312038
:10374000FFF766FD01233A2230214120FFF726FDD5
:10375000012337A23021492001F0DAF801233D226C
:1037600030217120FFF754FD59E001231B22102165
:103770001846FFF74DFD01231C2210211120FFF7F1
:1037800047FD01231D2210212120FFF741FD0123C8
:103790003A2210213120FFF701FD012332A210212E
:1037A000382001F0B5F801230E2220211846FFF73A
:1037B0002FFD01231C2220211120FFF729FD0123C9
:1037C0001D2220212120FFF723FD01233A22202161
:1037D0003120FFF7E3FC012323A22021382001F050
:1037E00097F801230A2230211846FFF711FD012323
:1037F0001C2230211120FFF70BFD01231D22302157
:103800002120FFF705FD01233A2230213120FFF767
:10381000C5FC012314A23021382001F079F8BDE85D
:10382000104000F0D3BE00009C000020202020208B
:10383000202F2F2E2F000000202020202F2F2F2080
:103840002552480020202F2F2F2F2E2F6870610027
:1038500020202F2F2F0000002F2F2E2F6D2F7300D1
:10386000202020200000000020202020302E306D5D
:103870006D00000010B5FE4C207970B101287DD09C
:1038800002287CD003287BD004287AD0052879D060
:10389000062878D0072877D0A7E30123F5A20021D6
:1038A000402001F035F80023112219460120FFF7CE
:1038B000AFFC0023122219461120FFF7A9FC0023B8
:1038C000402219462120FFF7A3FC0023332219468A
:1038D0003120FFF79DFC01233D2200217020FFF7DE
:1038E00097FC0123E5A21021402001F011F80123EB
:1038F000132210211846FFF78BFC012314221021FC
:103900001120FFF785FC0123402210212120FFF721
:103910007FFC0123332210213120FFF779FC0123A2
:10392000D9A22021402000F0F3FF012317222021FB
:103930001846FFF76DFC0123192220211120FFF703
:1039400067FC0123402220212120FFF761FC012395
:10395000332220213120FFF75BFC0123C5A2302157
:10396000402000F0D5FF01231A2230211846FFF72E
:103970004FFC012312223021112006E06EE0FFE00F
:10398000CFE157E235E3E5E3FEE3FFF741FC012336
:10399000402230212120FFF73BFC0123332230213C
:1039A0003120E1E001287CD098E10021502000F096
:1039B000AFFF93E1E079A17B627D0143114324D005
:1039C00010B1012809D102E00123B2A201E00123D4
:1039D000B1A21021502000F09BFFA37BAFA2802159
:1039E000B04802F04FFE0123AE4A1021582000F0EB
:1039F0008FFF637DA9A28021AA4802F043FE012324
:103A0000A84A1021602000F083FF207AE17BA27D8C
:103A1000014311437DD010B1012809D102E00123F7
:103A20009CA201E001239CA22021482000F070FF0D
:103A3000E37B9AA280219B4802F024FE0123994A4D
:103A40002021502000F064FFA37D94A2802195489E
:103A500002F018FE0123934A2021C3E2012385A22C
:103A60000021402000F054FF0123112200211846BC
:103A7000FFF7CEFB0123122200211120FFF7C8FB24
:103A80000123402200212120FFF7C2FB0123332222
:103A900000213120FFF7BCFB01233D2200217020D3
:103AA00000E03AE1FFF7B4FB012374A210214020AB
:103AB00000F02EFF0023132210210120FFF7A8FBA6
:103AC0000023142210211120FFF7A2FB0023402223
:103AD00010212120FFF79CFB0023332210213120ED
:103AE000FFF796FB012368A22021402000F010FF81
:103AF0000123172220211846FFF78AFB01231922F0
:103B000020211120FFF784FB0123402220212120C6
:103B100000E06AE2FFF77CFB012333222021312001
:103B2000FFF776FB012353A23021402000F0F0FE86
:103B300001231A2230211846FFF76AFB01231222C3
:103B400030211120FFF764FB012340223021212086
:103B5000FFF75EFB0123332230213120FFF758FBB2
:103B600001233D2230217020FFF752FBA079617BB9
:103B7000227D014311433FF41DAF002876D011E7A9
:103B800001233CA20021402000F0C2FE01231122AB
:103B900000211846FFF73CFB0123122200211120CF
:103BA000FFF736FB0123402200212120FFF730FBE5
:103BB0000123332200213120FFF72AFB01233D227C
:103BC00000217020FFF724FB01232CA210214020AC
:103BD00000F09EFE0123132210211846FFF718FB68
:103BE0000123142210211120FFF712FB0123402290
:103BF00010212120FFF70CFB01233322102131205B
:103C0000FFF706FB012320A22021402000F080FEC8
:103C10000023172220210120FFF7FAFA002319229E
:103C200020211120FFF7F4FA002340222021212037
:103C3000FFF7EEFA0023332220213120FFF7E8FAC4
:103C400001230CA23021402000F062FE01231A2241
:103C500030211846FFF7DCFA01231222302111200F
:103C6000FFF7D6FA0123402230211DE051E0000089
:103C70009C0000203A202A2F2E2F00003A202A2FC5
:103C80002F255248000000003A2A2F2E2F6D2F7347
:103C9000000000002B0000002D00000025303175D1
:103CA00000000000A40600202120FFF7B1FA012344
:103CB000332230213120FFF7ABFA01233D2230219E
:103CC0007020FFF7A5FAA079627B01461043227DA0
:103CD00010433FF46FAEE1B101291ED0637BAFF218
:103CE00044028021FE4802F0CDFC0123FC4A002161
:103CF000582000F00DFE237DAFF260028021F848CD
:103D000002F0C0FC0123F64A0021682000F000FE0A
:103D100050E60123AFF2840247E60123AFF28802A6
:103D200043E60123AFF2B4020021402000F0F0FD91
:103D30000123112200211846FFF76AFA01231222FB
:103D400000211120FFF764FA0123402200212120E5
:103D5000FFF75EFA0123332200213120FFF758FAE2
:103D600001233D2200217020FFF752FA0123AFF218
:103D7000F4021021402000F0CBFD0123132210217A
:103D80001846FFF745FA0123142210211120FFF7EE
:103D90003FFA0123402210212120FFF739FA0123A5
:103DA000332210213120FFF733FA0123AFF228121A
:103DB0002021402000F0ACFD0123172220211846CD
:103DC000FFF726FA0123192220211120FFF720FAFC
:103DD0000123402220212120FFF71AFA0123332258
:103DE00020213120FFF714FA0123AFF2781230219D
:103DF000402000F08DFD01231A2230211846FFF7E4
:103E000007FA0023122230211120FFF701FA0023C4
:103E1000402230212120FFF7FBF9002333223021FB
:103E20003120FFF7F5F900233D2230217020FFF704
:103E3000EFF9DAE00123ABA20021402000F068FD99
:103E40000023112219460120FFF7E2F90023152271
:103E500019461120FFF7DCF900233F2219462120E3
:103E6000FFF7D6F900233A2219463120FFF7D0F99F
:103E700001239FA21021402000F04AFD01231122BE
:103E800010211846FFF7C4F9012315221021112033
:103E9000FFF7BEF90123402210212120FFF7B8F9D6
:103EA0000123DFE0AFF20C2280218D4802F0EAFB13
:103EB00001238B4A0021502000F02AFD237CAFF221
:103EC00024228021864802F0DDFB0123844A002160
:103ED000582000F01DFDE37DAFF240228021804894
:103EE00002F0D0FB01237E4A0021682000F010FD83
:103EF000E37EAFF258228021794802F0C3FB012310
:103F0000774A0021702000F003FD237FAFF2742276
:103F10008021734802F0B6FB0123714A002178200A
:103F200000F0F6FC0CE101287ED048E21021482088
:103F300000F0EEFC43E2E07AA17C03460843617E98
:103F4000084325D0AFF2AC228021654802F09AFBED
:103F50000123634A2021482000F0DAFCA37CAFF261
:103F6000C42280215E4802F08DFB01235C4A20219F
:103F7000502000F0CDFC637EAFF2E0228021584853
:103F800002F080FB0123564A2021602000F0C0FC93
:103F9000207BE17C03460843A17E084325D0AFF295
:103FA000043280214E4802F06DFB01234C4A30213F
:103FB000482000F0ADFCE37CAFF22032802148487D
:103FC00002F060FB0123464A3021582000F0A0FC9B
:103FD000A37EAFF238328021414802F053FB012327
:103FE0003F4A3021602000F093FCBDE8104000F013
:103FF000EDBA01233BA20021402000F089FC0123FF
:10400000112200211846FFF703F901231522002190
:104010001120FFF7FDF801233F2200212120FFF7A7
:10402000F7F801233A2200E0E8E100213120FFF710
:10403000EFF801232EA21021402000F069FC00239C
:10404000112210210120FFF7E3F80023152210218F
:104050001120FFF7DDF80023402210212120FFF777
:10406000D7F80023332210213120FFF7D1F80123A4
:1040700022A22021402000F04BFC01233F222021DE
:104080001846FFF7C5F801233A2220211120FFF737
:10409000BFF80123402220212120FFF7B9F8012396
:1040A000332220213120FFF7B3F8012316A230215B
:1040B000402000F02DFC0123122230211846FFF78A
:1040C000A7F80123142230211120FFF7A1F80123C2
:1040D000402230212120FFF79BF80123372219E0ED
:1040E000A40600203A202F2F2E2F2F2F0000000093
:1040F0003A2A2F2E2F687061000000002B2F2F2EE0
:104100002F687061000000003A2F2E2F2F68706119
:104110000000000030213120FFF77AF801233A2215
:1041200030217020FFF774F8607A217C0346084341
:10413000E17D0843E17E0843217F08437FF4B2AE6E
:10414000A07A617C227E014311433FF4F4AE002843
:104150007ED0E8E60123AFF274020021402000F097
:10416000D7FB0123112200211846FFF751F8012344
:10417000152200211120FFF74BF801233F220021D7
:104180002120FFF745F800E03FE001233A2200211B
:104190003120FFF73DF80123AFF2AC02102140209F
:1041A00000F0B6FB0123112210211846FFF730F86A
:1041B0000123152210211120FFF72AF801234022A4
:1041C00010212120FFF724F8012333221021312070
:1041D000FFF71EF80123AFF2DC022021402000F09F
:1041E00097FB00233F2220210120FFF711F8002335
:1041F0003A2220211120FFF70BF800234022202132
:104200002120FFF705F800234AE70123AFF22C1223
:104210000021402000F07CFB0123112200211846E0
:10422000FEF7F6FF0123152200211120FEF7F0FF13
:1042300001233F2200212120FEF7EAFF01233A2239
:1042400000213120FEF7E4FF0123AFF25C1200E011
:10425000D0E01021402000F05BFB0123112210214F
:104260001846FEF7D5FF0123152210211120FEF775
:10427000CFFF0123402210212120FEF7C9FF012397
:10428000332210213120FEF7C3FF0123AFF2941235
:104290002021402000F03CFB01233F222021184632
:1042A000FEF7B6FF01233A2220211120FEF7B0FFCE
:1042B0000123402220212120FEF7AAFF01233322DF
:1042C00020213120FEF7A4FF0123AFF2C4123021D8
:1042D000402000F01DFB0023122230210120FEF7B8
:1042E00097FF0023142230211120FEF791FF0023B5
:1042F000402230212120FEF78BFF0023372230217E
:104300003120FEF785FF00233A2230217020FEF78E
:104310007FFF607A217C03460843E17D0843E17E0C
:104320000843217F08433FD0AFF290628021354897
:1043300002F0A8F90123334A0021502000F0E8FAE6
:10434000237CAFF2A86280212E4802F09BF9012362
:104350002C4A0021582000F0DBFAE37DAFF2C46262
:104360008021284802F08EF90123264A0021682086
:1043700000F0CEFAE37EAFF2DC628021214802F049
:1043800081F901231F4A0021702000F0C1FA237F28
:10439000AFF2F86280211B4802F074F90123194A38
:1043A0000021782000F0B4FAA07A627C0146104324
:1043B000227E10433FF4BFADE1B101291ED0637CE2
:1043C000AFF2287280210F4802F05CF901230D4AF8
:1043D0001021502000F09CFA237EAFF24072802121
:1043E000084802F04FF90123064A1021602000F02E
:1043F0008FFAA0E50123AFF2647297E50123AFF2D3
:10440000687293E5A406002000F07F03072010B532
:1044100000EAD10001F00701C1F107040121A14028
:10442000CCB20549002A01EBC3010A5C01D022434A
:1044300000E0A2430A5410BD840200202DE9F04799
:1044400000F07F091548884601F03F04002500EB85
:10445000821A00BF1AF805700026F80701D0012261
:1044600000E0002221464846FFF7CEFF641CE4B27C
:104470007F08A4EB0800102809D0761CF6B2082E9D
:10448000EBD36D1CEDB2402DE4D3BDE8F08709F10C
:104490000100444600F0FF09F3E70000C889000866
:1044A00010B5AE2000F056FA402000F053FAB020CC
:1044B00000F050FA812000F04DFAFF2000F04AFA97
:1044C000822000F047FA202000F044FAA02000F0FB
:1044D00041FAA42000F03EFAA62000F03BFAA82002
:1044E00000F038FA3F2000F035FAAD2000F032FA43
:1044F0008B2000F02FFAC82000F02CFAD32000F017
:1045000029FA002000F026FAD52000F023FA7020C6
:1045100000F020FAD82000F01DFA002000F01AFA6E
:10452000DA2000F017FA122000F014FAAF2000F0A1
:1045300011FABDE81040FEF7D7BE10B500220821E1
:104540001120FEF79DFE012208212920FEF798FE8A
:10455000022208214120FEF793FE03220821592060
:10456000FEF78EFE0123002228211846FEF750FE9A
:1045700001231A4628211120FEF74AFE01230222B8
:1045800028212120FEF744FE012303222821312087
:10459000FEF73EFE0123042228214120FEF738FECB
:1045A0000123052228215120FEF732FE0123062295
:1045B00028216120FEF72CFE0123072228217120EB
:1045C000FEF726FEBDE81040AFF3008070B50E4E3A
:1045D000002400BF04F1B000C0B200F0BBF900201D
:1045E00000F0B8F9102000F0B5F9002506EBC50081
:1045F000005D00F0E9F96D1CEDB2842DF6D3641C6A
:10460000E4B2082CE6D370BD84020020BC4810B58B
:10461000407930B1012836D002287DD003287CD0E3
:104620006AE100231E2219460120FEF7F1FD002356
:104630001F2219461120FEF7EBFD00232022194608
:104640002120FEF7E5FD0023022219463120FEF766
:10465000DFFD0123ABA20021412000F059F9012325
:104660000E2210211846FEF7D3FD01232822102127
:104670001120FEF7CDFD01230F2210212120FEF78E
:10468000C7FD012330E001231E2200211846FEF75A
:10469000BFFD01231F2200211120FEF7B9FD0123D8
:1046A000202200212120FEF7B3FD01230222002158
:1046B0003120FEF7ADFD012392A21946412000F002
:1046C00027F900230E2210210120FEF7A1FD00236F
:1046D000282210211120FEF79BFD00230F2210211C
:1046E0002120FEF795FD0023102211463120FEF710
:1046F0008FFD012383A21021412000F009F901233D
:104700002A2220211846FEF783FD01232B22202197
:104710001120FEF77DFD01E026E075E001230F2268
:1047200020212120FEF774FD0123102220213120B9
:10473000FEF76EFD012373A22021412000F0E8F86E
:104740000123372230211846FEF762FD012338226B
:1047500030211120FEF75CFD012339223021212078
:10476000FEF756FD0123BCE001231E22002118465E
:10477000FEF74EFD01231F2200211120FEF748FD08
:104780000123202200212120FEF742FD01230222E5
:1047900000213120FEF73CFD01235AA200214120D7
:1047A00000F0B6F801230E2210211846FEF730FD66
:1047B0000123282210211120FEF72AFD01230F22B8
:1047C00010212120FEF724FD102201231146312063
:1047D000FEF71EFD01234BA21021412000F098F8A6
:1047E00000232A2220210120FEF712FD00232B2284
:1047F00020211120FEF70CFD00230F222021212073
:10480000FEF706FD002390E701231E220021184633
:10481000FEF7FEFC01231F2200211120FEF7F8FC09
:104820000123202200212120FEF7F2FC0123022295
:1048300000213120FEF7ECFC012332A200214120AF
:1048400000F066F801230E2210211846FEF7E0FC66
:104850000123282210211120FEF7DAFC01230F2268
:1048600010212120FEF7D4FC102201231146312013
:10487000FEF7CEFC012323A21021412000F048F8CE
:1048800001232A2220211846FEF7C2FC01232B22F5
:1048900020211120FEF7BCFC01230F222021212022
:1048A000FEF7B6FC0123102220213120FEF7B0FCD8
:1048B000012314A22021412000F02AF800233722EE
:1048C00030210120FEF7A4FC0023382230211120E2
:1048D000FEF79EFC0023392230212120FEF798FCB0
:1048E00000233A2230213120FEF792FC012306A258
:1048F0003021412000F00CF8BDE81040FFF766BE03
:104900009C0000202E2E2E00202A2A2A00000000C3
:104910002DE9F0411F4616460D46044613E0782C5B
:1049200002D900241035EDB2302D03D900242546DC
:10493000FEF7DAFC32783B4629462046FEF72EFC8D
:104940000834E4B2761C307820385E28E7D9BDE818
:10495000F081000070B501221A4C06461502294666
:104960002046FCF742FE0020401CC0B20328FBD3C7
:1049700000224FF400712046FCF737FE0122D102DD
:104980002046FCF732FE00224FF480612046FCF7FF
:104990002CFE0C481430016801F47F413143016062
:1049A000002229462046FCF720FE0022521CD2B2EB
:1049B000032AFBD329462046BDE870400122FCF7BC
:1049C00014BE00000004024070B50122194C0646D6
:1049D000150229462046FCF708FE0020401CC0B204
:1049E0000328FBD3012251022046FCF7FEFD0122E1
:1049F000D1022046FCF7F9FD00224FF480612046E9
:104A0000FCF7F3FD0B481430016801F47F4131439A
:104A10000160002229462046FCF7E7FD0022521CD7
:104A2000D2B2032AFBD329462046BDE870400122BA
:104A3000FCF7DBBD0004024010B5FE4CA078002856
:104A40007ED100232C2219460120FEF7E1FB002332
:104A50002D2219461120FEF7DBFB00232A221946DE
:104A60002120FEF7D5FB00232E2219463120FEF728
:104A7000CFFB00232F2219464120FEF7C9FB00235C
:104A8000302219465120FEF7C3FB012331221021A9
:104A90001846FEF7BDFB0123322210211120FEF73C
:104AA000B7FB01232A2210212120FEF7B1FB0123AD
:104AB0002E2210213120FEF7ABFB01232F221021E3
:104AC0004120FEF7A5FB0123302210215120FEF7E3
:104AD0009FFB0123332220211846FEF799FB012377
:104AE000342220211120FEF793FB012335222021BF
:104AF0002120FEF78DFB0123332220213120FEF7F8
:104B000087FB0123CCA220214120FFF701FF0123D5
:104B1000362230211846FEF77BFB0123C8A2302144
:104B20001120FFF7F5FE0123232230213120FEF76B
:104B30006FFB0123242230214120FEF769FB00E0B6
:104B40000BE00123252230215120FEF761FB0123D8
:104B5000B9A230216120FFF7DBFEA07801287CD1CB
:104B600001232C2200211846FEF752FB01232D229F
:104B700000211120FEF74CFB01232A2200212120D5
:104B8000FEF746FB01232E2200213120FEF740FBD9
:104B900001232F2200214120FEF73AFB012330227E
:104BA00000215120FEF734FB002331221021012087
:104BB000FEF72EFB0023322210211120FEF728FBE6
:104BC00000232A2210212120FEF722FB00232E227F
:104BD00010213120FEF71CFB00232F221021412041
:104BE000FEF716FB0023302210215120FEF710FBA8
:104BF0000123332220211846FEF70AFB0123342229
:104C000020211120FEF704FB012335222021212041
:104C1000FEF7FEFA0123332220213120FEF7F8FAB5
:104C2000012385A220214120FFF772FE01233622B5
:104C300030211846FEF7ECFA012381A23021112021
:104C4000FFF766FE0123232230213120FEF7E0FA30
:104C5000012324223021412000E00DE0FEF7D8FAA4
:104C60000123252230215120FEF7D2FA012372A21E
:104C700030216120FFF74CFEA07802287ED101236D
:104C80002C2200211846FEF7C3FA01232D22002111
:104C90001120FEF7BDFA01232A2200212120FEF770
:104CA000B7FA01232E2200213120FEF7B1FA0123A9
:104CB0002F2200214120FEF7ABFA012330220021F0
:104CC0005120FEF7A5FA0123312210211846FEF7E4
:104CD0009FFA0123322210211120FEF799FA0123B5
:104CE0002A2210212120FEF793FA01232E221021DF
:104CF0003120FEF78DFA01232F2210214120FEF7EB
:104D000087FA0123302210215120FEF781FA002377
:104D1000332220210120FEF77BFA002334222021B8
:104D20001120FEF775FA0023352220212120FEF7FD
:104D30006FFA0023332220213120FEF769FA012384
:104D40003DA220214120FFF7E3FD0123362230213F
:104D50001846FEF75DFA012339A230211120FFF732
:104D6000D7FD0123232230213120FEF751FA012300
:104D7000242230214120FEF74BFA00E00BE0012312
:104D8000252230215120FEF743FA01232AA23021A7
:104D90006120FFF7BDFDA07803287DD101232C22DF
:104DA00000211846FEF734FA01232D22002111209C
:104DB000FEF72EFA01232A2200212120FEF728FAED
:104DC00001232E2200213120FEF722FA01232F2277
:104DD00000214120FEF71CFA01233022002151203E
:104DE000FEF716FA0123312210211846FEF710FAB9
:104DF0000123322210211120FEF70AFA01232A2270
:104E000010212120FEF704FA01232E221021312047
:104E1000FEF7FEF901232F2210214120FEF7F8F9B9
:104E20000123302210215120FEF7F2F90123332211
:104E3000202109E09C000020202A2A2A00000000EE
:104E400050414D53000000001846FEF7E1F90123E0
:104E5000342220211120FEF7DBF901233522202105
:104E60002120FEF7D5F90123332220213120FEF73E
:104E7000CFF90123AFF2400220214120FFF748FD86
:104E80000023362230210120FEF7C2F90023AFF2C1
:104E900050023021112000E01AE0FFF739FD002315
:104EA000232230213120FEF7B3F9002324223021C0
:104EB0004120FEF7ADF90023252230215120FEF7D5
:104EC000A7F90123AFF2900230216120FFF720FD06
:104ED000BDE81040FFF77ABB10B50123082200217E
:104EE0001120FEF795F90123092200213120FEF758
:104EF0008FF901230A2200215120FEF789F90123AD
:104F000046A200216820FFF703FD012344A21021DF
:104F10000820FFF7FDFC01233A2210211820FEF79C
:104F20003DF901233EA210212020FFF7F1FC0123CF
:104F30003A2210213020FEF731F9012338A2102146
:104F40003820FFF7E5FC012336A210216020FFF78F
:104F5000DFFC3648007820B1012816D0022834D072
:104F600057E001230B2220213020FEF751F90123C5
:104F70000C2220214020FEF74BF900230D22302186
:104F80001020FEF745F9002332E001230B222021F7
:104F90003020FEF73DF901230C2220214020FEF7AE
:104FA00037F901230D2230211020FEF731F90123BA
:104FB0000E2230212020FEF72BF900230F22302172
:104FC0005020FEF725F900231EE000230B222021AC
:104FD0003020FEF71DF900230C2220214020FEF78F
:104FE00017F901230D2230211020FEF711F90123BA
:104FF0000E2230212020FEF70BF901230F22302151
:105000005020FEF705F90123102230216020FEF721
:10501000FFF8BDE81040FFF7D9BA00002F2F2F008E
:10502000303000005330304D000000009C00002064
:105030002DE9F04115460F4606461B4A042105207E
:1050400000F0A5F8184CA078000601D5012000E07A
:10505000002038702078012E00F03F00207060782A
:1050600000F007006070A07800F01F00A070E078EA
:105070000AD0022E06D12870A07868702078A87017
:105080006078E870BDE8F08100F0B8FB2870A07887
:1050900000F0B4FB6870207800F0B0FBA870607876
:1050A00000F0ACFBEDE70000980000203EB50C4698
:1050B0000146022000F026F8224600210220FFF7D8
:1050C000B7FF07488278417800788DE807000448E8
:1050D000001D83784278017802A001F0C3FA3EBD3A
:1050E0002C00002054696D653A22323025782D2538
:1050F000782D25782025783A25783A2578220D0ACA
:105100000000000070B50D460646134A0321022038
:1051100000F03DF8104C012E207800F07F00207048
:10512000607800F07F006070A07800F03F00A07011
:1051300007D0022E04D12870607868702078A8709B
:1051400070BD00F05BFB2870607800F057FB687062
:10515000207800F053FBF2E79800002010B50446D9
:10516000FDF75EFDA220FDF7D7FD60B92046FDF7F3
:10517000D3FDFDF755FDA320FDF7CEFDFDF7ECFCBB
:105180000446FDF7C5FCFDF76FFD204610BD2DE977
:10519000F04115460E4607460024FDF741FDA220CA
:1051A000FDF7BAFDC0B93846FDF7B6FDFDF738FD8D
:1051B000A320FDF7B1FD771E0CE0FDF7CDFC2870B4
:1051C000BC4202D1FDF7A4FC01E0FDF759FC641CD0
:1051D000E4B26D1CB442F0D3BDE8F041FDF744BD2C
:1051E00070B514460D46012821D12078632801D9D5
:1051F00000202070617801200C2900D96070A1780E
:105200001F2900D9A070E178062900D9E070207824
:1052100000F006FB2070607800F002FB6070A07860
:1052200000F0FEFAA070E07800F0FAFAE070607822
:10523000032D12D020F0800060700948A17802464A
:105240000170E1784170617881702178C170BDE8AA
:1052500070400421052000F079B840F08000EBE7B1
:105260009800002010B504460020FFF777FF0146A4
:10527000062C02D0052C03D004E040F0800101E0B0
:1052800000F07701BDE81040002000F04CB80000AD
:1052900010B50C46012818D121780020172900D913
:1052A000207061783B2900D96070A1783B2900D932
:1052B000A070207800F0B4FA2070607800F0B0FAA6
:1052C0006070A07800F0ACFAA0700748A1780246A0
:1052D000017061784170217881700321BDE8104030
:1052E000022000F033B800009800002010B5002024
:1052F000FFF734FF0146800601D501F0DF01080603
:1053000001D401F0F701BDE81040002000F00BB817
:1053100010B50020FFF722FF40F02001BDE810404B
:105320000020AFF3008070B50C460546FDF778FC11
:10533000A220FDF7F1FC28B92846FDF7EDFC204638
:10534000FDF7EAFCBDE87040FDF78EBC2DE9F041A9
:1053500015460E4607460024FDF762FCA220FDF725
:10536000DBFC58B93846FDF7D7FC05E02878FDF797
:10537000D3FC641CE4B26D1CB442F7D3BDE8F04129
:10538000FDF772BC7047000070B53548354C364D9E
:1053900041793648007821B1012917D0022936D049
:1053A0005AE010B1012803D008E0002330A201E048
:1053B000002330A200215020FFF7AAFA23782EA262
:1053C00080212F4801F05EF9012313E010B101287C
:1053D00003D008E0012326A201E0012325A2002139
:1053E0005020FFF795FA237823A28021244801F06A
:1053F00049F90023224A00215820FFF789FA2B7827
:105400001DA280211E4801F03DF901231FE010B1CB
:10541000012803D008E0012315A201E0012315A211
:1054200000215020FFF774FA237813A2802114483A
:1054300001F028F90123124A00215820FFF768FAE9
:105440002B780DA280210E4801F01CF900230C4A94
:1054500000216820FFF75CFABDE87040FFF7B6B89E
:1054600000000020A9000020B0000020A2000020C1
:105470002B0000002D0000002530317500000000D9
:10548000A40600202DE9F04173487449744C007A59
:10549000744D754E754F0B7840B1012819D0022814
:1054A0004ED003286BD004287ED0D0E070A280219B
:1054B000714801F0E7F800236F4A19465020FFF7C2
:1054C00027FA23786AA280216B4801F0DBF80123D8
:1054D00011E067A28021684801F0D4F80123664AF0
:1054E00000215020FFF714FA237861A2802162483E
:1054F00001F0C8F80023604A00215820FFF708FA9D
:105500002B785BA280215C4801F0BCF801235A4A49
:1055100000216820FFF7FCF9337855A28021564816
:1055200001F0B0F80123544A00217020FFF7F0F990
:105530003B784FA28021504801F0A4F8012381E07C
:105540004BA280214C4801F09DF801234A4A0021DA
:105550005020FFF7DDF9237845A28021464801F06D
:1055600091F80123444A00215820FFF7D1F92B7804
:105570003FA28021404801F085F80023C7E73CA204
:1055800080213D4801F07EF801233B4A0021502054
:10559000FFF7BEF9237836A28021374801F072F870
:1055A0000123354A002100E016E05820FFF7B0F94A
:1055B0002B782FA28021304801F064F801232E4A75
:1055C00000216820FFF7A4F9337829A280212A4816
:1055D00001F058F80023A6E725A28021264801F013
:1055E00051F80123244A00215020FFF791F9237834
:1055F0001FA28021204801F045F801231E4A002106
:105600005820FFF785F92B7819A280211A4801F05C
:1056100039F80123184A00216820FFF779F9337817
:1056200013A28021144801F02DF80123124A002111
:105630007020FFF76DF93B780DA280210E4801F034
:1056400021F800230C4A00217820FFF761F9BDE81A
:10565000F041FEF7BBBF000000000020A5000020C5
:10566000AC000020B3000020B7000020B8000020EC
:105670002530317500000000A406002070B53548C3
:10568000354C364D417A3648007821B1012917D082
:10569000022936D05AE010B1012803D008E00023D7
:1056A00030A201E0002330A210214820FFF730F99A
:1056B00023782EA280212F4800F0E4FF012313E07D
:1056C00010B1012803D008E0012326A201E0012344
:1056D00025A210214820FFF71BF9237823A280215F
:1056E000244800F0CFFF0023224A10215020FFF76A
:1056F0000FF92B781DA280211E4800F0C3FF012363
:105700001FE010B1012803D008E0012315A201E039
:10571000012315A210214820FFF7FAF8237813A2DD
:105720008021144800F0AEFF0123124A10215020BE
:10573000FFF7EEF82B780DA280210E4800F0A2FFB3
:1057400000230C4A10216020FFF7E2F8BDE870400A
:10575000FEF73CBF00000020AD000020B400002098
:10576000A60000202B0000002D0000002530317520
:1057700000000000A4060020F8B507461A480026DD
:1057800000681A4D10F0F00F20D1174C1C3420681F
:10579000C00002D5FBF7A4FF0DE0206840F0805068
:1057A0002060206800F080500090FBF799FF21688E
:1057B00021F080512160B0F5C05F07D1B7F5404FAF
:1057C00004D12868012640F004002860286820F0F1
:1057D000010030432860286800F00100B04201D089
:1057E0000120F8BD0020F8BD08380240003C02400E
:1057F0000148FCF765BD0000E4010020010901EB50
:10580000810100F00F0000EB4100C0B270470109B8
:1058100001EB810100F00F0000EB4100C0B27047C6
:10582000002103E0491C0A38C9B2C0B20A28F9D2E3
:10583000090740EA11607047002102E00A38C0B24F
:10584000491C0A28FAD2090740EA11607047000093
:1058500070B504460068C168490614D44FF0FF31A2
:10586000C160FBF7C7FE05464FF47A7607E000BF3C
:10587000FBF7C0FE401BB04201D9032070BD206879
:10588000C0684006F4D5002070BD00000C4800B58B
:10589000016887B041F0020101600068694600F0CC
:1058A000020005904FF4805000900020019002907B
:1058B000032003900348FBF7BBFD07B000BD0000C9
:1058C0001C380240000402400C4800B5016887B053
:1058D00041F0020101600068694600F00200059095
:1058E0004FF480500090012001900020029003208E
:1058F00003900348FBF79CFD07B000BD1C38024035
:105900000004024070B53548354C364D8179364833
:10591000007821B1012917D0022936D05AE010B100
:10592000012803D008E0002330A201E0002330A2C8
:1059300010215020FEF7ECFF23782EA280212F4863
:1059400000F0A0FE012313E010B1012803D008E00D
:10595000012326A201E0012325A210215020FEF7F9
:10596000D7FF237823A28021244800F08BFE002358
:10597000224A10215820FEF7CBFF2B781DA2802150
:105980001E4800F07FFE01231FE010B1012803D064
:1059900008E0012315A201E0012315A210215020E7
:1059A000FEF7B6FF237813A28021144800F06AFEA8
:1059B0000123124A10215820FEF7AAFF2B780DA2CE
:1059C00080210E4800F05EFE00230C4A102160206A
:1059D000FEF79EFFBDE87040FEF7F8BD0000002016
:1059E000AA000020B1000020A30000202B0000002E
:1059F0002D0000002530317500000000A4060020B5
:105A00007047FBF7FDBD0000F0B593B014210DA861
:105A1000FAF7ABFB34216846FAF7A7FB012602250B
:105A20000096E8030196CDE909500001C700CDE9D1
:105A30000B076846FCF78CF8002468B1102000952D
:105A40000995CDE90360C003CDE90A400C9768468B
:105A5000FCF77EF800B1FEE71148016841F0805183
:105A60000160006800F0805012900E48016821F437
:105A7000C05141F4006101604168C943C906FBD5CA
:105A80000F200D900320CDE90E04109401210DA8E4
:105A90001194FBF7FDFE002800D0FEE713B0F0BD27
:105AA00024380240007000400F48016841F48071C2
:105AB00001600D4908310A680C4B1A400A600268FF
:105AC0000B4B1A400260026822F4802202600868D0
:105AD00020F47D0008600020091D086005494FF092
