:020000040800F2
:10800000B8680020DD810008A3C8000891BB000803
:10801000A1C800088D8C0008BDFB0008000000000E
:10802000000000000000000000000000398100088E
:1080300095930008000000007D810008D1E500084C
:10804000F7810008F7810008F7810008F781000830
:10805000F7810008F7810008F7810008F781000820
:10806000F7810008F7810008F7810008F781000810
:10807000F7810008F7810008F7810008F781000800
:10808000F7810008F7810008F7810008F7810008F0
:10809000F7810008F7810008F7810008739800084D
:1080A000F7810008F7810008F7810008F7810008D0
:1080B000F781000831F00008F7810008F781000817
:1080C000F7810008F7810008F7810008F7810008B0
:1080D000F781000881F900089DFA0008F78100087F
:1080E0004598000889D40008F781000879F0000855
:1080F000F781000800000000F7810008F781000800
:108100000000000000000000F7810008F78100086F
:10811000F7810008F7810008F781000800000000DF
:10812000F7810008DFF80CD000F0F6F900480047AE
:10813000693A0108B8680020204B19680868B0E85F
:10814000F00F80F30988BFF36F8F4FF0000080F3CA
:1081500011884EF00D0E70470000000006480068C0
:10816000006880F3088862B661B6BFF34F8FBFF333
:108170006F8F00DF00BF00BF08ED00E0EFF3098064
:10818000BFF36F8F0D4B1A6820E9F00F106008B530
:108190004FF0500080F311880CF07EFE4FF000008D
:1081A00080F31188BDE8084019680868B0E8F00F4E
:1081B00080F30988BFF36F8F704700BF0000002075
:1081C000EFF311804FF0500181F31188704780F375
:1081D00011887047EFF3058070470000064880471C
:1081E00006480047FEE7FEE7FEE7FEE7FEE7FEE79C
:1081F000FEE7FEE7FEE7FEE7E1EF00082581000865
:1082000040EA01039B0703D009E008C9121F08C018
:10821000042AFAD203E011F8013B00F8013B521E98
:10822000F9D27047D2B201E000F8012B491EFBD20F
:1082300070470022F6E710B513460A460446194671
:10824000FFF7F0FF204610BD30B505462A460B4625
:1082500012F8010B13F8014B08B1A042F8D01CB181
:10826000002802D06D1CF1E7284630BD421C10F8F2
:10827000011B0029FBD1801A70472DE9F0410E4601
:108280000546002400E0641C285D00F0FDF8074668
:10829000305D00F0F9F8381A02D1295D0029F2D1D9
:1082A000BDE8F0812DE9F0410546002090460E46DC
:1082B000044600E0641C44450BD2285D00F0E4F85D
:1082C0000746305D00F0E0F8381A02D1295D002938
:1082D000F0D1BDE8F08100000FB400B58DB010A959
:1082E00009900B9000914FF0FF300A9000200C9005
:1082F00005480690054807906A4609A80F9900F0BE
:10830000DDF80DB05DF814FBD9840008F78400088F
:108310002DE9FF5F1D464FF0FF3BD5E90146914631
:108320005F464FF00008A9697F1C01988847296AB9
:10833000824688470028F6D1BAF1FF3F0CD024F4DA
:10834000C064002E19DD600614D5BAF12B0F09D0D8
:10835000BAF12D0F0ED103E0584604B0BDE8F09FEE
:1083600044F48064A9697F1C01988847761E824680
:10837000002E02DDBAF1300F03D0B9F1000F26D084
:1083800032E0A969761E44F400747F1C0198884786
:108390008246002E05DDBAF1780F06D0BAF1580FEB
:1083A00003D0B9F1000F10D01EE0B9F1000F02D0D8
:1083B000B9F1100F18D1A969761E24F400747F1C3E
:1083C000019888478246102002E0082000E00A2039
:1083D000814609E008FB0908A969761E44F4007487
:1083E0007F1C019888478246002E05DD494650468D
:1083F00000F050F80028EDDAE96901988847A005F7
:1084000002D46FF00100A8E7E00725D1600613D57C
:10841000600502D5C8F1000000E0404629680A1D49
:108420002A600968220501D5087015E0220701D5E8
:10843000088011E008600FE02868011D29600068CD
:10844000210502D580F8008006E0210702D5A0F8BA
:10845000008001E0C0F8008038467EE730B50B466A
:10846000014600202022012409E021FA02F59D4264
:1084700005D303FA02F5491B04FA02F52844151E38
:10848000A2F10102F1DC30BDA0F14101192900D8AF
:10849000203070473A2800D2303820F02002412A9C
:1084A00001D3A2F13700884201D34FF0FF3070476B
:1084B000026811441378016018467047D16004497E
:1084C00051610449116200211161114600F03CB86C
:1084D000B18400083D850008426842B1016811F886
:1084E000013B23B1521EC0E900121846704701211A
:1084F000C160881E704742685AB1C368016843B9B9
:1085000083688B4205D0491E521CC0E9001200202E
:1085100070474FF0FF307047064C074D06E0E068AB
:1085200040F0010394E8070098471034AC42F6D3BA
:10853000FFF7FCFD006A0108206A0108C0B24FF491
:10854000F05100F097B900002DE9F34F8BB04FF0D8
:10855000000801F10C000C464FF0010B46460DF1EE
:10856000080A0190626901210198904705002DD009
:10857000252D2CD0216A8847C0B16269012101985C
:108580009047216A88470028F7D1411E6269019807
:10859000904700E0761CA1690B988847216A8847BC
:1085A0000028F7D1E1690B988847DBE7A1690B98B0
:1085B00088470746A84201D1761CD3E7E1690B98AA
:1085C00088477F1C02D1B8F1000F6FD046E1002729
:1085D00062693D463946019890472A2804D162696C
:1085E0000121019890470125DFF8849262690121F9
:1085F00001989047A0F130010A290AD24F45E5DCE5
:1086000007EB870100EB4107303FDFD445F0100551
:10861000ECE7E90601D46FF000476C280AD04C283B
:1086200014D0682815D06A280DD074281CD07A2858
:108630001AD01DE062690121019890476C2802D090
:1086400045F0040514E045F002050DE045F0200575
:108650000AE06269012101989047682802D045F03C
:10866000080505E045F4006562690121019890471D
:10867000C4E9015765283DD019DC58287AD00CDCB4
:10868000452837D004DC252826D0412831D131E0D7
:1086900046282FD047282CD12CE05B2877D06128A2
:1086A00028D063287CD0642823D15AE0D0E06F28FA
:1086B00048D008DC66281DD067281BD0692821D047
:1086C0006E2816D127E0702845D0732868D0752809
:1086D00047D078280DD14DE0A1690B988847054611
:1086E00025283FF469AFE1690B9888476D1C3FF47A
:1086F0006AAFB3E023466A466FF001000B99AFF30F
:1087000000809EE045F040006060A80723464FF0DF
:10871000000236D43EE0E8077FF447AF2068011D31
:1087200021600068290501D506701BE7290701D5DE
:10873000068017E7A90703D5F117C0E9006111E723
:1087400006600FE745F040006060A80723464FF041
:10875000080216D41EE040F60E0125EA0100606012
:1087600016E045F040006060A80723464FF00A027B
:1087700007D40FE045F040006060A80708D5234605
:1087800010226FF001000B99AFF3008059E007E071
:10879000234610226FF001000B99FFF7B9FD50E05E
:1087A0004FF000094F464B46632802D05B2806D0A5
:1087B00040E0E80601D40120A06001273AE06269A8
:1087C0000121019890475E2805D14FF001096269A7
:1087D000494601989047216939B900210A46534614
:1087E00043F82120491C0829FADBB0B3216969B993
:1087F000C11700EBD16253110AEB830122F01F0273
:10880000821A01200B68904003430B6062690121CA
:10881000019890475D28E8D1B9F1000F09D00020F8
:10882000514651F82020D24341F82020401C08280E
:10883000F7DB02AB224600976FF001000B99AFF314
:10884000008000280CDA401C08D1BBF1000F05D0D5
:108850004FF0FF300DB0BDE8F08FFFE74046F9E77D
:10886000E90701D108F1010806444FF0000B79E651
:10887000CCCCCC0C7F2801D9002208E0064A02EBC0
:108880005002C007127800D1120902F00F02012035
:1088900090400840704700005868010870B58C1877
:1088A00010F8015B15F0070301D110F8013B2A1104
:1088B00006D110F8012B03E010F8016B01F8016BF1
:1088C0005B1EF9D12B0705D40023521E0DD401F8ED
:1088D000013BFAE710F8013BCB1A921C03E013F8B6
:1088E000015B01F8015B521EF9D5A142D8D30020EB
:1088F00070BD000070B5064615460C4600680BF0CA
:1089000061F8C1B201EB8102286802EBC1010B4A98
:10891000401C02EB41012860226831F812108142AC
:108920000ADA012129602068401C20600C2803DD40
:1089300021603068401C306070BD0000F4590108AF
:108940002DE9F04107461D4616460C4600680BF01F
:1089500039F8C1B22868401C286017281BDD0020A8
:10896000286001EB8102306802EBC1010B4A401C18
:1089700002EB41013060226831F8121081420ADABC
:10898000012131602068401C20600C2803DD21603B
:108990003868401C3860BDE8F0810000F4590108D7
:1089A00010B5044604F068FE04F12C0004F0EEFD5E
:1089B00001002069227E00F1010002F10202237A07
:1089C00000FA02F04FF0010202FA03F200FB02F09B
:1089D000C4E9110201D0012010BD002010BD00200B
:1089E000704700002DE9F843002404F04FFF05F024
:1089F00025F8FF2005F00AF9641CA4B20A2CF8D36C
:108A0000142400219522084605F05AF8054601284D
:108A100002D0641EA4B2F4D2474E0027012D377055
:108A20007CD187224FF4D571082005F049F84FF624
:108A3000FE7801281DD001220021372005F040F8E2
:108A400001220021292005F03BF801284ED8022000
:108A50003070444601220021372005F031F8012210
:108A60000021292005F02CF8E0B3641EA4B2F1D255
:108A700048E000246F46FF2004F0C6FF3855641C10
:108A8000A4B2042CF7D39DF80200012846D19DF82A
:108A90000300AA2842D1444645070122002137207D
:108AA00005F00EF801222946292005F009F810B139
:108AB000641EA4B2F1D2012200213A2005F000F890
:108AC000054694B18DB90024FF2004F09DFF385570
:108AD000641CA4B2042CF7D39DF80000400602D514
:108AE000062001E00EE00420307017E00120307015
:108AF000444601220021104604F0E2FF10B1641E3A
:108B0000A4B2F6D201225102102004F0D9FF05468A
:108B100004B11DB1377009A008F094FC04F028FDE1
:108B200004F074FF307810B10020BDE8F8830DB177
:108B30000120FAE7AA20F8E7CD02002053445F5451
:108B40005950455F4552520D0A0000002DE9F04191
:108B500005461E46C80505D01AA008F073FC012082
:108B6000BDE8F0811E48490A0078062800D0490275
:108B70004FF40077012E4FF0010217D0122004F0BD
:108B80009FFF3946284604F025FF044605F5007589
:108B9000761E01D0002CF4D0012200210C2004F01C
:108BA0008FFF00BF04F0E4FC2046D9E7112004F059
:108BB00087FF0400F6D13946284604F00BFF04462F
:108BC000F0E70000526561644164647220697320BB
:108BD0006E6F7420353132202A204E0D0A000000BD
:108BE000CD02002070B505461E46C80504D01FA062
:108BF00008F028FC012070BD23484C0A00780628A4
:108C000000D06402012E13D0012809D001220021D6
:108C1000372004F055FF01223146172004F050FFA1
:108C200001222146192004F04BFF04000AD018E06D
:108C300001222146182004F043FF040011D1FE2137
:108C400028460BE0FC21284604F012FF05F50075CC
:108C5000761E01D00028F5D0FD21002004F008FF89
:108C6000044604F085FC204670BD0000577269740C
:108C70006541646472206973206E6F7420353132EF
:108C8000202A204E0D0A0000CD020020FEE7000041
:108C9000002909D10069002806D0044AD160506338
:108CA0004180018003F052BE704700009C0000200C
:108CB000F0B595B014227BA101A8FFF7A1FA142208
:108CC0007DA106A8FFF79CFA142280A10BA8FFF74C
:108CD00097FA142282A110A8FFF792FA002401AD9E
:108CE00004F1800003F080FF0026287803F0A2FF43
:108CF000761CF6B26D1C022EF7D3641CE4B2082C6D
:108D0000EED306AD5FF0000404F1900003F06CFFB9
:108D10000026287803F08EFF761CF6B26D1C022E1A
:108D2000F7D3641CE4B2082CEED30BAE5FF0000462
:108D300004F1880003F058FF0025307803F07AFF33
:108D40006D1CEDB2761C022DF7D3641CE4B2082C26
:108D5000EED310AE5FF0000404F1980003F044FF7E
:108D60000025307803F066FF6D1CEDB2761C022DF5
:108D7000F7D3641CE4B2082CEED314215D48FFF74E
:108D800058FA5D4C0A255DA2E18FB1FBF5F0B1FB0D
:108D9000F5F305FB101000901421564808F062FB13
:108DA000544E002707F1850003F01EFF307803F0D2
:108DB00041FF16F8010F03F03DFF7F1CFFB2761C48
:108DC000022FEFD314214B48FFF733FAB4F84000D9
:108DD0004AA2B0FBF5F1B0FBF5F305FB11010091E0
:108DE0001421444808F03EFB424E002707F195004D
:108DF00003F0FAFE307803F01DFF16F8010F03F0C0
:108E000019FF7F1CFFB2761C022FEFD314213948C3
:108E1000FFF70FFAB4F8421038A2B1FBF5F0B1FB3E
:108E2000F5F305FB101000901421324808F01AFBEE
:108E3000304D002606F18D0003F0D6FE287803F0B1
:108E4000F9FE15F8010F03F0F5FE761CF6B26D1C65
:108E5000022EEFD314212748FFF7EBF9B4F84410A2
:108E60006420B1FBF0F2B1FBF0F300FB12120092B0
:108E700025A214211F4808F0F5FA1E4C5FF00005EA
:108E800005F19D0003F0B0FE207803F0D3FE14F846
:108E9000010F03F0CFFE6D1CEDB2641C032DEFD368
:108EA00015B0F0BD31302020B7D6D6D33A202020DF
:108EB00020206D6D0000000036302020B7D6D6D3BC
:108EC0003A20202020206D6D000000003630B7D6FB
:108ED000D7EEB4F33A20202020206D6D0000000072
:108EE000B7A2C9FACAB1BCE43A202020203A202017
:108EF00000000000DC0B0020AC1700202532752E8E
:108F0000253031750000000020253032753A2530BB
:108F1000327500002DE9FC476D4F6E4C06464FF050
:108F2000010A002539B1012910D0022936D00329C0
:108F300065703AD136E06570306970B3E560A5625E
:108F400060634580058003F001FD23E0E56084F85F
:108F500001A0B6F9000010B101280AD034E05D4A42
:108F600000951832111F0023081F019505F0D8FA4B
:108F700008E0584A00951832111F0023081F019578
:108F8000FFF7B8FC387828B104F1100152A00EC9DF
:108F900008F058FA6078012816D006E0657030882D
:108FA000401E01E03088401C3080387820B1617864
:108FB0004DA000BF08F046FAB6F9000000287ADAA2
:108FC000A6F800A0BDE8FC87424865702C30D4F8B4
:108FD00014804178414513DB05D18278A369A3EB66
:108FE0000202022A0CDCDFF8109141450AD1827896
:108FF000A3699A1A012A05D199F80020142A01D2EE
:10900000A562D9E7414507D18278A3699A4203D185
:1090100099F80020142A0AD341450DD18078A1691E
:10902000081A012808D199F80000142804D33348FD
:10903000B0F85200A062BFE74FF480713048A562DB
:10904000FFF7F7F899F8011011B13B2905D00DE0B1
:1090500099F80200052804D308E099F8020037289F
:1090600004D942F210700AF042FDA5E7244B142205
:109070004046A1690BF00AFAF0B1214890F8982017
:1090800010F8951F303901EB4103C3EBC11102EB1E
:10909000C102417880786423594300EB800001EBE2
:1090A00040001118A1F5A051D039A16238780028EC
:1090B00082D014A07EE706E038780028A1D016A060
:1090C00008F0C0F978E701287FF77CAF358079E7B1
:1090D000560000209C00002074696D653A25642DBF
:1090E00025642D25640D0A006B65795F666C6167E8
:1090F0003D25640D0A000000F8140020AC17002084
:10910000DC0A002073637265656E5F7261696E3D93
:1091100025640D0A00000000B2E9D1AFCAFDBEDD32
:10912000CAA7B0DC0D0A0000F0B595B006461422BF
:109130007CA101A8FFF764F814227FA106A8FFF71D
:109140005FF8142281A10BA8FFF75AF8142284A11A
:1091500010A8FFF755F800240DF1040704F1800072
:1091600003F042FD0025387803F064FD6D1CEDB27C
:109170007F1C022DF7D3641CE4B2082CEED306AF9B
:109180005FF0000404F1900003F02EFD0025387814
:1091900003F050FD6D1CEDB27F1C022DF7D3641C53
:1091A000E4B2082CEED30BAF5FF0000404F18800AA
:1091B00003F01AFD0025387803F03CFD6D1CEDB27C
:1091C0007F1C022DF7D3641CE4B2082CEED310AF41
:1091D0005FF0000404F1980003F006FD00253878E4
:1091E00003F028FD6D1CEDB27F1C022DF7D3641C2B
:1091F000E4B2082CEED314215E48FFF71AF85E4C57
:109200005EA214215B48236908F02CF9594D002710
:1092100007F1810003F0E8FC287803F00BFD15F856
:10922000010F03F007FD6D1C7F1C17F0FF07EFD047
:1092300014215048FEF7FDFF50A214214D486369E8
:1092400008F010F94B4D002707F1830003F0CCFC28
:10925000287803F0EFFC15F8010F03F0EBFC6D1C10
:109260007F1C17F0FF07EFD014214248FEF7E1FF03
:1092700042A214213F48A36908F0F4F83D4D0027AD
:1092800007F1850003F0B0FC287803F0D3FC15F853
:10929000010F03F0CFFC6D1C7F1C17F0FF07EFD010
:1092A00014213448FEF7C5FFA06A0A2190FBF1F2B1
:1092B00090FBF1F301FB1202009232A214212D481F
:1092C00008F0D0F82B4D002707F18C0003F08CFC40
:1092D000287803F0AFFC15F8010F03F0ABFC7F1CFE
:1092E000FFB26D1C032FEFD3B6F90000284D78B103
:1092F00001280BD1E068022808D20AF071FD902302
:109300009D220095102103200AF0ABFD15B0F0BDA1
:10931000E0680228FAD20AF063FD902398220095B3
:10932000F0E7000020202020C4EA2020D4C2202022
:10933000C8D5202000000000202020202020202050
:10934000202020202020202000000000D3EAC1BFE0
:109350003A2020202020202020206D6D00000000D9
:10936000C9CFD2BBC8D520202020CFC2D2BBC8D500
:1093700000000000DC0B00209C000020253032752E
:1093800000000000202533752E25303175000000C7
:109390000E010020704700002DE9F047002504462B
:1093A000B0F904204848A8462E462F460AB3012AA1
:1093B00004D0022A11D0032A31D11FE0B4F90030C1
:1093C00013B1012B05D02AE03F4F05691037632602
:1093D00025E03D4FC5691C3708E0B4F9003013B1F2
:1093E000012B07D01BE0384F456914374FF00108B7
:1093F0000C2614E0344F056A203708E0B4F9003039
:1094000013B1012B07D00AE02F4F856918374FF0B1
:1094100001081F2603E02C4F456A243717264FF01A
:10942000010A4FF0000931B1012910D0042924D0DC
:10943000052924D11BE0216909B3C0F80C904163D0
:10944000A1F80290A1F80490A1F800A00CE0521C31
:1094500012B2A2804946C0F80C90032A0FDD62695F
:10946000426351809180118003F070FA07E00AB1E5
:109470006D1E04E02088401E0AE03AB16D1CB4F96C
:109480000000002806DAA4F800A007E02088401CAD
:109490002080F4E7012801DDA4F80090404645450E
:1094A00001DA354602E0B54200DD0546B4F90400B4
:1094B000002802DA0320A08003E0032801DDA4F8DD
:1094C00004903D60BDE8F0879C0000202DE9F0414C
:1094D00096B00546142295A102A8FEF791FE14222B
:1094E00097A107A8FEF78CFE14229AA10CA8FEF7FC
:1094F00087FE14229CA111A8FEF782FE002402AF71
:1095000004F1800003F070FB0026387803F092FB32
:10951000761CF6B27F1C022EF7D3641CE4B2082C32
:10952000EED307AF5FF0000404F1900003F05CFBA2
:109530000026387803F07EFB761CF6B27F1C022EE4
:10954000F7D3641CE4B2082CEED30CAF5FF0000438
:1095500004F1880003F048FB0026387803F06AFB2A
:10956000761CF6B27F1C022EF7D3641CE4B2082CE2
:10957000EED311AF5FF0000404F1980003F034FB68
:109580000026387803F056FB761CF6B27F1C022EBC
:10959000F7D3641CE4B2082CEED314217748FEF70D
:1095A00048FE774C77A2D4E90501CDE900011421EA
:1095B0007248236907F056FF704E002707F18C00B0
:1095C00003F012FB307803F035FB16F8010F03F0BF
:1095D00031FB7F1CFFB2761C042FEFD314216748A8
:1095E000FEF727FED4E90801CDE9000165A21421A8
:1095F0006248E36907F036FF604E002707F19C00E0
:1096000003F0F2FA307803F015FB16F8010F03F0BF
:1096100011FB7F1CFFB2761C042FEFD3B5F90000BD
:109620005C4E5D4FDFF8748110B1012838D04DE0F9
:10963000B5F9040030B101280DD0022814D0032858
:1096400025D043E0E068022840D20AF0C9FB80231D
:109650008822009636E0E068022837D20AF0C0FB84
:1096600080238C2200960FE0E06802282ED20AF0B8
:10967000B7FB80238D221021012000970AF0F1FB17
:1096800080238E22CDF80080102101201CE0E068AC
:1096900002281BD20AF0A4FB80238F220096F3E756
:1096A000B5F9040030B1012817D002281ED00328D4
:1096B0002DD00BE0E068022808D20AF091FB90233D
:1096C00098220096102103200AF0CBFBB5F9001078
:1096D000334839B3012925D122E0E0680228F5D2C8
:1096E0000AF07EFB90239C220096CDE7E0680228DA
:1096F000ECD20AF075FB90239D22102101200097E7
:109700000AF0AFFB90239E22CDF80080BCE7E06812
:109710000228DBD20AF064FB90239F220096B3E775
:109720001F481830686116B0BDE8F0812020202065
:10973000CAFDBEDDB2E9D1AF20202020000000002C
:109740002020202020202020202020202020202019
:1097500000000000C8D5CAFDBEDD3A2020202D2023
:10976000202D202000000000CAB1CAFDBEDD3A2035
:1097700020202D20202D202000000000DC0B0020C8
:109780009C000020253032752D253032752D253076
:10979000327500000E0100208E0100200E02002014
:1097A000681500208EB02C216846FEF742FD684601
:1097B00009F08AFE03F0CAF81F4F204C4FF47A7567
:1097C0004FF480462A460BA8E16B0AF0A1F9DDE9C7
:1097D0000B10E268521CE26010290FD101B2A07890
:1097E00018B1606B826802B190470120A0700246F8
:1097F0003146384600F0D3FAC82060810F4810493E
:109800002C3009F031FEA0780128DBD1606BC168F3
:1098100001B188476089401E00B26081502804DA97
:1098200000223146384600F0BAFAB4F90A0000289E
:10983000C8DA00206081C5E7000402409C000020D7
:10984000F814002010B54FF4806000F0D1F94FF407
:10985000006000F0CDF94FF4805000F0C9F94FF4EA
:10986000005000F0C5F9BDE810404FF4804000F012
:10987000BFB910B5802000F0BBF94FF4807000F044
:10988000B7F9BDE810404FF4007000F0B1B9000026
:1098900005464FF47A74294603A007F0D3FD20460D
:1098A00000F092F8F7E700004572726F723A257384
:1098B00000000000002200F001B8000030B50E4B9F
:1098C000054601205C7A012C15D8587A00241C54D6
:1098D000587A03EB800045605D7A03F108002A5452
:1098E000587A421C5A72303008703A2048702F2043
:1098F0008870CC70002030BDAC580020184A002180
:109900001068C305174804D5416941F0020141615F
:10991000911513689B0505D5436943F00103436125
:1099200041F4007113681B0505D5436943F0040336
:10993000436141F4006113689B0405D5436943F01A
:109940001003436141F400511368DB0405D54369FA
:1099500043F02003436141F48051116070470000DF
:10996000183C0240041C002070B5054600F01CFAAB
:109970000646144C09E0681C07D025B100F014FA23
:10998000801BA84201D9032070BD2068C007F2D116
:109990002068800701D5022020602068C0050BD414
:1099A0002068000508D42068800405D42068C0041D
:1099B00002D42068800503D5FFF7A0FF012070BD09
:1099C000002070BD183C024031B500F0EDF90446AE
:1099D00000F0EAF90099001B8842F9D338BD000075
:1099E0000348016841F00101016000207047000058
:1099F000043C02402DE9F047064631480C46154626
:109A0000017C01290BD00121814601744CF25037B1
:109A10003846FFF7A9FF4FF0000A18B14DE00220C9
:109A2000BDE8F087C9F814A0DFF89880042E09D0AB
:109A3000082E13D0102E1DD0022E26D0012E2AD093
:109A400086B33AE0EDB23846FFF78EFF58BBD8F840
:109A5000001021F48071C8F800102AE0ADB2384639
:109A6000FFF782FFF8B9D8F8001021F48071C8F828
:109A7000001015E03846FFF777FFA0B9D8F80010BE
:109A800021F48071C8F8001003E03846FFF76CFF3E
:109A900048B925600EE0ADB23846FFF765FF10B952
:109AA000258007E000E008E0EDB23846FFF75CFFF4
:109AB00018B925703846FFF757FF89F810A0AFE7AF
:109AC000041C0020043C024006480068C00707D080
:109AD00004480549083001600449016000207047CE
:109AE00001207047043C0240EFCDAB89050403021E
:109AF00038B50446282000F0BDF9172000F0BAF967
:109B000000254FF47A6100950098401C009088422F
:109B1000FAD321462F4800F03DF970BB2E4AB4F528
:109B2000807FD5600FD0B4F5007F11D0B4F5806F81
:109B300013D0B4F5006F15D0B4F5805F17D0B4F52D
:109B4000005F1BD01FE0D06BB8B16422002112E08F
:109B5000D06B90B1642201210DE0D06B68B164221A
:109B6000052108E0D06B40B16422042103E0D06BF2
:109B700018B1642202210AF013F804E0D06B10B18E
:109B800064220321F7E72146144C204600F002F935
:109B9000C0B98021204600F0FDF830B18021204678
:109BA00000F0F8F801280AD00CE00D480178491CB3
:109BB0000170B0F85210491CA0F8521002E009A040
:109BC00007F040FC282000F060F9BDE8384017207D
:109BD00000F05BB9000802409C0000200000024039
:109BE000AC1700206E6F20207261696E0A000000C1
:109BF000044910B50A68024202D00860FFF778FFF6
:109C000010BD0000140401402DE9F84FDFF864B1E5
:109C100000234FF0010C4FF0030A4FF00F090BF136
:109C2000040EA0E00CFA03F6324072D04C68022C0D
:109C300001D0122C0ED1DC0800EB8408D8F82040AB
:109C40005D07EF0E09FA07F5AC430D69BD402543EA
:109C5000C8F8205007685D0091F804800AFA05F4FE
:109C600008F00308A74308FA05F848EA0708C0F80F
:109C700000804F68012F05D0022F03D0112F01D093
:109C8000122F11D18768D1F80C80A74308FA05F884
:109C900048EA0708C0F808804768B7430E79C6F35A
:109CA00000169E403E434660C668A6438C68AC40A2
:109CB0003443C4604C68E40054D52F4C256845F00B
:109CC00001052560246823F0030504F001040094D5
:109CD0002A4C2544AF689C07240F09FA04F6B743C1
:109CE000274EB04201D1002615E0264EB04201D1E8
:109CF000012610E0244EB04201D102260BE0234E93
:109D0000B04201D1032606E0214EB04202D1042622
:109D100001E027E00526A6403E43AE60DBF80040A8
:109D20005D464E689443F60300D514432C60DEF87C
:109D3000004075464E689443B60300D514432C602A
:109D40000C4D08352C684E689443F60200D5144338
:109D50002C60084D0C352C684E689443B60200D533
:109D600014432C605B1C0A6832FA03F47FF45AAF88
:109D7000BDE8F88F00040140203802400000014097
:109D8000000002400004024000080240000C0240B3
:109D9000001002400069084000D0012070470AB15D
:109DA000816170470904FBE70148006870470000C3
:109DB0009002002070B5040011D021684CF6CC4010
:109DC0000860216845F255500860D4E900014160FF
:109DD0002168A0688860FFF7E7FF054609E00120D9
:109DE00070BD00BFFFF7E0FF401B302801D9032002
:109DF00070BD2068C0680028F4D121684AF6AA2006
:109E00000860002070BD00684AF6AA2101600020A9
:109E10007047000002480168491C0160704700005B
:109E200090020020094810B5016841F0040101606A
:109E3000016841F002010160032000F051F80F2099
:109E400000F006F800F015F8002010BD003C0240BC
:109E500010B5044600F040FA4FF47A71B0FBF1F00F
:109E600001F0ACFB00222146501E00F019F8002042
:109E700010BD704700F01F02012191404009800091
:109E800000F1E020C0F88011704700F01F020121AE
:109E900091404009800000F1E020C0F800117047B7
:109EA000F0B40E4B1B680C46C3F30223C3F1070545
:109EB000042D00D90425191D072901D2002300E033
:109EC000DB1E012606FA05F1491E214099409E40FD
:109ED000761E16403143F0BC02F0E4BC0CED00E00D
:109EE000064900F0070208684FF6FF03184040EAF1
:109EF0000220034A10430860704700000CED00E0A8
:109F00000000FA05BFF34F8F04480168044A01F4CA
:109F1000E06111430160BFF34F8FFEE70CED00E0FD
:109F20000400FA050248006800F4C05070470000C1
:109F3000007000400120010291FAA1F1024AB1FA39
:109F400081F142F82100704700000E42094A13686F
:109F500023F00303034313600748026822F004025E
:109F60000260012903D040BF20BF20BF704730BF2F
:109F7000704700000070004010ED00E02DE9F84F40
:109F800004460068C10701D1800778D5DFF86881F1
:109F90000027D8F80000C0000BD4D8F8001041F01A
:109FA0008051C8F80010D8F80000012700F0805058
:109FB0000090524D2868C00510D4286840F4807085
:109FC0002860FFF7F1FE064605E000BFFFF7ECFE54
:109FD000801B64285CD82868C005F7D5464E243E0F
:109FE0003068616800F0C04001F0C042824204D194
:109FF000A26802F0C042824209D0C1F301400328A6
:10A0000005D13068800302D50120BDE8F88F3A4DB4
:10A010001035286810F4403052D001F440318142AC
:10A0200002D02178C90707D1A16801F440318142EB
:10A0300046D02078800743D528684FF4000292FA72
:10A04000A2F1B1FA81F14FEA810C2D494FF0010ADA
:10A050008C4420F44030CCF880A692FAA2F2B2FAF6
:10A0600082F201EB82010023C1F880362860C0052E
:10A0700026D5FFF799FE81464FF4007B0AE038E0D1
:10A08000FFF792FEA0EB090141F28830814201D92D
:10A090000320BAE79BFAABF0B0FA80F040F0400141
:10A0A000BAEB511F01D1316800E029689BFAABF28D
:10A0B000B2FA82F202F01F020AFA02F00142DFD085
:10A0C0006068C0F30141032906D1316800F0C04047
:10A0D00021F0C041014331602868616801F44031DA
:10A0E000084328602FB1D8F8001021F08051C8F83B
:10A0F0000010002089E70000243802400070004072
:10A10000000047422DE9F047DFF8BC8105460E46C6
:10A11000D8F8000000F00100B04214D2012E05D1A1
:10A12000D8F8001041F00401C8F80010D8F8001069
:10A1300021F001013143C8F80010D8F8000000F008
:10A140000100B04271D12878604C800705D52068A5
:10A15000A96820F0F000084320602878C00771D07B
:10A160005A4A5A4B69680120083A2C33022910D008
:10A1700003292ED001292FD05FEA402797FAA7FCA8
:10A18000BCFA8CFC4CF0200C5FEA5C1C04D012681A
:10A1900003E04FF40037F1E71A6897FAA7F3B3FA30
:10A1A00083F303F01F039840024262D0206820F03E
:10A1B000030008432060FFF7F7FD6968074641F296
:10A1C0008830022910D003291CD00129814626D0CD
:10A1D00034E04FF00077D1E70227CFE7FFF7E4FD47
:10A1E000C11B494501D926E081462068C0F38100A2
:10A1F0000228F3D126E000BFFFF7D6FDC11B494579
:10A2000001D918E081462068C0F381000328F3D10A
:10A2100018E000BFFFF7C8FDC11B49450BD82068F7
:10A22000C0F381000128F5D10CE022E0FFF7BCFD6E
:10A23000C11B494502D90320BDE8F087206810F012
:10A240000C0FF3D1D8F80010404601F00101B142E3
:10A2500011D9012E03D1016841F0040101600168A8
:10A2600021F0010131430160006800F00100B042BB
:10A2700001D00120E0E72878400705D52068E9688B
:10A2800020F4E060084320602878000706D52068A5
:10A29000296920F4605040EAC100206000F052F8C3
:10A2A0002168F02292FAA2F201F0F001B2FA82F2F1
:10A2B000D140074A515CC840064908600F20FFF7AB
:10A2C000C7FD0020B8E70000003C0240083802400B
:10A2D0002D5901083800002001480068704700002F
:10A2E0003800002008480949006809684FF4E06216
:10A2F00092FAA2F201F4E061B2FA82F2D140044A89
:10A30000515CC84070470000380000200838024007
:10A310003D59010808480949006809684FF460522E
:10A3200092FAA2F201F46051B2FA82F2D140044AE8
:10A33000515CC840704700003800002008380240D7
:10A340003D5901081E4A116801F00C00042813D081
:10A35000082813D00C2813D0101F006800F46041A7
:10A360004FF4604090FAA0F0B0FA80F0C1404FF492
:10A370000040491C88407047124870471248704797
:10A380004FF4701393FAA3F301F47010B3FA83F34C
:10A39000D8400E4B01F440011268185C4FF44003A2
:10A3A00093FAA3F3B3FA83F3D940491CD20301D53E
:10A3B000054A00E0034A5043B0FBF1F0704700004B
:10A3C000083802400024F400001BB700245901089B
:10A3D0002DE9F84F07460078FB4EFC4DC0074FF0C3
:10A3E000010428D0F848083001684FF40038C1F360
:10A3F0008101022907D00168C1F3810103291BD122
:10A400000068C00318D598FAA8F0B0FA80F040F0C0
:10A410002000400901D0306800E0286898FAA8F1CF
:10A42000B1FA81F101F01F0104FA01F108425CD098
:10A43000786800287BD058E0786801280AD008B1F5
:10A44000052811D0306820F480303060306820F466
:10A45000802002E0306840F480303060786828B3B3
:10A46000FFF7A2FC81460BE0306840F480203060AA
:10A47000F0E700BFFFF798FCA0EB0900642872D852
:10A4800098FAA8F0B0FA80F040F02000400901D01E
:10A49000306800E0286898FAA8F1B1FA81F101F07B
:10A4A0001F0104FA01F10842E4D01EE0FFF77CFC32
:10A4B000814605E0FFF778FCA0EB09006428DED8B0
:10A4C00098FAA8F0B0FA80F040F02000400901D0DE
:10A4D000306800E0286898FAA8F1B1FA81F101F03B
:10A4E0001F0104FA01F10842E4D13878DFF8E08274
:10A4F00080074FF0000B4FF002095FD5B2480830DB
:10A500000168C1F38101012907D00168C1F381010C
:10A5100003291CD10068C00319D499FAA9F0B0FA34
:10A5200080F040F02000400902D0306801E086E071
:10A53000286899FAA9F1B1FA81F101F01F0104FA32
:10A5400001F108422BD0F868012878D127E0F8689B
:10A55000A8B394FAA4F0B0FA80F048F82040FFF7CE
:10A5600023FC824606E066E1FFF71EFCA0EB0A0032
:10A57000022884D899FAA9F1B1FA81F141F02001B9
:10A58000490901D0316800E0296899FAA9F0B0FAC8
:10A5900080F000F01F0004FA00F00142E4D08A4885
:10A5A000001D01684FF4F85393FAA3F33A69B3FA24
:10A5B00083F321F4F8519A401143016025E0FFE74D
:10A5C00094FAA4F1B1FA81F148F821B0FFF7ECFB5D
:10A5D000824605E0FFF7E8FBA0EB0A000228C8D896
:10A5E00099FAA9F0B0FA80F040F02000400901D0BB
:10A5F000306800E0286899FAA9F1B1FA81F101F018
:10A600001F0104FA01F10842E4D138784FF4007ACE
:10A61000C0067CD56C480830006810F00C0F0FD0D5
:10A62000B9694FF48070002972D090FAA0F0B0FAA6
:10A6300080F048F82040FFF7B7FB00907EE087E00D
:10A640009AFAAAF0B0FA80F040F02000400901D058
:10A65000306800E028689AFAAAF1B1FA81F101F0B5
:10A660001F0104FA01F1084202D0B86900286FD036
:10A670005548396A001D006800F4604081421AD9CB
:10A68000084602F0C5FE002862D14F48001D01684F
:10A690003A6A21F460411143016001684FF07F4341
:10A6A00093FAA3F3FA69B3FA83F321F07F419A4056
:10A6B0001143016018E04448001D026822F4604222
:10A6C0000A43026001684FF07F4393FAA3F3FA69EB
:10A6D000B3FA83F321F07F419A4011430160386A55
:10A6E00002F096FE0028CFD14FF4604191FAA1F11B
:10A6F000386AB1FA81F1C8404FF40041401C8140F2
:10A70000314808300068F02200F0F00001E070E00D
:10A7100040E092FAA2F2B2FA82F2D0402D4A105CE6
:10A72000C1402D4801600F20FFF792FB61E000BFA0
:10A73000FFF73AFB0099401A02287CD89AFAAAF04F
:10A74000B0FA80F040F02000400902D0306801E00B
:10A75000BCE128689AFAAAF1B1FA81F101F01F016F
:10A7600004FA01F10842E3D01748001D01683A6A73
:10A7700021F460411143016001684FF07F4393FA77
:10A78000A3F3FA69B3FA83F321F07F419A401143AE
:10A7900001602EE090FAA0F0B0FA80F048F820B006
:10A7A000FFF702FB009005E0FFF7FEFA0099401A60
:10A7B0000228C2D89AFAAAF0B0FA80F040F020003D
:10A7C00040090BD030680AE00038024034380240BB
:10A7D000000047422D5901083800002028689AFAE5
:10A7E000AAF1B1FA81F101F01F0104FA01F1084266
:10A7F000DAD13878000753D5786948B394FAA4F0D1
:10A80000B0FA80F008EB8000C0F88046FFF7CCFA81
:10A81000009005E0FFF7C8FA0099401A02288CD88A
:10A8200099FAA9F0B0FA80F040F04000B4EB501F64
:10A8300002D1306801E08EE0286899FAA9F1B1FAF6
:10A8400081F101F01F0104FA01F21042E2D027E089
:10A8500094FAA4F1B1FA81F108EB8101C1F880B654
:10A86000FFF7A2FA009005E0FFF79EFA0099401A60
:10A87000022870D899FAA9F0B0FA80F040F04000B0
:10A88000B4EB501F01D1306800E0286899FAA9F1B3
:10A89000B1FA81F101F01F0104FA01F21042E3D193
:10A8A000387840077BD59B484FF000090068C0000E
:10A8B0000AD49848016841F08051016000684FF067
:10A8C000010900F08050009093480168C90511D437
:10A8D000016841F480710160FFF766FA009005E0BD
:10A8E000FFF762FA0099401A642834D88A48006851
:10A8F000C005F5D5B86801280AD008B1052811D0DF
:10A90000286820F480702860286820F4806002E0C5
:10A91000286840F480702860B86848B3FFF744FAAC
:10A9200000900DE0286840F480602860F0E700BFE8
:10A93000FFF73AFA0099411A41F2883081420AD869
:10A940009AFAAAF0B0FA80F040F04000B4EB501F41
:10A9500002D1306801E095E028689AFAAAF1B1FACC
:10A9600081F101F01F0104FA01F21042E0D022E06F
:10A97000FFF71AFA009007E0FFF716FA0099411A5C
:10A9800041F2883081427DD89AFAAAF0B0FA80F07C
:10A9900040F04000B4EB501F02D1306801E012E0FB
:10A9A00028689AFAAAF1B1FA81F101F01F0104FABC
:10A9B00001F21042E0D1B9F1000F04D0554801680E
:10A9C00021F080510160786AE8B3DFF84891A9F17D
:10A9D0001C09D9F80010C1F38101032976D002289F
:10A9E0004FF080714FF0007A58460BD091FAA1F1E8
:10A9F000B1FA81F148F82100FFF7D6F9B0460746D1
:10AA000056466DE04FF0807191FAA1F1B1FA81F1F3
:10AA10008A0042495050FFF7C7F9B3468046564670
:10AA200006E000BFFFF7C0F9A0EB0800022854D8E9
:10AA300096FAA6F0B0FA80F040F02000400903D06A
:10AA4000DBF8000001E061E0286896FAA6F1B1FAAF
:10AA500081F101F01F0104FA01F10842E2D1D7E9C6
:10AA60000A103A6BD9F80030014323F47D031A43EE
:10AA70001143C9F800104FF0807090FAA0F0B0FABE
:10AA800080F000E029E0810024480C50FFF78CF9A9
:10AA9000074604E0FFF788F9C01B02281DD896FA84
:10AAA000A6F0B0FA80F040F02000400902D0DBF8B8
:10AAB000000000E0286896FAA6F1B1FA81F101F0F1
:10AAC0001F0104FA01F10842E4D01FE020E000BFBA
:10AAD000FFF76AF9C01B022802D90320BDE8F88FEE
:10AAE00096FAA6F0B0FA80F040F02000400902D0BB
:10AAF000D8F8000000E0286896FAA6F1B1FA81F1D2
:10AB000001F01F0104FA01F10842E1D10020E5E75C
:10AB10000120E3E724380240007000400000474273
:10AB2000704700000348C068002801D009F0DEB873
:10AB3000704700003C00002010B5044600688168A2
:10AB4000C9040CD5C068C00509D52046FFF7EAFF47
:10AB50002068C16801F0800161F4C071C1602068A3
:10AB6000816889040CD5C068800509D52046FFF7A7
:10AB7000D7FF2068C16801F0800161F42071C160D5
:10AB800003494FF4003008600120607710BD0000D9
:10AB90001404014010B500680B4641680D4801409F
:10ABA000080CD870C1F304245C7001F03F049C7061
:10ABB000C1F34231197052B902F06CFCD870587868
:10ABC00002F068FC5870987802F064FC98700020DD
:10ABD00010BD00003FFFFF0010B50C460168896AF8
:10ABE00089B2616001680969C1F30E01A160006862
:10ABF00001680E480140C1F305402070C1F30623EF
:10AC0000637001F07F03A370402303EA1141E170F8
:10AC100052B902F03FFC2070607802F03BFC60709B
:10AC2000A07802F037FCA070002010BD7F7F7F006D
:10AC300070B5040002D0607F10B106E0012070BD45
:10AC400000202077204600F041F80220607721683C
:10AC5000CA204862216853204862204602F02EFC38
:10AC6000FF210028206803D0416204206077E5E7D7
:10AC70008268154B1A4082602268906863681843A6
:10AC8000D4E904352B43184390602268E0681061D2
:10AC900020680269238942EA034202612068C2688F
:10ACA00022F08002C2602068026C22F480220264DA
:10ACB0002068026CA3691A43026420684162012083
:10ACC0006077002070BD0000BFFF8FFF10B50068E7
:10ACD0001E4992B0884236D11D48016841F080512A
:10ACE0000160006800F080501090FFF723F90C20FD
:10ACF0000090002001240990029405946846FFF713
:10AD000067FB10B113A0FEF7C3FD4FF48030CDE90F
:10AD10000D400DA8FFF732F910B113A0FEF7B8FDF2
:10AD20004FF4800090FAA0F01849B0FA80F001EBDF
:10AD30008000C0F8804600220A212920FFF7B0F8E1
:10AD40002920FFF7A2F812B010BD00000028004033
:10AD5000243802404F7363436F6E666967206661F3
:10AD6000696C65640D0A000052544320636C6F6384
:10AD70006B20736F7572636520636F6E6669672001
:10AD80006661696C65640D0A0000000000004742BE
:10AD90002DE9F05F0446007F0D46012848D00120D0
:10ADA0002077022060772068002780684FEA4060A3
:10ADB000EAB3002859DA287802F06CFB95F82000F5
:10ADC00002F068FBA8782978EA7840EA01406978BF
:10ADD000090241EA0241084395F8201040EA016661
:10ADE000E869A969064368690643686840EA01089A
:10ADF0002168CA204862216853204862686AFF259A
:10AE0000B0F5807F20684FF0030B4FF47A7A8168A9
:10AE10002DD021F4007181602068C16801F08001AB
:10AE200061F42071C160FEF7BFFF814655E002E08A
:10AE30000220BDE8F09F002800DBEF70287802F0C8
:10AE400032FB0604687802F02EFB46EA0026A8785A
:10AE500002F029FB0643E87846EA004695F8200010
:10AE600002F021FB46EA0066BAE7EF70A6E721F49C
:10AE7000807181602068C16801F0800161F4C07157
:10AE8000C160FEF791FF814606E000BFFEF78CFF30
:10AE9000A0EB0900504519D82068C068C007F5D05C
:10AEA0002068C6612168C1F844802068816841F447
:10AEB000807181602068816841F480511FE000BF8B
:10AEC000FEF772FFA0EB0900504506D920684562E5
:10AED00084F81DB027770320ABE72068C06880079F
:10AEE000EED5206806622168C1F848802068816834
:10AEF00041F4007181602068816841F400518160F3
:10AF00000848016841F400310160064808300168D2
:10AF100041F40031016020684562012060772777A5
:10AF2000002086E7000401402DE9F0470446007F39
:10AF30000B46012825D04FF0010984F81C9002200F
:10AF40006077587802B302F0A5FA987802F0A2FA76
:10AF50009878D97840EA014558781978000240EA93
:10AF6000413005432168CA20486221685320486265
:10AF7000204602F0A3FA0026FF274FF0040838BB52
:10AF800019E00220BDE8F087C10603D500F0EF000C
:10AF90000A305870D87802F086FA0204587802F025
:10AFA00082FA42EA0022987802F07DFA0243187889
:10AFB00042EA4035D6E70D480540206845602068E4
:10AFC000C16821F08001C160204600F085F830B1F1
:10AFD0002068476284F81D8026770120D2E7206828
:10AFE000476284F81D9026770020CBE73FFFFF00E3
:10AFF0002DE9F0470446007F0D46012811D04FF09F
:10B00000010A84F81CA0022060772068002680686E
:10B010004FEA406042B100281ADA287802F03AFA82
:10B0200017E00220BDE8F087002800DBEE702878EA
:10B0300002F039FA0204687802F035FA42EA002296
:10B04000A87802F030FA0243E87842EA00470AE0C2
:10B05000EE70A878297840EA01476878E97800021C
:10B0600040EA014007432168CA2048622168532012
:10B070004862204602F022FA4FF0FF084FF0040920
:10B08000C0B914480740206807602068816821F42F
:10B0900080218160D5E90301084321688A68104353
:10B0A00088602068C16821F08001C160204600F0FE
:10B0B00013F838B12168C1F8248084F81D902677F0
:10B0C0000120AFE72168C1F8248084F81DA026770D
:10B0D0000020A7E77F7F7F0070B504460068816885
:10B0E000890614D4C16821F0A001C160FEF75CFE9E
:10B0F00005464FF47A7606E0FEF756FE401BB04256
:10B1000001D9032070BD2068C0688006F4D50020F6
:10B1100070BD10B504000ED02068016821F0400118
:10B120000160204600F04EF80020606584F8510070
:10B1300084F8500010BD012010BD90F851007047F8
:10B1400070B5040004D094F85100002510B106E059
:10B15000012070BD84F85050204600F034F80220E1
:10B1600084F851002068016821F040010160D4E9B1
:10B1700001010843D4E903121143084361690843FC
:10B18000218B01F400710843E1690843216A0843F7
:10B19000A16A084321680860A069042101EA1040FF
:10B1A000616A0843216848602168E06A0861206894
:10B1B000C16921F40061C1616565012084F8510015
:10B1C000002070BD704770472DE9F843044690F8A1
:10B1D0005100984601286ED139B332B394F850002B
:10B1E000012868D0012684F85060122084F85100AC
:10B1F000002565652163A286E286E564A564A563F2
:10B20000A587E587A06A7703B84209D1206801685D
:10B2100021F4005101602068016841F4005101608F
:10B22000A068B0F5004F03D007E00120BDE8F88327
:10B230002068016841F48041016020680168490686
:10B2400003D4016841F040010160E06800286068B3
:10B2500004D0D0B1E08E012817D020E010B1E08EEC
:10B26000012808D1206B411C216321680078C86047
:10B27000E08E401EE086E08EF0B1434600220221BF
:10B28000204602F0D3FCA0B9ECE7206B21680088CF
:10B29000C860206B801C2063E08E401EE086E08E3C
:10B2A00050B1434600220221204602F0BFFC002894
:10B2B000EBD00320BAE726E0A06AB84204D12068A8
:10B2C000016841F48051016043460022022120467A
:10B2D00002F0ACFC30B9434601228021204602F046
:10B2E000A5FC20B1606D40F020006065E1E7A0683A
:10B2F00018B92068C1688068009084F8516084F8AB
:10B300005050002092E7022090E72DE9F8430025F5
:10B31000DDF820800446ADF8005090F85100012877
:10B3200003D094F8510022287DD169B162B15BB19C
:10B3300094F85000012876D0012684F8506094F8E3
:10B340005100012803D005E00120BDE8F883322038
:10B3500084F851006565A263A387E3872163A38610
:10B36000E386A564E564A06A4FF40057B84209D1AA
:10B370002068016821F4005101602068016841F4EF
:10B380000051016020680168490603D4016841F05A
:10B3900040010160E0684FF48271B0F5006F6068B1
:10B3A00007D0002867D088426ED1E08E012862D095
:10B3B0006AE020B188420CD1E08E012809D1206BCF
:10B3C00021680088C860206B801C2063E08E401ECE
:10B3D000E086E08E40BBA06AB84244D12068016894
:10B3E00041F4805101603EE02068C068A16B088094
:10B3F000A06B801CA0639EE04346002202212046F1
:10B4000002F014FC002874D1206B21680088C86009
:10B41000206B801C2063E08E401EE086E08E50B9D9
:10B42000A06AB84201E0C7E017E004D120680168D3
:10B4300041F480510160434600220121204602F080
:10B44000F5FB00286FD12068C068A16B0880A06B55
:10B45000801CA063E08F401EE087E08E0028CBD1E7
:10B46000606800286AD1434600220121204602F08C
:10B47000DDFBF0BBB8E7206B411C2163216800783D
:10B48000C860E08E401EE086E08E98BBA06AB8429D
:10B4900004D12068016841F48051016043460022D4
:10B4A0000121204602F0C2FB18BB2068C068A16BD6
:10B4B000087040E0434600220221204602F0B6FB1D
:10B4C000B8B9206B411C216321680078C860E08E08
:10B4D000401EE086E08E38B9A06AB84204D12068E8
:10B4E000016841F480510160002243460121204659
:10B4F00001E018E00BE002F099FBA0B92068C268F7
:10B50000A06B411CA1630270E08F401EE087E08EBB
:10B510000028CFD1606888B9434600220121204627
:10B5200002F084FB08B103200FE72068C168A06B1C
:10B53000421CA2630170E08F401EE087A06AB842FF
:10B5400010D1434600220121204602F06FFB18B1C2
:10B55000606D40F002000FE02068C068ADF80000A8
:10B56000BDF80000434601228021204602F05EFB28
:10B5700020B1606D40F020006065D4E784F8516030
:10B58000A06AB84214D120688168C943C9060FD4A3
:10B59000616D41F002016165016821F400510160B3
:10B5A0002068016841F40051016084F85050CBE6F6
:10B5B00084F850500020C8E60220C6E610B5401EB0
:10B5C000B0F1807F01D3012010BD4FF0E024606115
:10B5D0000F21601701F066F90020A06107202061AB
:10B5E000002010BD0168CA6842F00102CA6000680C
:10B5F000016841F0010101600020704770470000C0
:10B600002DE9F041044690F834000D4601283DD064
:10B61000012684F83460022084F83500AAB3042A95
:10B6200046D02068082A55D0D5E90027E968036A82
:10B6300023F480530362D0F81CC0036A2CF4407CCE
:10B640004CEA07274FF6FF7C27F470470CEA0131DC
:10B6500039434FF4204723F4204307EA02321A43C8
:10B66000C16102622068C16921F44061C161206842
:10B67000C169AA6841EA0221C0F81C1084F835604B
:10B68000002084F83400BDE8F08101E00220FAE7F0
:10B69000D5E90012EB68206803F03EFD206881695F
:10B6A00021F00C01816120688169AA6811430FE0D3
:10B6B000D5E90012EB68206803F060FD206881691D
:10B6C00021F44061816120688169AA6841EA022110
:10B6D0008161D3E7D5E9002C2F7B016A21F48071C9
:10B6E0000162C169036A21F0030141EA0C0121F002
:10B6F000F00C39074FF420674CEA116123F4206302
:10B7000007EA02221A43C16102622068C16921F07E
:10B710000C01C1612068C169AA681143ACE710B58A
:10B72000040003D094F8350010B107E0012010BDEB
:10B73000002084F83400204600F00CF8022084F841
:10B740003500211D206803F09DFC012084F83500A0
:10B75000002010BD00B50168164887B0814227D18E
:10B760001548016841F002010160006800F0020024
:10B77000059011480838016841F002010160006835
:10B78000012100F002000590402000900220CDE948
:10B7900001010321CDE9031069460848FEF734FA98
:10B7A000002203211D20FEF77BFB1D20FEF76DFB11
:10B7B00007B000BD000400402438024000000240F1
:10B7C00010B50268044631B1042908D0082915D003
:10B7D0000C2908D116E0D06840F0020002E0D068E1
:10B7E00040F00400D0600122206803F089FC20684A
:10B7F000016841F001010160002010BDD06840F0F7
:10B800000800EFE7D06840F01000EBE770B50446A1
:10B81000006801694FF00005C943890715D4C16864
:10B82000C943890711D4E91E0161012020752068F0
:10B8300080698007204602D0FFF7E0FE04E000F0B8
:10B8400078F8204600F076F8257520680169C9432C
:10B85000490717D4C168C943490713D46FF00401DD
:10B860000161022020752068806910F4407F204625
:10B8700002D0FFF7C3FE04E000F05BF8204600F0C2
:10B8800059F8257520680169C943090716D4C168AC
:10B89000C943090712D46FF0080101610420207523
:10B8A0002068C0698007204602D0FFF7A7FE04E0A9
:10B8B00000F03FF8204600F03DF82575206801694A
:10B8C000C943C90617D4C168C943C90613D46FF068
:10B8D00010010161082020752068C06910F4407FC4
:10B8E000204602D0FFF78AFE04E000F022F820464E
:10B8F00000F020F8257520680169C943C90708D1FF
:10B90000C168C943C90704D1891E0161204600F0FE
:10B9100012F820680169C943490609D4C168C943BE
:10B92000490605D46FF040010161204600F004F89B
:10B9300070BD7047704770477047704770B504001E
:10B9400004D094F83900002510B106E0012070BD44
:10B9500084F83850204600F021F8022084F839009D
:10B960002068C16821F40051C160204603F06EFEDA
:10B970002068016921F4904101612068416921F04A
:10B980002A0141612068C16841F40051C160E5634A
:10B99000012084F83900002070BD0000F0B5424A53
:10B9A000076842490223012403250726404887B03F
:10B9B000974223D10A1D176847F480471760126821
:10B9C00002F4804205920A6842F001020A600968A6
:10B9D00001F00101059169028DE87A006946FEF7E0
:10B9E00013F934480068C16841F02001C1600022A9
:10B9F0000E212520FEF754FA252028E02B4ADFF8F7
:10BA0000B8C00832674526D1176847F40037176079
:10BA1000126802F4003205920A6842F001020A60DC
:10BA2000096801F0010105910C218DE87A00694651
:10BA3000FEF7EAF81F4840300068C16841F0200175
:10BA4000C16000220E212620FEF72AFA2620FEF7EA
:10BA50001CFA07B0F0BD19488742FAD1106840F4CB
:10BA600080201060106800F480200590086840F085
:10BA7000040008600868694600F0040005904FF46F
:10BA800040608DE879000E48FEF7BEF80948803026
:10BA90000068C16841F02001C16000220E2127200A
:10BAA000FEF7FEF92720D2E7003801401C3802409B
:10BAB00000000240F815002000440040004800400B
:10BAC000000402402DE9F047044690F839009946F9
:10BAD0000D46012801D0222858D12DB322B394F865
:10BAE0003800012852D0012684F838600027E76327
:10BAF00094F8390022281AD05FF0120084F8390037
:10BB0000A284E2844FF48058E08C4B46401EE084CF
:10BB1000A0684FF0000240454FF08001204613D14D
:10BB200003F0E4FE08BB04E00120BDE8F08732200A
:10BB3000E4E728882168C0F308004860206908B15C
:10BB40006D1C08E0AD1C06E003F0D0FE68B921686A
:10BB500015F8010B4860E08C0028D5D14B46002237
:10BB60004021204603F0C2FE08B10320DDE794F82F
:10BB70003900322806D084F8396000BF84F8387064
:10BB80000020D2E7222084F83900F7E70220CCE732
:10BB9000FEE700002DE9FC475A4F5B4C06464FF08C
:10BBA0000108002539B1012910D002294AD0032902
:10BBB00065704ED14AE065703069E8B3A562606394
:10BBC0004580A0F8008000F0C1FE22E084F80180EA
:10BBD000B6F9000010B101280AD01CE04A4B0095CC
:10BBE00024331A1F111F0020019502F0C1FC08E048
:10BBF000454B009524331A1F111F00200195FCF7B7
:10BC00009FFE387828B104F11C0140A00EC905F050
:10BC100019FC607880B13C48E1692C30DFF8FC9079
:10BC200042788A468A420BDB22D18078216A884298
:10BC30001ED199F8000000E00BE0616A884217DA33
:10BC4000A5620DE065703088401E01E03088401C20
:10BC50003080387820B1617831A000BF05F0F2FB68
:10BC6000B6F90000002849DAA6F80080BDE8FC8794
:10BC70004FF480712E48A562FCF7DBFA99F80110A9
:10BC800011B13B2905D00DE099F80200052804D335
:10BC900008E099F80200372804D942F2107007F042
:10BCA00026FFDDE7D4E90812214B504608F0EEFBF1
:10BCB000E8B11F4890F8942010F8911F303901EB3B
:10BCC0004103C3EBC11102EBC102417880786423C8
:10BCD000594300EB800001EB40001118A1F5A05181
:10BCE000D039A16238780028BAD012A0B6E73878E7
:10BCF0000028B5D014A005F0A5FBB1E70128B5DDFB
:10BD00003580B3E7560000209C00002074696D6503
:10BD10003A25642D25642D25640D0A00F8140020B1
:10BD20006B65795F666C61673D25640D0A000000F4
:10BD3000DC0A002073637265656E5F7261696E3D37
:10BD400025640D0A00000000B2E9D1AFCAFDBEDDD6
:10BD5000CAA7B0DC0D0A0000F0B595B00646142263
:10BD60007CA101A8FCF74CFA14227FA106A8FCF7DD
:10BD700047FA142281A10BA8FCF742FA142284A1ED
:10BD800010A8FCF73DFA00240DF1040704F180002F
:10BD900000F02AFF0025387800F04CFF6D1CEDB252
:10BDA0007F1C022DF7D3641CE4B2082CEED306AF3F
:10BDB0005FF0000404F1900000F016FF00253878D1
:10BDC00000F038FF6D1CEDB27F1C022DF7D3641C10
:10BDD000E4B2082CEED30BAF5FF0000404F188004E
:10BDE00000F002FF0025387800F024FF6D1CEDB252
:10BDF0007F1C022DF7D3641CE4B2082CEED310AFE5
:10BE00005FF0000404F1980000F0EEFE00253878A1
:10BE100000F010FF6D1CEDB27F1C022DF7D3641CE7
:10BE2000E4B2082CEED314215E48FCF702FA5E4C13
:10BE30005EA214215B48E36905F014FB594D00270D
:10BE400007F1810000F0D0FE287800F0F3FE15F82D
:10BE5000010F00F0EFFE6D1C7F1C17F0FF07EFD005
:10BE600014215048FCF7E5F950A214214D48236AEB
:10BE700005F0F8FA4B4D002707F1830000F0B4FEFF
:10BE8000287800F0D7FE15F8010F00F0D3FE6D1CE6
:10BE90007F1C17F0FF07EFD014214248FCF7C9F9C7
:10BEA00042A214213F48636A05F0DCFA3D4D0027A9
:10BEB00007F1850000F098FE287800F0BBFE15F829
:10BEC000010F00F0B7FE6D1C7F1C17F0FF07EFD0CD
:10BED00014213448FCF7ADF9A06A0A2190FBF1F275
:10BEE00090FBF1F301FB1202009232A214212D48C3
:10BEF00005F0B8FA2B4D002707F18C0000F074FE16
:10BF0000287800F097FE15F8010F00F093FE7F1CD3
:10BF1000FFB26D1C032FEFD3B6F90000284D78B1A6
:10BF200001280BD1E068022808D207F059FF9023BE
:10BF30009D2200951021032007F093FF15B0F0BD5E
:10BF4000E0680228FAD207F04BFF90239822009570
:10BF5000F0E7000020202020D4C22020C8D52020D7
:10BF6000CAB1202000000000202020202020202016
:10BF7000202020202020202000000000D3EAC1BF84
:10BF80003A2020202020202020206D6D000000007D
:10BF9000C9CFD0A1CAB120202020CFC2D0A1CAB120
:10BFA00000000000DC0B00209C00002025303275D2
:10BFB00000000000202533752E253031750000006B
:10BFC0000E0100200520401E10F0FF00FBD170473D
:10BFD00070B501F0AFFA0E4D4FF400540022214627
:10BFE0002846FDF7DCFE002261102846FDF7D7FE4B
:10BFF000FFF7E8FF012221462846FDF7D0FEFFF7B4
:10C00000E1FF21462846BDE870400022FDF7C7BE8B
:10C010000004024010B500F0F3F8A22000F0B6F8DA
:10C0200000F036F9012858D0002000F0AFF800F0F9
:10C030002FF9012851D0002000F0A8F800F028F9CD
:10C0400001284AD0132000F0A1F800F021F90128BE
:10C0500043D000F0D5F8A22000F098F800F018F9CD
:10C0600001283AD0092000F091F800F011F90128D8
:10C0700033D0802000F08AF800F00AF901282CD093
:10C08000802000F083F800F003F9012825D08020FB
:10C0900000F07CF800F0FCF801281ED0802000F0B1
:10C0A00075F800F0F5F8012817D0002000F06EF8C0
:10C0B00000F0EEF8012810D0822000F067F800F0C0
:10C0C000E7F8012809D0012000F060F800F0E0F85E
:10C0D000012802D000F0B8F8002010BD70B501F0C2
:10C0E00029FA0E4D4FF40054002221462846FDF750
:10C0F00056FE012211032846FDF751FEFFF762FFAD
:10C10000012221462846FDF74AFEFFF75BFF214644
:10C110002846BDE870400022FDF741BE0004024001
:10C120002DE9F0470825002401F0E6F90122DFF8A7
:10C130005880160331464046FDF731FEB146AF0246
:10C14000464616E06006040E002239463046FDF7EA
:10C1500026FEFFF737FF012239463046FDF71FFE66
:10C16000FFF730FF49463046FDF714FE08B144F0B2
:10C1700001046D1EEDB2E5D2002239463046FDF7CE
:10C180000EFE2046BDE8F087000402402DE9F04194
:10C190000646082401F0CEF94FF48058A702174D47
:10C1A0001DE000BFFDF7FBFD300601D5012200E0D8
:10C1B000002241462846FDF7F2FD7006060EFFF705
:10C1C00001FF012239462846FDF7E9FDFFF7FAFE97
:10C1D000002239462846FDF7E2FDFFF7F3FE641E14
:10C1E000E4B24FF0000239462846DBD2FDF7D7FD16
:10C1F00041462846BDE8F041FDF7CCBD00040240B1
:10C2000070B501F097F901220E4D1403214628461E
:10C21000FDF7C5FD0122560331462846FDF7BFFD57
:10C22000FFF7D0FE002221462846FDF7B8FDFFF7B4
:10C23000C9FE002231462846FDF7B1FDBDE8704039
:10C24000FFF7C0BE0004024070B501F073F901228F
:10C250000E4D540321462846FDF7A1FD661000222D
:10C2600031462846FDF79BFDFFF7ACFE0122314623
:10C270002846FDF794FDFFF7A5FE0022214628463B
:10C28000FDF78DFDBDE87040FFF79CBE0004024045
:10C2900070B501F031F9184C4FF4005500222946D1
:10C2A0002046FDF77CFDFFF78DFE01221603314687
:10C2B0002046FDF774FDFFF785FE01222946204642
:10C2C000FDF76DFDFFF77EFE31462046FDF762FD6E
:10C2D00040B1FFF777FE002229462046FDF75FFDBB
:10C2E000012070BDFFF76EFE002229462046FDF7B3
:10C2F00056FD002070BD00000004024005480449BE
:10C3000001600421416040F6FF718160FDF752BD7C
:10C3100000300040D81600202DE9F04F694887B062
:10C32000016841F002010160016801F0020105911C
:10C33000016841F020010160016801F020010591D0
:10C34000016841F004010160016801F004010591F8
:10C35000016841F001010160016801F001010591EE
:10C36000016841F0080101600068032500F0080041
:10C37000059044F6FE700124002603958DE85100D7
:10C38000DFF8449169464846FDF73EFC012244F639
:10C39000FE314846FDF703FD0022A1024846FDF7A5
:10C3A000FEFC7F20CDE90006DFF820B16946584643
:10C3B000CDE90245FDF728FC4FF08008CDF800805C
:10C3C0000395CDE9014669465846FDF71DFC00225C
:10C3D00080215846FDF7E3FC042003958DE85100C9
:10C3E0003B4F69463846FDF70FFC002204213846D2
:10C3F000FDF7D5FC03950094DFF8D8A0CDE9014600
:10C4000069465046FDF700FC012211465046FDF7F3
:10C41000C6FC2F0300970395CDE9014669464846BF
:10C42000FDF7F2FB012239464846FDF7B8FC022031
:10C4300003958DE8510069465046FDF7E5FB002263
:10C4400002215046FDF7ABFC4CF2010003958DE84C
:10C45000510069464846FDF7D7FB01221146484680
:10C46000FDF79DFC0122D1034846FDF798FC01220F
:10C4700091034846FDF793FC174E4FF47C50CDE9ED
:10C48000000669465846CDE90245FDF7BDFBCDE9FA
:10C49000008669465046CDE90245FDF7B5FB00220E
:10C4A0000A211720FDF7FCFC1720FDF7EEFC002207
:10C4B0000A212820FDF7F4FC2820FDF7E6FC07B050
:10C4C000BDE8F08F1C380240000402400008024022
:10C4D000000C0240000002400000211010B514487A
:10C4E0008AB012490024C0E900147F218160FF2135
:10C4F000C0E9031444618461FEF79AFB4FF4807035
:10C50000099001208DF82000800707904FF08030BF
:10C5100005904FF0706001940690009400226946E7
:10C520000348FEF735FC0AB010BD000000280040AB
:10C53000B816002070B50446002531B3012904D097
:10C54000022923D0032927D123E06069E8B1184EDE
:10C55000F5603570706345800580858000F0F6F9E0
:10C560002088012818D1134906F1300006F07CFF1D
:10C5700006F13000C1783161417871618078C6E997
:10C58000060130620B480078706205E02088401E8A
:10C5900001E02088401C2080B4F90000002802DA65
:10C5A0000220208070BD0228FCDD258070BD0000C7
:10C5B0009C0000200C150020F0B593B00446002626
:10C5C00014229AA102A8FBF71BFE14229CA107A823
:10C5D000FBF716FE9F4882784178CDE90012C378B8
:10C5E0009DA21421A24804F03DFFA14D06F1800058
:10C5F00000F0FAFA287800F01DFB15F8010F00F0A2
:10C6000019FB761CF6B26D1C082EEFD3822000F0C9
:10C61000EBFA98A00CAE006800250C90307800F082
:10C6200009FB6D1CEDB2761C022DF7D3842000F0BF
:10C63000DBFA91A00DAE006800250D90307800F077
:10C64000F9FA6D1CEDB2761C022DF7D3862000F0AE
:10C65000CBFA8AA00EAE006800250E90307800F06C
:10C66000E9FA6D1CEDB2761C022DF7D3844882786E
:10C670004178CDE90012037877A214217C4804F0B8
:10C68000F1FE7B4D5FF0000606F1900000F0ACFA81
:10C69000287800F0CFFA15F8010F00F0CBFA761CDD
:10C6A000F6B26D1C082EEFD3922000F09DFA75A013
:10C6B0000FAE006800250F90307800F0BBFA6D1CBB
:10C6C000EDB2761C022DF7D3942000F08DFA6EA007
:10C6D00010AE006800251090307800F0ABFA6D1CA9
:10C6E000EDB2761C022DF7D3962000F07DFA67A0FC
:10C6F00011AE006800251190307800F09BFA6D1C97
:10C70000EDB2761C022DF7D302AD002606F18800AB
:10C7100000F06AFA287800F08DFA15F8010F00F0A1
:10C7200089FA761CF6B26D1C082EEFD314215048FE
:10C73000FBF77FFD56480A21B0F85200B0FBF1F23A
:10C74000B0FBF1F301FB1202009252A214214848FF
:10C7500004F088FE464D8C2000F046FA287800F060
:10C7600069FA687800F066FA8D2000F03DFAA87842
:10C7700000F060FAE87800F05DFA8E2000F034FAFC
:10C78000287900F057FA687900F054FA3149B4F981
:10C790000000424D2C3920B101280BD0022812D0C4
:10C7A0001DE0C86802281AD207F01AFB90239822CD
:10C7B000009510E0C868022811D207F011FB902301
:10C7C0009B22009507E0C868022808D207F008FB02
:10C7D00090239E2200951021022007F042FB07AF14
:10C7E0005FF0000505F1980000F0FEF900263878AA
:10C7F00000F020FA761CF6B27F1C022EF7D36D1CD7
:10C80000EDB2082DEED31E48B4F90010403049B106
:10C81000012902D0022905D102E01948583001E06F
:10C820001748E830606113B0F0BD0000C8D5D3EA06
:10C83000C1BF3A202020202020206D6D0000000084
:10C84000CBB2CAB12020B2E9D1AF2020C9E8D6C30B
:10C8500000000000C8000020202025303275202074
:10C860002530327520202530327520202020000010
:10C87000DC0B0020C4EA0000D4C20000C8D50000D0
:10C88000F8140020CAB10000B7D60000C3EB0000C6
:10C89000AC1700202534752E253175000E010020BF
:10C8A000FEE770470907090E002806DA00F00F00BE
:10C8B00000F1E02080F8141D704700F1E02080F8BE
:10C8C0000014704708B50020009000BF401C009085
:10C8D0006428FAD308BD00002DE9F04F884601F026
:10C8E0007F04203A00F03F091749D0B29B4600264A
:10C8F00001EB001A5FF000071AF80650BBF1000FB9
:10C900004FEAC57002D018B1002202E00028FBD027
:10C9100001222146484600F023F8641CE4B26D0869
:10C92000A4EB0800082809D07F1CFFB2082FE5D32C
:10C93000761CF6B2102EDDD3BDE8F08F09F10100B0
:10C94000444600F0FF09F3E7285A010810B501201A
:10C9500000F04AF9BDE810400220FDF735B80000AC
:10C9600000F03F0310B50F2000EAD10001F00701ED
:10C9700001248C400549002A01EB0311E4B20A5C52
:10C9800001D0224300E0A2430A5410BD0418002045
:10C9900010B50122D1021948FDF701FA4FF47A705F
:10C9A000FDF712F8302000F01FF9FFF78BFF302061
:10C9B00000F01AF9FFF786FF0C2000F015F9FFF7D9
:10C9C00081FF012000F010F90220FCF7FDFF062096
:10C9D00000F00AF9FFF776FF022000F005F9FFF7F3
:10C9E00071FF142000F000F9FFF76CFF302000F019
:10C9F000FBF8BDE81040FFF765BF000000040240EF
:10CA000070B594B0142232A16846FBF7F9FB1422EA
:10CA100034A105A8FBF7F4FB142237A10AA8FBF701
:10CA2000EFFB14222AA10FA8FBF7EAFB00246E46B5
:10CA300004F1800000F0D8F80025307800F0FAF812
:10CA40006D1CEDB2761C022DF7D3641CE4B2082CE9
:10CA5000EED305AE5FF0000404F1900000F0C4F8DE
:10CA60000025307800F0E6F86D1CEDB2761C022D42
:10CA7000F7D3641CE4B2082CEED30AAE5FF00004D6
:10CA800004F1880000F0B0F80025307800F0D2F80A
:10CA90006D1CEDB2761C022DF7D3641CE4B2082C99
:10CAA000EED30FAE5FF0000404F1980000F09CF8A4
:10CAB0000025307800F0BEF86D1CEDB2761C022D1A
:10CAC000F7D3641CE4B2082CEED314B070BD0000A0
:10CAD0002020202020202020202020202020202056
:10CAE00000000000534C332D314120202020202015
:10CAF00020202020000000002020D3EAC1BFBCE09D
:10CB0000B2E2B1A8BEAFD2C70000000070B586B0D7
:10CB100000248025224E03940294019404950094ED
:10CB2000CDE90045342000F05FF8DDE9001008444D
:10CB300000F05AF8049800F057F8302000F054F84C
:10CB40000294039810B1012806D00EE000980299D3
:10CB500006EB0010405C06E00098029906EB00101E
:10CB6000084490F8000200F065F80298401C02901A
:10CB70001028E6D30098401C00902028D2D38820AB
:10CB800004900398401C03900228C9D3362000F07B
:10CB90002BF806B03020BDE8704000F025B800004A
:10CBA000041800202DE9F0411F4616460C460546A4
:10CBB00013E0782C02D900241035EDB2302D03D9C2
:10CBC00000242546FFF7C2FE32783B462146284620
:10CBD000FFF782FE0834E4B2761C307820385E28F5
:10CBE000E7D9BDE8F081000070B5114D0446002280
:10CBF0004FF400712846FDF7D2F80D48610014305B
:10CC0000026801F4FF7122F4FF720A430260041506
:10CC1000012221462846FDF7C2F8FFF753FE002205
:10CC200021462846FDF7BBF8BDE87040FFF74ABE35
:10CC30000004024070B5114D0446012251022846FD
:10CC4000FDF7ADF80D4861001430026801F4FF7182
:10CC500022F4FF720A43026004150122214628468D
:10CC6000FDF79DF8FFF72EFE002221462846FDF72E
:10CC700096F8BDE87040FFF725BE000000040240B2
:10CC800070B5FFF7BDFAA220FFF780FAFFF700FBAF
:10CC9000012863D00220FFF779FAFFF7F9FA01289B
:10CCA0005CD0FFF7ADFAA320FFF770FAFFF7F0FAB8
:10CCB000012853D0FFF734FA294C2070FFF788F988
:10CCC000FFF72EFA6070FFF783F9FFF729FAA070DB
:10CCD000FFF77EF9FFF724FAE070FFF779F9FFF725
:10CCE0001FFA2071FFF774F9FFF71AFA6071FFF766
:10CCF0006FF9FFF715FAA071FFF7F0F9FFF7A4FA43
:10CD00006179A07901F01F016171E17801F03F01C3
:10CD1000E170A17801F03F01A170617801F07F011D
:10CD20006170217801F07F01217000F0B3FBE51FF5
:10CD30002870607900F0AEFB6870E07800F0AAFB24
:10CD4000E870A07800F0A6FB2871607800F0A2FBE4
:10CD50006871207800F09EFBA871002070BD000073
:10CD6000E70000202DE9F0471D46DDE908769046F2
:10CD70008946632800D90020B9F10C0F01D94FF082
:10CD80000109B8F11F0F01D94FF00108172D00D983
:10CD900000253B2F00D900273B2E00D9002600F0AC
:10CDA00082FB2E4C2070484600F07DFB60704046B0
:10CDB00000F079FBE070284600F075FB20713846E2
:10CDC00000F071FB6071304600F06DFBA071FFF761
:10CDD00017FAA220FFF7DAF9FFF75AFA01283AD03A
:10CDE0000220FFF7D3F9FFF753FA012833D0A079D7
:10CDF000FFF7CCF9FFF74CFA01282CD06079FFF748
:10CE0000C5F9FFF745FA012825D02079FFF7BEF9CB
:10CE1000FFF73EFA01281ED0E078FFF7B7F9FFF7D9
:10CE200037FA012817D00320FFF7B0F9FFF730FADF
:10CE3000012810D06078FFF7A9F9FFF729FA012837
:10CE400009D02078FFF7A2F9FFF722FA012802D0D3
:10CE5000FFF7FAF90020BDE8F0870000E0000020AD
:10CE6000704701210846FDF771B800002DE9F04137
:10CE7000AEB00C4605464022AF4912A8FBF7C0F9F8
:10CE8000142128A8FBF7D5F9002728A9384606F071
:10CE9000EBFA9DF8A2004FF0FF38401F332803D370
:10CEA00040462EB0BDE8F0810522A4A12846FBF73C
:10CEB000F9F928B30422A3A12846FBF7F3F9EE1CE5
:10CEC00000285DD00422A1A12846FBF7EBF9002839
:10CED00072D0A0A12846FBF7D0F900286DD004221B
:10CEE0009EA12846FBF7DEF9002867D007229DA106
:10CEF0002846FBF7D7F900287ED047463846D0E7CA
:10CF0000052C01D299A0FEE02D1D231F9FA24021D8
:10CF100012A8009504F0A6FA12A99EA004F092FAB5
:10CF2000012212A99F4805F0DDFB020002D012A9E0
:10CF30009DA0FAE0A34C4FF4007541F28836A14B56
:10CF40002A46A149974805F0EFFC020004D012A937
:10CF50009EA004F077FA0BE0206830B182B233462D
:10CF60009949A148FEF7AEFDE9E7A0A004F06AFAEE
:10CF70008C4805F044F80200C0D012A9A8A0D4E063
:10CF8000032C02D9A878202819D0402102A805F046
:10CF900069F8010007D0A9A004F054FAACA240211E
:10CFA00002A804F05FFA02A9AA4805F06FFC02008B
:10CFB00002A90CD0A8A0B8E06BE07DE08BE0E31EF6
:10CFC00072A2402102A8009604F04CFAEBE7AAA056
:10CFD00004F038FAABA00090ACA3AEA2AFA1B2A00F
:10CFE00004F030FAB8A00090B9A3B7A2BAA1AEA0DD
:10CFF00004F028FA22A900E082E0964805F07DFDC1
:10D0000090BB9DF8910078B3BDF88E00C0F3451138
:10D01000C00ACDE90001BDF88C0040F2BC7100F0FF
:10D020001F03C0F3431201EB5021AEA004F00AFA33
:10D030009DF89000810601D5412100E02D21420795
:10D0400001D5532200E02D22CDE90021810701D531
:10D05000482300E02D23C10701D0522200E02D22F9
:10D06000C00602D5442101E00AE02D21A4A004F06D
:10D07000E9F90DF19102A6A0229904F0E3F9B9E7CC
:10D08000744804F0D7FF02003FF438AF02A9A4A00F
:10D090004BE0042C10D3E31E3CA2402102A80096D2
:10D0A00004F0E0F902A804F07DFF010001D0A5A082
:10D0B0003FE002A9A8A03CE0402102A804F0D2FF72
:10D0C0000100F6D05DA004F0BDF961A2402102A8E4
:10D0D00004F0C8F9EDE7042C01D2A1A013E0E31E8F
:10D0E0002AA2402102A8009604F0BCF902A805F08B
:10D0F000C2FD020002A901D0A2A016E0A7A018E07C
:10D10000072C03D2AAA004F09DF9F7E6AD1DA31FDA
:10D110001EA2402102A8009504F0A4F902A805F07F
:10D12000E3F9020002A903D0AAA004F08BF9E5E616
:10D13000B0A004F087F9E1E6985901083C636174F6
:10D14000200000003C6C733E000000003C63642043
:10D15000000000003C7077643E0000003C726D20CF
:10D16000000000003C6D6B6469722000706C6561AA
:10D170007365207370656369667920612066696CE8
:10D1800065206E616D652E0D0A000000252E2A7344
:10D190000000000066696C6520222573223A0D0AA2
:10D1A00000000000A81200206F70656E2066696C98
:10D1B000652022257322206661696C65643A2564C6
:10D1C0000D0A000088000020F00B002072656164E9
:10D1D0002066696C65202573206661696C65643A18
:10D1E00025640D0A00000000F81500200D0A2F2A02
:10D1F0002A2A2A2A2A2A2A2A2A2A2A2A2A2A2A2A8F
:10D200002A2A2A454F462A2A2A2A2A2A2A2A2A2A22
:10D210002A2A2A2A2A2A2A2A2A2A2F0D0A00000024
:10D22000636C6F73652066696C6520257320666189
:10D23000696C65643A25640D0A00000067657463D3
:10D240007764206661696C65643A25640D0A0000A4
:10D250002F000000F00D00206F70656E2064697271
:10D260006563746F72792022257322206661696C70
:10D2700065643A25640D0A00504154483A25730DFF
:10D280000A0000004E616D65000000004C656E678D
:10D29000746800004D6F64650000000054696D659E
:10D2A0007374616D70000000252D323073207C2076
:10D2B000252D3573207C20252D313073207C2025B1
:10D2C0002D3135730D0A00002D2D2D2D000000008D
:10D2D0002D2D2D2D2D2D00002D2D2D2D2D2D2D2DD8
:10D2E0002D0000002534752F253032752F25303262
:10D2F00075202534753A253032752020207C200099
:10D3000025632563256325632563207C20000000B9
:10D31000252D313075207C20252D3135730D0A00E7
:10D32000636C6F7365206469726563746F727920D2
:10D3300022257322206661696C65643A25640D0AB2
:10D34000000000006368646972206661696C65644E
:10D350003A25640D0A00000025730D0A0000000044
:10D36000706C6561736520737065636966792061AF
:10D370002066696C652F6469726563746F72792EBB
:10D380000D0A000072656D6F7665202225732220DC
:10D390006661696C65643A25640D0A002225732272
:10D3A0002069732072656D6F766564210D0A000037
:10D3B000706C65617365207370656369667920615F
:10D3C000206469726563746F7279206E616D652E79
:10D3D0000D0A00006D616B65206469726563746F8E
:10D3E00072792022257322206661696C65643A2572
:10D3F000640D0A006D616B65206469726563746F0A
:10D4000072792022257322206F6B210D0A00000003
:10D41000F8B507461A48002600681A4D10F0F00FBC
:10D4200020D1174C1C342068C00002D5FCF77AFDCF
:10D430000DE0206840F080502060206800F08050AF
:10D440000090FCF76FFD216821F080512160B0F55C
:10D45000C05F07D1B7F5404F04D12868012640F0DE
:10D4600004002860286820F0010030432860286804
:10D4700000F00100B04201D00120F8BD0020F8BD4D
:10D4800008380240003C02400148FDF755BB00004F
:10D49000B8160020010901EB810100F00F0000EB3C
:10D4A0004100C0B27047002102E00A38C0B2491CF6
:10D4B0000A28FAD2090740EA1160704770B504469D
:10D4C0000068C168490614D44FF0FF31C160FCF711
:10D4D0006BFC05464FF47A7607E000BFFCF764FC6E
:10D4E000401BB04201D9032070BD2068C0684006CF
:10D4F000F4D5002070BD00000C4800B5016887B06D
:10D5000041F0020101600068694600F002000590E8
:10D510004FF480500090002001900290032003906F
:10D520000348FCF771FB07B000BD00001C38024047
:10D53000000402400C4800B5016887B041F00201C8
:10D5400001600068694600F0020005904FF48050C9
:10D5500000900120019000200290032003900348D6
:10D56000FCF752FB07B000BD1C380240000402402B
:10D5700010B5012211020448FCF711FCBDE810406F
:10D58000FF2000F043BB0000000002407FB50025F3
:10D590000446FF262B46324629460A2000F0E6F9CB
:10D5A00018B9FE2000F0BCF920B100F005FA04B073
:10D5B000304670BD4FEA0D0600F09AF970556D1CAB
:10D5C000102DF9D3FF2000F0BDF9FF2000F0BAF9CB
:10D5D000002600F0F1F99DF8000020709DF8010090
:10D5E0000002608060889DF80210084360809DF80A
:10D5F00003000006606060689DF8041040EA014086
:10D60000606060689DF8051040EA01206060606815
:10D610009DF80610084360609DF8070020729DF891
:10D62000080060729DF809000006E060E0689DF85F
:10D630000A1040EA0140E060E0689DF80B1040EA03
:10D640000120E060E0689DF80C100843E060217C58
:10D650009DF80D0041EA101121740007000D608251
:10D66000608A9DF80E10084360829DF80F00400804
:10D670002075012060759AE72DE9FF4104460025D9
:10D6800001222946092000F01BFAC8B9FE2000F04B
:10D69000E9F8F0B163A003F0D5FE012004B0BDE8C5
:10D6A000F081FF2000F0B2FA78556D1C761EF8D29A
:10D6B000FF2000F0ABFAFF2000F0A8FA102D0BD0ED
:10D6C000FF26294663A003F0BDFE00F075F9304641
:10D6D000E4E70F266F46E4E70026012500F06CF929
:10D6E0009DF8000081092170C0F38301617000F092
:10D6F0000300A0709DF80100E0709DF80200207109
:10D700009DF8030060719DF804000001E080E1884D
:10D710009DF8050041EA1011E18000F00F00207231
:10D720009DF80600C1096172C0F38011A172C0F3B7
:10D730004011E172C0F30011217300216173800771
:10D74000000D206120699DF8072040EA82002061D9
:10D7500022699DF8080042EA90122261C0F3C202D9
:10D76000227500F0070060759DF809004209A27556
:10D77000C0F38202E2758007400F2076227E9DF87A
:10D780000A0042EAD0122276C0F380126276800646
:10D79000400EA076A27E9DF80B0042EAD012A2763F
:10D7A00000F07F00E0769DF80C00C2092277C0F3FC
:10D7B00041126277C0F38202A2778007000FE07700
:10D7C000E27F9DF80D0042EA9012E277C0F340122A
:10D7D00084F8202084F8211000F0010084F8220051
:10D7E0009DF80E00C10984F82310C0F3801184F85D
:10D7F0002410C0F3401184F82510C0F3001184F800
:10D800002610C0F3810184F8271000F0030084F88B
:10D8100028009DF80F00400884F8290084F82A5059
:10D8200055E70000C3BBD3D0BDD3CAD5B5BD534463
:10D83000BFA8BBD8B8B4B5C4C6F0CABCC1EEC5C693
:10D84000646F206E6F74207761697420307846456C
:10D850000D0A0000636F756E7465723D25640D0AD4
:10D860000000000070B505464FF6FF7401E0641E2D
:10D87000A4B2FF2000F0C8F8A84202D0002CF6D1D4
:10D8800002E00CB1002070BDFF2070BD70B586B005
:10D8900014216846FAF7CDFC13480024016841F0D2
:10D8A0000101016000684FF4807500F001000590EF
:10D8B0000120CDE90050029003200C4E03906946F0
:10D8C0003046FCF7A1F900F00BFA01222946304658
:10D8D000FCF765FAFF2000F035F8641CE4B2092C6F
:10D8E000F8D906B070BD00001C38024000000240AC
:10D8F0000EB500200190401E02900748012301AAA6
:10D900000068009002A90548FDF7FFFC08B100F08F
:10D91000DDF90198C0B20EBDDC000020E416002045
:10D9200070B505464FF6FF7400E0641EFFF7E0FF98
:10D93000A84202D0002CF8D102E00CB1002070BD4A
:10D94000032070BD08B501228DF800000548694626
:10D9500003680548FDF738FC002801D000F0B6F94F
:10D9600008BD0000DC000020E41600207CB5002487
:10D97000009440F040008DF80000080E8DF8010082
:10D98000080C01948DF80200080A8DF804108DF837
:10D9900003008DF8052022464FF480710548FCF7FE
:10D9A000FEF96D46285DFFF7CDFF641C062CF9D308
:10D9B00000207CBD0000024010B501221102044885
:10D9C000FCF7EDF9BDE81040FF20FFF7BBBF0000FA
:10D9D0000000024070B504460D46FE20FFF742FFEE
:10D9E00030B1012070BD00BF00F010F904F8010B48
:10D9F0006D1EADB24FF0FF00F6D200F007F9FF2028
:10DA000000F004F9002070BD00F000B90A48016878
:10DA10000A6822F040020A6001680A684FF6C7737C
:10DA20001A400A6001680A680A600846096841F0FD
:10DA30004001016070470000E41600200B480168B7
:10DA40000A6822F040020A6001680A684FF6C7734C
:10DA50001A400A6001680A6842F030020A600068F1
:10DA6000016841F04001016070470000E4160020A9
:10DA700070B50D460646002400F05CF808B10120A0
:10DA800070BD284600F0C2F8FD2D17D04FF4007588
:10DA9000305D00F0BBF8641CA4B2AC42F8D3FF20A8
:10DAA00000F0B4F8FF2000F0B1F8FF20FFF7ACFF62
:10DAB00000F01F00052801D0022070BD002070BDBD
:10DAC00070B515460C460646FFF752FD00224FF48E
:10DAD00080711748FCF763F900F02CF818B1FFF7D4
